{
  "_format": "hh-sol-artifact-1",
  "contractName": "AltL1Bridge",
  "sourceName": "contracts/lzTokenBridge/AltL1Bridge.sol",
  "abi": [
    {
      "anonymous": false,
      "inputs": [
        {
          "indexed": true,
          "internalType": "address",
          "name": "_l1Token",
          "type": "address"
        },
        {
          "indexed": true,
          "internalType": "address",
          "name": "_l2Token",
          "type": "address"
        },
        {
          "indexed": true,
          "internalType": "address",
          "name": "_from",
          "type": "address"
        },
        {
          "indexed": false,
          "internalType": "address",
          "name": "_to",
          "type": "address"
        },
        {
          "indexed": false,
          "internalType": "uint256",
          "name": "_amount",
          "type": "uint256"
        },
        {
          "indexed": false,
          "internalType": "bytes",
          "name": "_data",
          "type": "bytes"
        }
      ],
      "name": "DepositFinalized",
      "type": "event"
    },
    {
      "anonymous": false,
      "inputs": [
        {
          "indexed": false,
          "internalType": "uint16",
          "name": "_srcChainId",
          "type": "uint16"
        },
        {
          "indexed": false,
          "internalType": "bytes",
          "name": "_srcAddress",
          "type": "bytes"
        },
        {
          "indexed": false,
          "internalType": "uint64",
          "name": "_nonce",
          "type": "uint64"
        },
        {
          "indexed": false,
          "internalType": "bytes",
          "name": "_payload",
          "type": "bytes"
        }
      ],
      "name": "MessageFailed",
      "type": "event"
    },
    {
      "anonymous": false,
      "inputs": [
        {
          "indexed": true,
          "internalType": "address",
          "name": "previousOwner",
          "type": "address"
        },
        {
          "indexed": true,
          "internalType": "address",
          "name": "newOwner",
          "type": "address"
        }
      ],
      "name": "OwnershipTransferred",
      "type": "event"
    },
    {
      "anonymous": false,
      "inputs": [
        {
          "indexed": false,
          "internalType": "uint16",
          "name": "_srcChainId",
          "type": "uint16"
        },
        {
          "indexed": false,
          "internalType": "bytes",
          "name": "_srcAddress",
          "type": "bytes"
        }
      ],
      "name": "SetTrustedRemote",
      "type": "event"
    },
    {
      "anonymous": false,
      "inputs": [
        {
          "indexed": true,
          "internalType": "address",
          "name": "_l1Token",
          "type": "address"
        },
        {
          "indexed": true,
          "internalType": "address",
          "name": "_l2Token",
          "type": "address"
        },
        {
          "indexed": true,
          "internalType": "address",
          "name": "_from",
          "type": "address"
        },
        {
          "indexed": false,
          "internalType": "address",
          "name": "_to",
          "type": "address"
        },
        {
          "indexed": false,
          "internalType": "uint256",
          "name": "_amount",
          "type": "uint256"
        },
        {
          "indexed": false,
          "internalType": "bytes",
          "name": "_data",
          "type": "bytes"
        }
      ],
      "name": "WithdrawalInitiated",
      "type": "event"
    },
    {
      "inputs": [],
      "name": "FUNCTION_TYPE_SEND",
      "outputs": [
        {
          "internalType": "uint256",
          "name": "",
          "type": "uint256"
        }
      ],
      "stateMutability": "view",
      "type": "function"
    },
    {
      "inputs": [],
      "name": "NO_EXTRA_GAS",
      "outputs": [
        {
          "internalType": "uint256",
          "name": "",
          "type": "uint256"
        }
      ],
      "stateMutability": "view",
      "type": "function"
    },
    {
      "inputs": [],
      "name": "dstChainId",
      "outputs": [
        {
          "internalType": "uint16",
          "name": "",
          "type": "uint16"
        }
      ],
      "stateMutability": "view",
      "type": "function"
    },
    {
      "inputs": [
        {
          "internalType": "uint16",
          "name": "",
          "type": "uint16"
        },
        {
          "internalType": "bytes",
          "name": "",
          "type": "bytes"
        },
        {
          "internalType": "uint64",
          "name": "",
          "type": "uint64"
        }
      ],
      "name": "failedMessages",
      "outputs": [
        {
          "internalType": "bytes32",
          "name": "",
          "type": "bytes32"
        }
      ],
      "stateMutability": "view",
      "type": "function"
    },
    {
      "inputs": [
        {
          "internalType": "uint16",
          "name": "_srcChainId",
          "type": "uint16"
        },
        {
          "internalType": "bytes",
          "name": "_srcAddress",
          "type": "bytes"
        }
      ],
      "name": "forceResumeReceive",
      "outputs": [],
      "stateMutability": "nonpayable",
      "type": "function"
    },
    {
      "inputs": [
        {
          "internalType": "uint16",
          "name": "_version",
          "type": "uint16"
        },
        {
          "internalType": "uint16",
          "name": "_chainId",
          "type": "uint16"
        },
        {
          "internalType": "address",
          "name": "",
          "type": "address"
        },
        {
          "internalType": "uint256",
          "name": "_configType",
          "type": "uint256"
        }
      ],
      "name": "getConfig",
      "outputs": [
        {
          "internalType": "bytes",
          "name": "",
          "type": "bytes"
        }
      ],
      "stateMutability": "view",
      "type": "function"
    },
    {
      "inputs": [
        {
          "internalType": "address",
          "name": "_lzEndpoint",
          "type": "address"
        },
        {
          "internalType": "uint16",
          "name": "_dstChainId",
          "type": "uint16"
        },
        {
          "internalType": "address",
          "name": "_ethBridgeAddress",
          "type": "address"
        }
      ],
      "name": "initialize",
      "outputs": [],
      "stateMutability": "nonpayable",
      "type": "function"
    },
    {
      "inputs": [
        {
          "internalType": "uint16",
          "name": "_srcChainId",
          "type": "uint16"
        },
        {
          "internalType": "bytes",
          "name": "_srcAddress",
          "type": "bytes"
        }
      ],
      "name": "isTrustedRemote",
      "outputs": [
        {
          "internalType": "bool",
          "name": "",
          "type": "bool"
        }
      ],
      "stateMutability": "view",
      "type": "function"
    },
    {
      "inputs": [],
      "name": "lzEndpoint",
      "outputs": [
        {
          "internalType": "contract ILayerZeroEndpoint",
          "name": "",
          "type": "address"
        }
      ],
      "stateMutability": "view",
      "type": "function"
    },
    {
      "inputs": [
        {
          "internalType": "uint16",
          "name": "_srcChainId",
          "type": "uint16"
        },
        {
          "internalType": "bytes",
          "name": "_srcAddress",
          "type": "bytes"
        },
        {
          "internalType": "uint64",
          "name": "_nonce",
          "type": "uint64"
        },
        {
          "internalType": "bytes",
          "name": "_payload",
          "type": "bytes"
        }
      ],
      "name": "lzReceive",
      "outputs": [],
      "stateMutability": "nonpayable",
      "type": "function"
    },
    {
      "inputs": [],
      "name": "maxTransferAmountPerDay",
      "outputs": [
        {
          "internalType": "uint256",
          "name": "",
          "type": "uint256"
        }
      ],
      "stateMutability": "view",
      "type": "function"
    },
    {
      "inputs": [
        {
          "internalType": "uint16",
          "name": "",
          "type": "uint16"
        },
        {
          "internalType": "uint256",
          "name": "",
          "type": "uint256"
        }
      ],
      "name": "minDstGasLookup",
      "outputs": [
        {
          "internalType": "uint256",
          "name": "",
          "type": "uint256"
        }
      ],
      "stateMutability": "view",
      "type": "function"
    },
    {
      "inputs": [
        {
          "internalType": "uint16",
          "name": "_srcChainId",
          "type": "uint16"
        },
        {
          "internalType": "bytes",
          "name": "_srcAddress",
          "type": "bytes"
        },
        {
          "internalType": "uint64",
          "name": "_nonce",
          "type": "uint64"
        },
        {
          "internalType": "bytes",
          "name": "_payload",
          "type": "bytes"
        }
      ],
      "name": "nonblockingLzReceive",
      "outputs": [],
      "stateMutability": "nonpayable",
      "type": "function"
    },
    {
      "inputs": [],
      "name": "owner",
      "outputs": [
        {
          "internalType": "address",
          "name": "",
          "type": "address"
        }
      ],
      "stateMutability": "view",
      "type": "function"
    },
    {
      "inputs": [],
      "name": "renounceOwnership",
      "outputs": [],
      "stateMutability": "nonpayable",
      "type": "function"
    },
    {
      "inputs": [
        {
          "internalType": "uint16",
          "name": "_srcChainId",
          "type": "uint16"
        },
        {
          "internalType": "bytes",
          "name": "_srcAddress",
          "type": "bytes"
        },
        {
          "internalType": "uint64",
          "name": "_nonce",
          "type": "uint64"
        },
        {
          "internalType": "bytes",
          "name": "_payload",
          "type": "bytes"
        }
      ],
      "name": "retryMessage",
      "outputs": [],
      "stateMutability": "payable",
      "type": "function"
    },
    {
      "inputs": [
        {
          "internalType": "uint16",
          "name": "_version",
          "type": "uint16"
        },
        {
          "internalType": "uint16",
          "name": "_chainId",
          "type": "uint16"
        },
        {
          "internalType": "uint256",
          "name": "_configType",
          "type": "uint256"
        },
        {
          "internalType": "bytes",
          "name": "_config",
          "type": "bytes"
        }
      ],
      "name": "setConfig",
      "outputs": [],
      "stateMutability": "nonpayable",
      "type": "function"
    },
    {
      "inputs": [
        {
          "internalType": "uint256",
          "name": "_maxTransferAmountPerDay",
          "type": "uint256"
        }
      ],
      "name": "setMaxTransferAmountPerDay",
      "outputs": [],
      "stateMutability": "nonpayable",
      "type": "function"
    },
    {
      "inputs": [
        {
          "internalType": "uint16",
          "name": "_dstChainId",
          "type": "uint16"
        },
        {
          "internalType": "uint256",
          "name": "_type",
          "type": "uint256"
        },
        {
          "internalType": "uint256",
          "name": "_dstGasAmount",
          "type": "uint256"
        }
      ],
      "name": "setMinDstGasLookup",
      "outputs": [],
      "stateMutability": "nonpayable",
      "type": "function"
    },
    {
      "inputs": [
        {
          "internalType": "uint16",
          "name": "_version",
          "type": "uint16"
        }
      ],
      "name": "setReceiveVersion",
      "outputs": [],
      "stateMutability": "nonpayable",
      "type": "function"
    },
    {
      "inputs": [
        {
          "internalType": "uint16",
          "name": "_version",
          "type": "uint16"
        }
      ],
      "name": "setSendVersion",
      "outputs": [],
      "stateMutability": "nonpayable",
      "type": "function"
    },
    {
      "inputs": [
        {
          "internalType": "uint16",
          "name": "_srcChainId",
          "type": "uint16"
        },
        {
          "internalType": "bytes",
          "name": "_srcAddress",
          "type": "bytes"
        }
      ],
      "name": "setTrustedRemote",
      "outputs": [],
      "stateMutability": "nonpayable",
      "type": "function"
    },
    {
      "inputs": [
        {
          "internalType": "bool",
          "name": "_useCustomAdapterParams",
          "type": "bool"
        },
        {
          "internalType": "uint256",
          "name": "_dstGasAmount",
          "type": "uint256"
        }
      ],
      "name": "setUseCustomAdapterParams",
      "outputs": [],
      "stateMutability": "nonpayable",
      "type": "function"
    },
    {
      "inputs": [
        {
          "internalType": "address",
          "name": "newOwner",
          "type": "address"
        }
      ],
      "name": "transferOwnership",
      "outputs": [],
      "stateMutability": "nonpayable",
      "type": "function"
    },
    {
      "inputs": [],
      "name": "transferTimestampCheckPoint",
      "outputs": [
        {
          "internalType": "uint256",
          "name": "",
          "type": "uint256"
        }
      ],
      "stateMutability": "view",
      "type": "function"
    },
    {
      "inputs": [],
      "name": "transferredAmount",
      "outputs": [
        {
          "internalType": "uint256",
          "name": "",
          "type": "uint256"
        }
      ],
      "stateMutability": "view",
      "type": "function"
    },
    {
      "inputs": [
        {
          "internalType": "uint16",
          "name": "",
          "type": "uint16"
        }
      ],
      "name": "trustedRemoteLookup",
      "outputs": [
        {
          "internalType": "bytes",
          "name": "",
          "type": "bytes"
        }
      ],
      "stateMutability": "view",
      "type": "function"
    },
    {
      "inputs": [],
      "name": "useCustomAdapterParams",
      "outputs": [
        {
          "internalType": "bool",
          "name": "",
          "type": "bool"
        }
      ],
      "stateMutability": "view",
      "type": "function"
    },
    {
      "inputs": [
        {
          "internalType": "address",
          "name": "_l2Token",
          "type": "address"
        },
        {
          "internalType": "uint256",
          "name": "_amount",
          "type": "uint256"
        },
        {
          "internalType": "address",
          "name": "_zroPaymentAddress",
          "type": "address"
        },
        {
          "internalType": "bytes",
          "name": "_adapterParams",
          "type": "bytes"
        },
        {
          "internalType": "bytes",
          "name": "_data",
          "type": "bytes"
        }
      ],
      "name": "withdraw",
      "outputs": [],
      "stateMutability": "payable",
      "type": "function"
    },
    {
      "inputs": [
        {
          "internalType": "address",
          "name": "_l2Token",
          "type": "address"
        },
        {
          "internalType": "address",
          "name": "_to",
          "type": "address"
        },
        {
          "internalType": "uint256",
          "name": "_amount",
          "type": "uint256"
        },
        {
          "internalType": "address",
          "name": "_zroPaymentAddress",
          "type": "address"
        },
        {
          "internalType": "bytes",
          "name": "_adapterParams",
          "type": "bytes"
        },
        {
          "internalType": "bytes",
          "name": "_data",
          "type": "bytes"
        }
      ],
      "name": "withdrawTo",
      "outputs": [],
      "stateMutability": "payable",
      "type": "function"
    }
  ],
  "bytecode": "0x608060405234801561001057600080fd5b50613302806100206000396000f3fe6080604052600436106101cc5760003560e01c80637533d788116100f7578063c8ed191011610095578063ed629c5c11610064578063ed629c5c14610578578063ede75eca14610598578063f2fde38b146105ab578063f5ecbdbc146105cb57600080fd5b8063c8ed19101461050f578063cbed8b9c14610525578063d1deba1f14610545578063eb8d72b71461055857600080fd5b8063901eec16116100d1578063901eec16146104975780639b57db5f146104ad578063af3fb21c146104cd578063b353aaa7146104e257600080fd5b80637533d788146103fe5780637e0ced091461042b5780638da5cb5b1461044b57600080fd5b806342d65a8d1161016f57806366ad5c8a1161013e57806366ad5c8a146103965780636fb2be6d146103b6578063708c0db9146103c9578063715018a6146103e957600080fd5b806342d65a8d146102fc578063447705151461031c578063512afd89146103315780635b8c41e61461034757600080fd5b806310ddb137116101ab57806310ddb1371461025e57806330c593f71461027e5780633496a68e146102ac5780633d8b38f6146102cc57600080fd5b80621d3567146101d157806307810867146101f357806307e0db171461023e575b600080fd5b3480156101dd57600080fd5b506101f16101ec3660046128f9565b6105eb565b005b3480156101ff57600080fd5b5061022b61020e36600461297e565b606760209081526000928352604080842090915290825290205481565b6040519081526020015b60405180910390f35b34801561024a57600080fd5b506101f16102593660046129a8565b6107ae565b34801561026a57600080fd5b506101f16102793660046129a8565b610899565b34801561028a57600080fd5b5060cd546102999061ffff1681565b60405161ffff9091168152602001610235565b3480156102b857600080fd5b506101f16102c73660046129c3565b61095a565b3480156102d857600080fd5b506102ec6102e7366004612a25565b6109c6565b6040519015158152602001610235565b34801561030857600080fd5b506101f1610317366004612a25565b610a92565b34801561032857600080fd5b5061022b600081565b34801561033d57600080fd5b5061022b60ce5481565b34801561035357600080fd5b5061022b610362366004612a78565b609a602090815260009384526040808520845180860184018051928152908401958401959095209452929052825290205481565b3480156103a257600080fd5b506101f16103b13660046128f9565b610b8a565b6101f16103c4366004612af8565b610c11565b3480156103d557600080fd5b506101f16103e4366004612b91565b610c29565b3480156103f557600080fd5b506101f1610e0b565b34801561040a57600080fd5b5061041e6104193660046129a8565b610e7e565b6040516102359190612c32565b34801561043757600080fd5b506101f1610446366004612c53565b610f18565b34801561045757600080fd5b5060335473ffffffffffffffffffffffffffffffffffffffff165b60405173ffffffffffffffffffffffffffffffffffffffff9091168152602001610235565b3480156104a357600080fd5b5061022b60d05481565b3480156104b957600080fd5b506101f16104c8366004612c71565b610fcc565b3480156104d957600080fd5b5061022b600181565b3480156104ee57600080fd5b506065546104729073ffffffffffffffffffffffffffffffffffffffff1681565b34801561051b57600080fd5b5061022b60cf5481565b34801561053157600080fd5b506101f1610540366004612ca4565b6110a4565b6101f16105533660046128f9565b6111a2565b34801561056457600080fd5b506101f1610573366004612d13565b61132c565b34801561058457600080fd5b5060cd546102ec9062010000900460ff1681565b6101f16105a6366004612d61565b6113f5565b3480156105b757600080fd5b506101f16105c6366004612e0d565b611405565b3480156105d757600080fd5b5061041e6105e6366004612e31565b611501565b60655473ffffffffffffffffffffffffffffffffffffffff163373ffffffffffffffffffffffffffffffffffffffff161461066d5760405162461bcd60e51b815260206004820152601e60248201527f4c7a4170703a20696e76616c696420656e64706f696e742063616c6c6572000060448201526064015b60405180910390fd5b61ffff84166000908152606660205260408120805461068b90612e7e565b80601f01602080910402602001604051908101604052809291908181526020018280546106b790612e7e565b80156107045780601f106106d957610100808354040283529160200191610704565b820191906000526020600020905b8154815290600101906020018083116106e757829003601f168201915b5050505050905080518451148015610729575080805190602001208480519060200120145b61079b5760405162461bcd60e51b815260206004820152602660248201527f4c7a4170703a20696e76616c696420736f757263652073656e64696e6720636f60448201527f6e747261637400000000000000000000000000000000000000000000000000006064820152608401610664565b6107a7858585856115c9565b5050505050565b60335473ffffffffffffffffffffffffffffffffffffffff1633146108155760405162461bcd60e51b815260206004820181905260248201527f4f776e61626c653a2063616c6c6572206973206e6f7420746865206f776e65726044820152606401610664565b6065546040517f07e0db1700000000000000000000000000000000000000000000000000000000815261ffff8316600482015273ffffffffffffffffffffffffffffffffffffffff909116906307e0db17906024015b600060405180830381600087803b15801561088557600080fd5b505af11580156107a7573d6000803e3d6000fd5b60335473ffffffffffffffffffffffffffffffffffffffff1633146109005760405162461bcd60e51b815260206004820181905260248201527f4f776e61626c653a2063616c6c6572206973206e6f7420746865206f776e65726044820152606401610664565b6065546040517f10ddb13700000000000000000000000000000000000000000000000000000000815261ffff8316600482015273ffffffffffffffffffffffffffffffffffffffff909116906310ddb1379060240161086b565b60335473ffffffffffffffffffffffffffffffffffffffff1633146109c15760405162461bcd60e51b815260206004820181905260248201527f4f776e61626c653a2063616c6c6572206973206e6f7420746865206f776e65726044820152606401610664565b60ce55565b61ffff8316600090815260666020526040812080548291906109e790612e7e565b80601f0160208091040260200160405190810160405280929190818152602001828054610a1390612e7e565b8015610a605780601f10610a3557610100808354040283529160200191610a60565b820191906000526020600020905b815481529060010190602001808311610a4357829003601f168201915b505050505090508383604051610a77929190612ed2565b60405180910390208180519060200120149150509392505050565b60335473ffffffffffffffffffffffffffffffffffffffff163314610af95760405162461bcd60e51b815260206004820181905260248201527f4f776e61626c653a2063616c6c6572206973206e6f7420746865206f776e65726044820152606401610664565b6065546040517f42d65a8d00000000000000000000000000000000000000000000000000000000815273ffffffffffffffffffffffffffffffffffffffff909116906342d65a8d90610b5390869086908690600401612f0d565b600060405180830381600087803b158015610b6d57600080fd5b505af1158015610b81573d6000803e3d6000fd5b50505050505050565b333014610bff5760405162461bcd60e51b815260206004820152602660248201527f4e6f6e626c6f636b696e674c7a4170703a2063616c6c6572206d75737420626560448201527f204c7a41707000000000000000000000000000000000000000000000000000006064820152608401610664565b610c0b848484846116d4565b50505050565b610c21863333888888888861198c565b505050505050565b600054610100900460ff1680610c42575060005460ff16155b610cb45760405162461bcd60e51b815260206004820152602e60248201527f496e697469616c697a61626c653a20636f6e747261637420697320616c72656160448201527f647920696e697469616c697a65640000000000000000000000000000000000006064820152608401610664565b600054610100900460ff16158015610cd6576000805461ffff19166101011790555b73ffffffffffffffffffffffffffffffffffffffff8416610d5f5760405162461bcd60e51b815260206004820152602260248201527f6c7a20656e64706f696e742063616e6e6f74206265207a65726f20616464726560448201527f73730000000000000000000000000000000000000000000000000000000000006064820152608401610664565b610d6884611d4f565b60cd805461ffff191661ffff85161790556040517fffffffffffffffffffffffffffffffffffffffff000000000000000000000000606084901b166020820152610dc590849060340160405160208183030381529060405261132c565b4260d0556969e10de76676d080000060ce558015610c0b57600080547fffffffffffffffffffffffffffffffffffffffffffffffffffffffffffff00ff16905550505050565b60335473ffffffffffffffffffffffffffffffffffffffff163314610e725760405162461bcd60e51b815260206004820181905260248201527f4f776e61626c653a2063616c6c6572206973206e6f7420746865206f776e65726044820152606401610664565b610e7c6000611e37565b565b60666020526000908152604090208054610e9790612e7e565b80601f0160208091040260200160405190810160405280929190818152602001828054610ec390612e7e565b8015610f105780601f10610ee557610100808354040283529160200191610f10565b820191906000526020600020905b815481529060010190602001808311610ef357829003601f168201915b505050505081565b60335473ffffffffffffffffffffffffffffffffffffffff163314610f7f5760405162461bcd60e51b815260206004820181905260248201527f4f776e61626c653a2063616c6c6572206973206e6f7420746865206f776e65726044820152606401610664565b60cd805483151562010000027fffffffffffffffffffffffffffffffffffffffffffffffffffffffffff00ffff82168117909255610fc89161ffff908116911617600183610fcc565b5050565b60335473ffffffffffffffffffffffffffffffffffffffff1633146110335760405162461bcd60e51b815260206004820181905260248201527f4f776e61626c653a2063616c6c6572206973206e6f7420746865206f776e65726044820152606401610664565b600081116110835760405162461bcd60e51b815260206004820152601c60248201527f4c7a4170703a20696e76616c6964205f647374476173416d6f756e74000000006044820152606401610664565b61ffff90921660009081526067602090815260408083209383529290522055565b60335473ffffffffffffffffffffffffffffffffffffffff16331461110b5760405162461bcd60e51b815260206004820181905260248201527f4f776e61626c653a2063616c6c6572206973206e6f7420746865206f776e65726044820152606401610664565b6065546040517fcbed8b9c00000000000000000000000000000000000000000000000000000000815273ffffffffffffffffffffffffffffffffffffffff9091169063cbed8b9c906111699088908890889088908890600401612f2b565b600060405180830381600087803b15801561118357600080fd5b505af1158015611197573d6000803e3d6000fd5b505050505050505050565b61ffff84166000908152609a602052604080822090516111c3908690612f64565b908152604080516020928190038301902067ffffffffffffffff86166000908152925290205490508061125e5760405162461bcd60e51b815260206004820152602360248201527f4e6f6e626c6f636b696e674c7a4170703a206e6f2073746f726564206d65737360448201527f61676500000000000000000000000000000000000000000000000000000000006064820152608401610664565b8151602083012081146112d95760405162461bcd60e51b815260206004820152602160248201527f4e6f6e626c6f636b696e674c7a4170703a20696e76616c6964207061796c6f6160448201527f64000000000000000000000000000000000000000000000000000000000000006064820152608401610664565b61ffff85166000908152609a602052604080822090516112fa908790612f64565b908152604080516020928190038301902067ffffffffffffffff8716600090815292529020556107a7858585856116d4565b60335473ffffffffffffffffffffffffffffffffffffffff1633146113935760405162461bcd60e51b815260206004820181905260248201527f4f776e61626c653a2063616c6c6572206973206e6f7420746865206f776e65726044820152606401610664565b61ffff8216600090815260666020908152604090912082516113b792840190612753565b507ffa41487ad5d6728f0b19276fa1eddc16558578f5109fc39d2dc33c3230470dab82826040516113e9929190612f80565b60405180910390a15050565b610b81873388888888888861198c565b60335473ffffffffffffffffffffffffffffffffffffffff16331461146c5760405162461bcd60e51b815260206004820181905260248201527f4f776e61626c653a2063616c6c6572206973206e6f7420746865206f776e65726044820152606401610664565b73ffffffffffffffffffffffffffffffffffffffff81166114f55760405162461bcd60e51b815260206004820152602660248201527f4f776e61626c653a206e6577206f776e657220697320746865207a65726f206160448201527f64647265737300000000000000000000000000000000000000000000000000006064820152608401610664565b6114fe81611e37565b50565b6065546040517ff5ecbdbc00000000000000000000000000000000000000000000000000000000815261ffff8087166004830152851660248201523060448201526064810183905260609173ffffffffffffffffffffffffffffffffffffffff169063f5ecbdbc9060840160006040518083038186803b15801561158457600080fd5b505afa158015611598573d6000803e3d6000fd5b505050506040513d6000823e601f3d908101601f191682016040526115c09190810190612fea565b95945050505050565b6040517f66ad5c8a00000000000000000000000000000000000000000000000000000000815230906366ad5c8a9061160b90879087908790879060040161301f565b600060405180830381600087803b15801561162557600080fd5b505af1925050508015611636575060015b610c0b578080519060200120609a60008661ffff1661ffff1681526020019081526020016000208460405161166b9190612f64565b90815260408051918290036020908101832067ffffffffffffffff87166000908152915220919091557fe6f254030bcb01ffd20558175c13fcaed6d1520be7becee4c961b65f79243b0d906116c790869086908690869061301f565b60405180910390a1610c0b565b60cd5461ffff85811691161461172c5760405162461bcd60e51b815260206004820152601660248201527f496e76616c696420736f7572636520636861696e4964000000000000000000006044820152606401610664565b60008060008060008086806020019051810190611749919061305e565b95509550955095509550955061176685631d1d8b6360e01b611eae565b801561181c57508473ffffffffffffffffffffffffffffffffffffffff1663c01e1bd66040518163ffffffff1660e01b8152600401602060405180830381600087803b1580156117b557600080fd5b505af11580156117c9573d6000803e3d6000fd5b505050506040513d601f19601f820116820180604052508101906117ed91906130f2565b73ffffffffffffffffffffffffffffffffffffffff168673ffffffffffffffffffffffffffffffffffffffff16145b1561192e576040517f40c10f1900000000000000000000000000000000000000000000000000000000815273ffffffffffffffffffffffffffffffffffffffff8481166004830152602482018490528616906340c10f1990604401600060405180830381600087803b15801561189157600080fd5b505af11580156118a5573d6000803e3d6000fd5b505050508373ffffffffffffffffffffffffffffffffffffffff168573ffffffffffffffffffffffffffffffffffffffff168773ffffffffffffffffffffffffffffffffffffffff167fb0444523268717a02698be47d0803aa7468c00acbed2f8bd93a0459cde61dd898686866040516119219392919061310f565b60405180910390a4611980565b600086868587868660405160200161194b96959493929190613144565b60408051601f1981840301815260cd5460208401909252600080845290935061197e9261ffff9092169184913391611ed3565b505b50505050505050505050565b73ffffffffffffffffffffffffffffffffffffffff86166119ef5760405162461bcd60e51b815260206004820152601a60248201527f5f746f2063616e6e6f74206265207a65726f20616464726573730000000000006044820152606401610664565b60d0546119ff906201518061319f565b421015611a76578460cf6000828254611a18919061319f565b909155505060ce5460cf541115611a715760405162461bcd60e51b815260206004820152601b60248201527f6d617820616d6f756e74207065722064617920657863656564656400000000006044820152606401610664565b611ad2565b60cf85905560ce54851115611acd5760405162461bcd60e51b815260206004820152601b60248201527f6d617820616d6f756e74207065722064617920657863656564656400000000006044820152606401610664565b4260d0555b6040517f9dc29fac0000000000000000000000000000000000000000000000000000000081523360048201526024810186905273ffffffffffffffffffffffffffffffffffffffff891690639dc29fac90604401600060405180830381600087803b158015611b4057600080fd5b505af1158015611b54573d6000803e3d6000fd5b5050505060008873ffffffffffffffffffffffffffffffffffffffff1663c01e1bd66040518163ffffffff1660e01b8152600401602060405180830381600087803b158015611ba257600080fd5b505af1158015611bb6573d6000803e3d6000fd5b505050506040513d601f19601f82011682018060405250810190611bda91906130f2565b90506000818a8a8a8a8888604051602001611bfb97969594939291906131de565b60408051808303601f1901815291905260cd5490915062010000900460ff1615611c395760cd54611c349061ffff166001876000612078565b611cad565b845115611cad5760405162461bcd60e51b8152602060048201526024808201527f4c7a4170703a205f61646170746572506172616d73206d75737420626520656d60448201527f7074792e000000000000000000000000000000000000000000000000000000006064820152608401610664565b60cd54611cc19061ffff1682338989611ed3565b3373ffffffffffffffffffffffffffffffffffffffff168a73ffffffffffffffffffffffffffffffffffffffff168373ffffffffffffffffffffffffffffffffffffffff167f73d170910aba9e6d50b102db522b1dbcd796216f5128b445aa2135272886497e8b8b8989604051611d3b949392919061323b565b60405180910390a450505050505050505050565b600054610100900460ff1680611d68575060005460ff16155b611dda5760405162461bcd60e51b815260206004820152602e60248201527f496e697469616c697a61626c653a20636f6e747261637420697320616c72656160448201527f647920696e697469616c697a65640000000000000000000000000000000000006064820152608401610664565b600054610100900460ff16158015611dfc576000805461ffff19166101011790555b611e0582612155565b8015610fc857600080547fffffffffffffffffffffffffffffffffffffffffffffffffffffffffffff00ff1690555050565b6033805473ffffffffffffffffffffffffffffffffffffffff8381167fffffffffffffffffffffffff0000000000000000000000000000000000000000831681179093556040519116919082907f8be0079c531659141344cd1fd0a4f28419497f9722a3daafe3b4186f6b6457e090600090a35050565b6000611eb983612213565b8015611eca5750611eca8383612277565b90505b92915050565b61ffff851660009081526066602052604081208054611ef190612e7e565b80601f0160208091040260200160405190810160405280929190818152602001828054611f1d90612e7e565b8015611f6a5780601f10611f3f57610100808354040283529160200191611f6a565b820191906000526020600020905b815481529060010190602001808311611f4d57829003601f168201915b50505050509050805160001415611fe95760405162461bcd60e51b815260206004820152603060248201527f4c7a4170703a2064657374696e6174696f6e20636861696e206973206e6f742060448201527f61207472757374656420736f75726365000000000000000000000000000000006064820152608401610664565b6065546040517fc580310000000000000000000000000000000000000000000000000000000000815273ffffffffffffffffffffffffffffffffffffffff9091169063c580310090349061204b908a9086908b908b908b908b90600401613271565b6000604051808303818588803b15801561206457600080fd5b505af115801561197e573d6000803e3d6000fd5b6000612085836022015190565b61ffff86166000908152606760209081526040808320888452909152812054919250906120b390849061319f565b9050600081116121055760405162461bcd60e51b815260206004820152601a60248201527f4c7a4170703a206d696e4761734c696d6974206e6f74207365740000000000006044820152606401610664565b80821015610c215760405162461bcd60e51b815260206004820152601b60248201527f4c7a4170703a20676173206c696d697420697320746f6f206c6f7700000000006044820152606401610664565b600054610100900460ff168061216e575060005460ff16155b6121e05760405162461bcd60e51b815260206004820152602e60248201527f496e697469616c697a61626c653a20636f6e747261637420697320616c72656160448201527f647920696e697469616c697a65640000000000000000000000000000000000006064820152608401610664565b600054610100900460ff16158015612202576000805461ffff19166101011790555b61220a6123b3565b611e05826124a1565b600061223f827f01ffc9a700000000000000000000000000000000000000000000000000000000612277565b8015611ecd5750612270827fffffffff00000000000000000000000000000000000000000000000000000000612277565b1592915050565b604080517fffffffff00000000000000000000000000000000000000000000000000000000831660248083019190915282518083039091018152604490910182526020810180517bffffffffffffffffffffffffffffffffffffffffffffffffffffffff167f01ffc9a7000000000000000000000000000000000000000000000000000000001790529051600091908290819073ffffffffffffffffffffffffffffffffffffffff87169061753090612331908690612f64565b6000604051808303818686fa925050503d806000811461236d576040519150601f19603f3d011682016040523d82523d6000602084013e612372565b606091505b509150915060208151101561238d5760009350505050611ecd565b8180156123a95750808060200190518101906123a991906132d8565b9695505050505050565b600054610100900460ff16806123cc575060005460ff16155b61243e5760405162461bcd60e51b815260206004820152602e60248201527f496e697469616c697a61626c653a20636f6e747261637420697320616c72656160448201527f647920696e697469616c697a65640000000000000000000000000000000000006064820152608401610664565b600054610100900460ff16158015612460576000805461ffff19166101011790555b6124686125c0565b61247061269d565b80156114fe57600080547fffffffffffffffffffffffffffffffffffffffffffffffffffffffffffff00ff16905550565b600054610100900460ff16806124ba575060005460ff16155b61252c5760405162461bcd60e51b815260206004820152602e60248201527f496e697469616c697a61626c653a20636f6e747261637420697320616c72656160448201527f647920696e697469616c697a65640000000000000000000000000000000000006064820152608401610664565b600054610100900460ff1615801561254e576000805461ffff19166101011790555b606580547fffffffffffffffffffffffff00000000000000000000000000000000000000001673ffffffffffffffffffffffffffffffffffffffff84161790558015610fc857600080547fffffffffffffffffffffffffffffffffffffffffffffffffffffffffffff00ff1690555050565b600054610100900460ff16806125d9575060005460ff16155b61264b5760405162461bcd60e51b815260206004820152602e60248201527f496e697469616c697a61626c653a20636f6e747261637420697320616c72656160448201527f647920696e697469616c697a65640000000000000000000000000000000000006064820152608401610664565b600054610100900460ff16158015612470576000805461ffff191661010117905580156114fe57600080547fffffffffffffffffffffffffffffffffffffffffffffffffffffffffffff00ff16905550565b600054610100900460ff16806126b6575060005460ff16155b6127285760405162461bcd60e51b815260206004820152602e60248201527f496e697469616c697a61626c653a20636f6e747261637420697320616c72656160448201527f647920696e697469616c697a65640000000000000000000000000000000000006064820152608401610664565b600054610100900460ff1615801561274a576000805461ffff19166101011790555b61247033611e37565b82805461275f90612e7e565b90600052602060002090601f01602090048101928261278157600085556127c7565b82601f1061279a57805160ff19168380011785556127c7565b828001600101855582156127c7579182015b828111156127c75782518255916020019190600101906127ac565b506127d39291506127d7565b5090565b5b808211156127d357600081556001016127d8565b803561ffff811681146127fe57600080fd5b919050565b7f4e487b7100000000000000000000000000000000000000000000000000000000600052604160045260246000fd5b604051601f8201601f1916810167ffffffffffffffff8111828210171561285b5761285b612803565b604052919050565b600067ffffffffffffffff82111561287d5761287d612803565b50601f01601f191660200190565b600082601f83011261289c57600080fd5b81356128af6128aa82612863565b612832565b8181528460208386010111156128c457600080fd5b816020850160208301376000918101602001919091529392505050565b803567ffffffffffffffff811681146127fe57600080fd5b6000806000806080858703121561290f57600080fd5b612918856127ec565b9350602085013567ffffffffffffffff8082111561293557600080fd5b6129418883890161288b565b945061294f604088016128e1565b9350606087013591508082111561296557600080fd5b506129728782880161288b565b91505092959194509250565b6000806040838503121561299157600080fd5b61299a836127ec565b946020939093013593505050565b6000602082840312156129ba57600080fd5b611eca826127ec565b6000602082840312156129d557600080fd5b5035919050565b60008083601f8401126129ee57600080fd5b50813567ffffffffffffffff811115612a0657600080fd5b602083019150836020828501011115612a1e57600080fd5b9250929050565b600080600060408486031215612a3a57600080fd5b612a43846127ec565b9250602084013567ffffffffffffffff811115612a5f57600080fd5b612a6b868287016129dc565b9497909650939450505050565b600080600060608486031215612a8d57600080fd5b612a96846127ec565b9250602084013567ffffffffffffffff811115612ab257600080fd5b612abe8682870161288b565b925050612acd604085016128e1565b90509250925092565b73ffffffffffffffffffffffffffffffffffffffff811681146114fe57600080fd5b60008060008060008060a08789031215612b1157600080fd5b8635612b1c81612ad6565b9550602087013594506040870135612b3381612ad6565b9350606087013567ffffffffffffffff80821115612b5057600080fd5b612b5c8a838b0161288b565b94506080890135915080821115612b7257600080fd5b50612b7f89828a016129dc565b979a9699509497509295939492505050565b600080600060608486031215612ba657600080fd5b8335612bb181612ad6565b9250612bbf602085016127ec565b91506040840135612bcf81612ad6565b809150509250925092565b60005b83811015612bf5578181015183820152602001612bdd565b83811115610c0b5750506000910152565b60008151808452612c1e816020860160208601612bda565b601f01601f19169290920160200192915050565b602081526000611eca6020830184612c06565b80151581146114fe57600080fd5b60008060408385031215612c6657600080fd5b823561299a81612c45565b600080600060608486031215612c8657600080fd5b612c8f846127ec565b95602085013595506040909401359392505050565b600080600080600060808688031215612cbc57600080fd5b612cc5866127ec565b9450612cd3602087016127ec565b935060408601359250606086013567ffffffffffffffff811115612cf657600080fd5b612d02888289016129dc565b969995985093965092949392505050565b60008060408385031215612d2657600080fd5b612d2f836127ec565b9150602083013567ffffffffffffffff811115612d4b57600080fd5b612d578582860161288b565b9150509250929050565b600080600080600080600060c0888a031215612d7c57600080fd5b8735612d8781612ad6565b96506020880135612d9781612ad6565b9550604088013594506060880135612dae81612ad6565b9350608088013567ffffffffffffffff80821115612dcb57600080fd5b612dd78b838c0161288b565b945060a08a0135915080821115612ded57600080fd5b50612dfa8a828b016129dc565b989b979a50959850939692959293505050565b600060208284031215612e1f57600080fd5b8135612e2a81612ad6565b9392505050565b60008060008060808587031215612e4757600080fd5b612e50856127ec565b9350612e5e602086016127ec565b92506040850135612e6e81612ad6565b9396929550929360600135925050565b600181811c90821680612e9257607f821691505b60208210811415612ecc577f4e487b7100000000000000000000000000000000000000000000000000000000600052602260045260246000fd5b50919050565b8183823760009101908152919050565b818352818160208501375060006020828401015260006020601f19601f840116840101905092915050565b61ffff841681526040602082015260006115c0604083018486612ee2565b600061ffff808816835280871660208401525084604083015260806060830152612f59608083018486612ee2565b979650505050505050565b60008251612f76818460208701612bda565b9190910192915050565b61ffff83168152604060208201526000612f9d6040830184612c06565b949350505050565b600082601f830112612fb657600080fd5b8151612fc46128aa82612863565b818152846020838601011115612fd957600080fd5b612f9d826020830160208701612bda565b600060208284031215612ffc57600080fd5b815167ffffffffffffffff81111561301357600080fd5b612f9d84828501612fa5565b61ffff8516815260806020820152600061303c6080830186612c06565b67ffffffffffffffff851660408401528281036060840152612f598185612c06565b60008060008060008060c0878903121561307757600080fd5b865161308281612ad6565b602088015190965061309381612ad6565b60408801519095506130a481612ad6565b60608801519094506130b581612ad6565b608088015160a0890151919450925067ffffffffffffffff8111156130d957600080fd5b6130e589828a01612fa5565b9150509295509295509295565b60006020828403121561310457600080fd5b8151612e2a81612ad6565b73ffffffffffffffffffffffffffffffffffffffff841681528260208201526060604082015260006115c06060830184612c06565b600073ffffffffffffffffffffffffffffffffffffffff80891683528088166020840152808716604084015280861660608401525083608083015260c060a083015261319360c0830184612c06565b98975050505050505050565b600082198211156131d9577f4e487b7100000000000000000000000000000000000000000000000000000000600052601160045260246000fd5b500190565b600073ffffffffffffffffffffffffffffffffffffffff808a1683528089166020840152808816604084015280871660608401525084608083015260c060a083015261322e60c083018486612ee2565b9998505050505050505050565b73ffffffffffffffffffffffffffffffffffffffff851681528360208201526060604082015260006123a9606083018486612ee2565b61ffff8716815260c06020820152600061328e60c0830188612c06565b82810360408401526132a08188612c06565b73ffffffffffffffffffffffffffffffffffffffff87811660608601528616608085015283810360a0850152905061322e8185612c06565b6000602082840312156132ea57600080fd5b8151612e2a81612c4556fea164736f6c6343000809000a",
  "linkReferences": {},
  "deployedLinkReferences": {}
}