{
  "_format": "hh-sol-artifact-1",
  "contractName": "AltL1Bridge",
  "sourceName": "contracts/lzTokenBridge/AltL1Bridge.sol",
  "abi": [
    {
      "anonymous": false,
      "inputs": [
        {
          "indexed": true,
          "internalType": "address",
          "name": "_l1Token",
          "type": "address"
        },
        {
          "indexed": true,
          "internalType": "address",
          "name": "_l2Token",
          "type": "address"
        },
        {
          "indexed": true,
          "internalType": "address",
          "name": "_from",
          "type": "address"
        },
        {
          "indexed": false,
          "internalType": "address",
          "name": "_to",
          "type": "address"
        },
        {
          "indexed": false,
          "internalType": "uint256",
          "name": "_amount",
          "type": "uint256"
        },
        {
          "indexed": false,
          "internalType": "bytes",
          "name": "_data",
          "type": "bytes"
        }
      ],
      "name": "DepositFinalized",
      "type": "event"
    },
    {
      "anonymous": false,
      "inputs": [
        {
          "indexed": false,
          "internalType": "uint16",
          "name": "_srcChainId",
          "type": "uint16"
        },
        {
          "indexed": false,
          "internalType": "bytes",
          "name": "_srcAddress",
          "type": "bytes"
        },
        {
          "indexed": false,
          "internalType": "uint64",
          "name": "_nonce",
          "type": "uint64"
        },
        {
          "indexed": false,
          "internalType": "bytes",
          "name": "_payload",
          "type": "bytes"
        }
      ],
      "name": "MessageFailed",
      "type": "event"
    },
    {
      "anonymous": false,
      "inputs": [
        {
          "indexed": true,
          "internalType": "address",
          "name": "previousOwner",
          "type": "address"
        },
        {
          "indexed": true,
          "internalType": "address",
          "name": "newOwner",
          "type": "address"
        }
      ],
      "name": "OwnershipTransferred",
      "type": "event"
    },
    {
      "anonymous": false,
      "inputs": [
        {
          "indexed": false,
          "internalType": "uint16",
          "name": "_srcChainId",
          "type": "uint16"
        },
        {
          "indexed": false,
          "internalType": "bytes",
          "name": "_srcAddress",
          "type": "bytes"
        }
      ],
      "name": "SetTrustedRemote",
      "type": "event"
    },
    {
      "anonymous": false,
      "inputs": [
        {
          "indexed": true,
          "internalType": "address",
          "name": "_l1Token",
          "type": "address"
        },
        {
          "indexed": true,
          "internalType": "address",
          "name": "_l2Token",
          "type": "address"
        },
        {
          "indexed": true,
          "internalType": "address",
          "name": "_from",
          "type": "address"
        },
        {
          "indexed": false,
          "internalType": "address",
          "name": "_to",
          "type": "address"
        },
        {
          "indexed": false,
          "internalType": "uint256",
          "name": "_amount",
          "type": "uint256"
        },
        {
          "indexed": false,
          "internalType": "bytes",
          "name": "_data",
          "type": "bytes"
        }
      ],
      "name": "WithdrawalInitiated",
      "type": "event"
    },
    {
      "inputs": [],
      "name": "FUNCTION_TYPE_SEND",
      "outputs": [
        {
          "internalType": "uint256",
          "name": "",
          "type": "uint256"
        }
      ],
      "stateMutability": "view",
      "type": "function"
    },
    {
      "inputs": [],
      "name": "NO_EXTRA_GAS",
      "outputs": [
        {
          "internalType": "uint256",
          "name": "",
          "type": "uint256"
        }
      ],
      "stateMutability": "view",
      "type": "function"
    },
    {
      "inputs": [],
      "name": "dstChainId",
      "outputs": [
        {
          "internalType": "uint16",
          "name": "",
          "type": "uint16"
        }
      ],
      "stateMutability": "view",
      "type": "function"
    },
    {
      "inputs": [
        {
          "internalType": "uint16",
          "name": "",
          "type": "uint16"
        },
        {
          "internalType": "bytes",
          "name": "",
          "type": "bytes"
        },
        {
          "internalType": "uint64",
          "name": "",
          "type": "uint64"
        }
      ],
      "name": "failedMessages",
      "outputs": [
        {
          "internalType": "bytes32",
          "name": "",
          "type": "bytes32"
        }
      ],
      "stateMutability": "view",
      "type": "function"
    },
    {
      "inputs": [
        {
          "internalType": "uint16",
          "name": "_srcChainId",
          "type": "uint16"
        },
        {
          "internalType": "bytes",
          "name": "_srcAddress",
          "type": "bytes"
        }
      ],
      "name": "forceResumeReceive",
      "outputs": [],
      "stateMutability": "nonpayable",
      "type": "function"
    },
    {
      "inputs": [
        {
          "internalType": "uint16",
          "name": "_version",
          "type": "uint16"
        },
        {
          "internalType": "uint16",
          "name": "_chainId",
          "type": "uint16"
        },
        {
          "internalType": "address",
          "name": "",
          "type": "address"
        },
        {
          "internalType": "uint256",
          "name": "_configType",
          "type": "uint256"
        }
      ],
      "name": "getConfig",
      "outputs": [
        {
          "internalType": "bytes",
          "name": "",
          "type": "bytes"
        }
      ],
      "stateMutability": "view",
      "type": "function"
    },
    {
      "inputs": [
        {
          "internalType": "address",
          "name": "_lzEndpoint",
          "type": "address"
        },
        {
          "internalType": "uint16",
          "name": "_dstChainId",
          "type": "uint16"
        },
        {
          "internalType": "address",
          "name": "_ethBridgeAddress",
          "type": "address"
        }
      ],
      "name": "initialize",
      "outputs": [],
      "stateMutability": "nonpayable",
      "type": "function"
    },
    {
      "inputs": [
        {
          "internalType": "uint16",
          "name": "_srcChainId",
          "type": "uint16"
        },
        {
          "internalType": "bytes",
          "name": "_srcAddress",
          "type": "bytes"
        }
      ],
      "name": "isTrustedRemote",
      "outputs": [
        {
          "internalType": "bool",
          "name": "",
          "type": "bool"
        }
      ],
      "stateMutability": "view",
      "type": "function"
    },
    {
      "inputs": [],
      "name": "lzEndpoint",
      "outputs": [
        {
          "internalType": "contract ILayerZeroEndpoint",
          "name": "",
          "type": "address"
        }
      ],
      "stateMutability": "view",
      "type": "function"
    },
    {
      "inputs": [
        {
          "internalType": "uint16",
          "name": "_srcChainId",
          "type": "uint16"
        },
        {
          "internalType": "bytes",
          "name": "_srcAddress",
          "type": "bytes"
        },
        {
          "internalType": "uint64",
          "name": "_nonce",
          "type": "uint64"
        },
        {
          "internalType": "bytes",
          "name": "_payload",
          "type": "bytes"
        }
      ],
      "name": "lzReceive",
      "outputs": [],
      "stateMutability": "nonpayable",
      "type": "function"
    },
    {
      "inputs": [
        {
          "internalType": "uint16",
          "name": "",
          "type": "uint16"
        },
        {
          "internalType": "uint256",
          "name": "",
          "type": "uint256"
        }
      ],
      "name": "minDstGasLookup",
      "outputs": [
        {
          "internalType": "uint256",
          "name": "",
          "type": "uint256"
        }
      ],
      "stateMutability": "view",
      "type": "function"
    },
    {
      "inputs": [
        {
          "internalType": "uint16",
          "name": "_srcChainId",
          "type": "uint16"
        },
        {
          "internalType": "bytes",
          "name": "_srcAddress",
          "type": "bytes"
        },
        {
          "internalType": "uint64",
          "name": "_nonce",
          "type": "uint64"
        },
        {
          "internalType": "bytes",
          "name": "_payload",
          "type": "bytes"
        }
      ],
      "name": "nonblockingLzReceive",
      "outputs": [],
      "stateMutability": "nonpayable",
      "type": "function"
    },
    {
      "inputs": [],
      "name": "owner",
      "outputs": [
        {
          "internalType": "address",
          "name": "",
          "type": "address"
        }
      ],
      "stateMutability": "view",
      "type": "function"
    },
    {
      "inputs": [],
      "name": "renounceOwnership",
      "outputs": [],
      "stateMutability": "nonpayable",
      "type": "function"
    },
    {
      "inputs": [
        {
          "internalType": "uint16",
          "name": "_srcChainId",
          "type": "uint16"
        },
        {
          "internalType": "bytes",
          "name": "_srcAddress",
          "type": "bytes"
        },
        {
          "internalType": "uint64",
          "name": "_nonce",
          "type": "uint64"
        },
        {
          "internalType": "bytes",
          "name": "_payload",
          "type": "bytes"
        }
      ],
      "name": "retryMessage",
      "outputs": [],
      "stateMutability": "payable",
      "type": "function"
    },
    {
      "inputs": [
        {
          "internalType": "uint16",
          "name": "_version",
          "type": "uint16"
        },
        {
          "internalType": "uint16",
          "name": "_chainId",
          "type": "uint16"
        },
        {
          "internalType": "uint256",
          "name": "_configType",
          "type": "uint256"
        },
        {
          "internalType": "bytes",
          "name": "_config",
          "type": "bytes"
        }
      ],
      "name": "setConfig",
      "outputs": [],
      "stateMutability": "nonpayable",
      "type": "function"
    },
    {
      "inputs": [
        {
          "internalType": "uint16",
          "name": "_dstChainId",
          "type": "uint16"
        },
        {
          "internalType": "uint256",
          "name": "_type",
          "type": "uint256"
        },
        {
          "internalType": "uint256",
          "name": "_dstGasAmount",
          "type": "uint256"
        }
      ],
      "name": "setMinDstGasLookup",
      "outputs": [],
      "stateMutability": "nonpayable",
      "type": "function"
    },
    {
      "inputs": [
        {
          "internalType": "uint16",
          "name": "_version",
          "type": "uint16"
        }
      ],
      "name": "setReceiveVersion",
      "outputs": [],
      "stateMutability": "nonpayable",
      "type": "function"
    },
    {
      "inputs": [
        {
          "internalType": "uint16",
          "name": "_version",
          "type": "uint16"
        }
      ],
      "name": "setSendVersion",
      "outputs": [],
      "stateMutability": "nonpayable",
      "type": "function"
    },
    {
      "inputs": [
        {
          "internalType": "uint16",
          "name": "_srcChainId",
          "type": "uint16"
        },
        {
          "internalType": "bytes",
          "name": "_srcAddress",
          "type": "bytes"
        }
      ],
      "name": "setTrustedRemote",
      "outputs": [],
      "stateMutability": "nonpayable",
      "type": "function"
    },
    {
      "inputs": [
        {
          "internalType": "bool",
          "name": "_useCustomAdapterParams",
          "type": "bool"
        },
        {
          "internalType": "uint256",
          "name": "_dstGasAmount",
          "type": "uint256"
        }
      ],
      "name": "setUseCustomAdapterParams",
      "outputs": [],
      "stateMutability": "nonpayable",
      "type": "function"
    },
    {
      "inputs": [
        {
          "internalType": "address",
          "name": "newOwner",
          "type": "address"
        }
      ],
      "name": "transferOwnership",
      "outputs": [],
      "stateMutability": "nonpayable",
      "type": "function"
    },
    {
      "inputs": [
        {
          "internalType": "uint16",
          "name": "",
          "type": "uint16"
        }
      ],
      "name": "trustedRemoteLookup",
      "outputs": [
        {
          "internalType": "bytes",
          "name": "",
          "type": "bytes"
        }
      ],
      "stateMutability": "view",
      "type": "function"
    },
    {
      "inputs": [],
      "name": "useCustomAdapterParams",
      "outputs": [
        {
          "internalType": "bool",
          "name": "",
          "type": "bool"
        }
      ],
      "stateMutability": "view",
      "type": "function"
    },
    {
      "inputs": [
        {
          "internalType": "address",
          "name": "_l2Token",
          "type": "address"
        },
        {
          "internalType": "uint256",
          "name": "_amount",
          "type": "uint256"
        },
        {
          "internalType": "address",
          "name": "_zroPaymentAddress",
          "type": "address"
        },
        {
          "internalType": "bytes",
          "name": "_adapterParams",
          "type": "bytes"
        },
        {
          "internalType": "bytes",
          "name": "_data",
          "type": "bytes"
        }
      ],
      "name": "withdraw",
      "outputs": [],
      "stateMutability": "payable",
      "type": "function"
    },
    {
      "inputs": [
        {
          "internalType": "address",
          "name": "_l2Token",
          "type": "address"
        },
        {
          "internalType": "address",
          "name": "_to",
          "type": "address"
        },
        {
          "internalType": "uint256",
          "name": "_amount",
          "type": "uint256"
        },
        {
          "internalType": "address",
          "name": "_zroPaymentAddress",
          "type": "address"
        },
        {
          "internalType": "bytes",
          "name": "_adapterParams",
          "type": "bytes"
        },
        {
          "internalType": "bytes",
          "name": "_data",
          "type": "bytes"
        }
      ],
      "name": "withdrawTo",
      "outputs": [],
      "stateMutability": "payable",
      "type": "function"
    }
  ],
  "bytecode": "0x608060405234801561001057600080fd5b50613097806100206000396000f3fe6080604052600436106101a05760003560e01c80637533d788116100e1578063cbed8b9c1161008a578063ed629c5c11610064578063ed629c5c146104ea578063ede75eca1461050a578063f2fde38b1461051d578063f5ecbdbc1461053d57600080fd5b8063cbed8b9c14610497578063d1deba1f146104b7578063eb8d72b7146104ca57600080fd5b80639b57db5f116100bb5780639b57db5f14610435578063af3fb21c14610455578063b353aaa71461046a57600080fd5b80637533d7881461039c5780637e0ced09146103c95780638da5cb5b146103e957600080fd5b806342d65a8d1161014e57806366ad5c8a1161012857806366ad5c8a146103345780636fb2be6d14610354578063708c0db914610367578063715018a61461038757600080fd5b806342d65a8d146102b057806344770515146102d05780635b8c41e6146102e557600080fd5b806310ddb1371161017f57806310ddb1371461023257806330c593f7146102525780633d8b38f61461028057600080fd5b80621d3567146101a557806307810867146101c757806307e0db1714610212575b600080fd5b3480156101b157600080fd5b506101c56101c03660046126a7565b61055d565b005b3480156101d357600080fd5b506101ff6101e236600461272c565b606760209081526000928352604080842090915290825290205481565b6040519081526020015b60405180910390f35b34801561021e57600080fd5b506101c561022d366004612756565b610720565b34801561023e57600080fd5b506101c561024d366004612756565b61080b565b34801561025e57600080fd5b5060cd5461026d9061ffff1681565b60405161ffff9091168152602001610209565b34801561028c57600080fd5b506102a061029b3660046127ba565b6108cc565b6040519015158152602001610209565b3480156102bc57600080fd5b506101c56102cb3660046127ba565b610998565b3480156102dc57600080fd5b506101ff600081565b3480156102f157600080fd5b506101ff61030036600461280d565b609a602090815260009384526040808520845180860184018051928152908401958401959095209452929052825290205481565b34801561034057600080fd5b506101c561034f3660046126a7565b610a90565b6101c561036236600461288d565b610b17565b34801561037357600080fd5b506101c5610382366004612926565b610b2f565b34801561039357600080fd5b506101c5610cff565b3480156103a857600080fd5b506103bc6103b7366004612756565b610d72565b60405161020991906129c7565b3480156103d557600080fd5b506101c56103e43660046129e8565b610e0c565b3480156103f557600080fd5b5060335473ffffffffffffffffffffffffffffffffffffffff165b60405173ffffffffffffffffffffffffffffffffffffffff9091168152602001610209565b34801561044157600080fd5b506101c5610450366004612a06565b610ec0565b34801561046157600080fd5b506101ff600181565b34801561047657600080fd5b506065546104109073ffffffffffffffffffffffffffffffffffffffff1681565b3480156104a357600080fd5b506101c56104b2366004612a39565b610f98565b6101c56104c53660046126a7565b611096565b3480156104d657600080fd5b506101c56104e5366004612aa8565b611220565b3480156104f657600080fd5b5060cd546102a09062010000900460ff1681565b6101c5610518366004612af6565b6112e9565b34801561052957600080fd5b506101c5610538366004612ba2565b6112f9565b34801561054957600080fd5b506103bc610558366004612bc6565b6113f5565b60655473ffffffffffffffffffffffffffffffffffffffff163373ffffffffffffffffffffffffffffffffffffffff16146105df5760405162461bcd60e51b815260206004820152601e60248201527f4c7a4170703a20696e76616c696420656e64706f696e742063616c6c6572000060448201526064015b60405180910390fd5b61ffff8416600090815260666020526040812080546105fd90612c13565b80601f016020809104026020016040519081016040528092919081815260200182805461062990612c13565b80156106765780601f1061064b57610100808354040283529160200191610676565b820191906000526020600020905b81548152906001019060200180831161065957829003601f168201915b505050505090508051845114801561069b575080805190602001208480519060200120145b61070d5760405162461bcd60e51b815260206004820152602660248201527f4c7a4170703a20696e76616c696420736f757263652073656e64696e6720636f60448201527f6e7472616374000000000000000000000000000000000000000000000000000060648201526084016105d6565b610719858585856114bd565b5050505050565b60335473ffffffffffffffffffffffffffffffffffffffff1633146107875760405162461bcd60e51b815260206004820181905260248201527f4f776e61626c653a2063616c6c6572206973206e6f7420746865206f776e657260448201526064016105d6565b6065546040517f07e0db1700000000000000000000000000000000000000000000000000000000815261ffff8316600482015273ffffffffffffffffffffffffffffffffffffffff909116906307e0db17906024015b600060405180830381600087803b1580156107f757600080fd5b505af1158015610719573d6000803e3d6000fd5b60335473ffffffffffffffffffffffffffffffffffffffff1633146108725760405162461bcd60e51b815260206004820181905260248201527f4f776e61626c653a2063616c6c6572206973206e6f7420746865206f776e657260448201526064016105d6565b6065546040517f10ddb13700000000000000000000000000000000000000000000000000000000815261ffff8316600482015273ffffffffffffffffffffffffffffffffffffffff909116906310ddb137906024016107dd565b61ffff8316600090815260666020526040812080548291906108ed90612c13565b80601f016020809104026020016040519081016040528092919081815260200182805461091990612c13565b80156109665780601f1061093b57610100808354040283529160200191610966565b820191906000526020600020905b81548152906001019060200180831161094957829003601f168201915b50505050509050838360405161097d929190612c67565b60405180910390208180519060200120149150509392505050565b60335473ffffffffffffffffffffffffffffffffffffffff1633146109ff5760405162461bcd60e51b815260206004820181905260248201527f4f776e61626c653a2063616c6c6572206973206e6f7420746865206f776e657260448201526064016105d6565b6065546040517f42d65a8d00000000000000000000000000000000000000000000000000000000815273ffffffffffffffffffffffffffffffffffffffff909116906342d65a8d90610a5990869086908690600401612ca2565b600060405180830381600087803b158015610a7357600080fd5b505af1158015610a87573d6000803e3d6000fd5b50505050505050565b333014610b055760405162461bcd60e51b815260206004820152602660248201527f4e6f6e626c6f636b696e674c7a4170703a2063616c6c6572206d75737420626560448201527f204c7a417070000000000000000000000000000000000000000000000000000060648201526084016105d6565b610b11848484846115c8565b50505050565b610b278633338888888888611880565b505050505050565b600054610100900460ff1680610b48575060005460ff16155b610bba5760405162461bcd60e51b815260206004820152602e60248201527f496e697469616c697a61626c653a20636f6e747261637420697320616c72656160448201527f647920696e697469616c697a656400000000000000000000000000000000000060648201526084016105d6565b600054610100900460ff16158015610bdc576000805461ffff19166101011790555b73ffffffffffffffffffffffffffffffffffffffff8416610c655760405162461bcd60e51b815260206004820152602260248201527f6c7a20656e64706f696e742063616e6e6f74206265207a65726f20616464726560448201527f737300000000000000000000000000000000000000000000000000000000000060648201526084016105d6565b610c6e84611afd565b60cd805461ffff191661ffff85161790556040517fffffffffffffffffffffffffffffffffffffffff000000000000000000000000606084901b166020820152610ccb908490603401604051602081830303815290604052611220565b8015610b1157600080547fffffffffffffffffffffffffffffffffffffffffffffffffffffffffffff00ff16905550505050565b60335473ffffffffffffffffffffffffffffffffffffffff163314610d665760405162461bcd60e51b815260206004820181905260248201527f4f776e61626c653a2063616c6c6572206973206e6f7420746865206f776e657260448201526064016105d6565b610d706000611be5565b565b60666020526000908152604090208054610d8b90612c13565b80601f0160208091040260200160405190810160405280929190818152602001828054610db790612c13565b8015610e045780601f10610dd957610100808354040283529160200191610e04565b820191906000526020600020905b815481529060010190602001808311610de757829003601f168201915b505050505081565b60335473ffffffffffffffffffffffffffffffffffffffff163314610e735760405162461bcd60e51b815260206004820181905260248201527f4f776e61626c653a2063616c6c6572206973206e6f7420746865206f776e657260448201526064016105d6565b60cd805483151562010000027fffffffffffffffffffffffffffffffffffffffffffffffffffffffffff00ffff82168117909255610ebc9161ffff908116911617600183610ec0565b5050565b60335473ffffffffffffffffffffffffffffffffffffffff163314610f275760405162461bcd60e51b815260206004820181905260248201527f4f776e61626c653a2063616c6c6572206973206e6f7420746865206f776e657260448201526064016105d6565b60008111610f775760405162461bcd60e51b815260206004820152601c60248201527f4c7a4170703a20696e76616c6964205f647374476173416d6f756e740000000060448201526064016105d6565b61ffff90921660009081526067602090815260408083209383529290522055565b60335473ffffffffffffffffffffffffffffffffffffffff163314610fff5760405162461bcd60e51b815260206004820181905260248201527f4f776e61626c653a2063616c6c6572206973206e6f7420746865206f776e657260448201526064016105d6565b6065546040517fcbed8b9c00000000000000000000000000000000000000000000000000000000815273ffffffffffffffffffffffffffffffffffffffff9091169063cbed8b9c9061105d9088908890889088908890600401612cc0565b600060405180830381600087803b15801561107757600080fd5b505af115801561108b573d6000803e3d6000fd5b505050505050505050565b61ffff84166000908152609a602052604080822090516110b7908690612cf9565b908152604080516020928190038301902067ffffffffffffffff8616600090815292529020549050806111525760405162461bcd60e51b815260206004820152602360248201527f4e6f6e626c6f636b696e674c7a4170703a206e6f2073746f726564206d65737360448201527f616765000000000000000000000000000000000000000000000000000000000060648201526084016105d6565b8151602083012081146111cd5760405162461bcd60e51b815260206004820152602160248201527f4e6f6e626c6f636b696e674c7a4170703a20696e76616c6964207061796c6f6160448201527f640000000000000000000000000000000000000000000000000000000000000060648201526084016105d6565b61ffff85166000908152609a602052604080822090516111ee908790612cf9565b908152604080516020928190038301902067ffffffffffffffff871660009081529252902055610719858585856115c8565b60335473ffffffffffffffffffffffffffffffffffffffff1633146112875760405162461bcd60e51b815260206004820181905260248201527f4f776e61626c653a2063616c6c6572206973206e6f7420746865206f776e657260448201526064016105d6565b61ffff8216600090815260666020908152604090912082516112ab92840190612501565b507ffa41487ad5d6728f0b19276fa1eddc16558578f5109fc39d2dc33c3230470dab82826040516112dd929190612d15565b60405180910390a15050565b610a878733888888888888611880565b60335473ffffffffffffffffffffffffffffffffffffffff1633146113605760405162461bcd60e51b815260206004820181905260248201527f4f776e61626c653a2063616c6c6572206973206e6f7420746865206f776e657260448201526064016105d6565b73ffffffffffffffffffffffffffffffffffffffff81166113e95760405162461bcd60e51b815260206004820152602660248201527f4f776e61626c653a206e6577206f776e657220697320746865207a65726f206160448201527f646472657373000000000000000000000000000000000000000000000000000060648201526084016105d6565b6113f281611be5565b50565b6065546040517ff5ecbdbc00000000000000000000000000000000000000000000000000000000815261ffff8087166004830152851660248201523060448201526064810183905260609173ffffffffffffffffffffffffffffffffffffffff169063f5ecbdbc9060840160006040518083038186803b15801561147857600080fd5b505afa15801561148c573d6000803e3d6000fd5b505050506040513d6000823e601f3d908101601f191682016040526114b49190810190612d7f565b95945050505050565b6040517f66ad5c8a00000000000000000000000000000000000000000000000000000000815230906366ad5c8a906114ff908790879087908790600401612db4565b600060405180830381600087803b15801561151957600080fd5b505af192505050801561152a575060015b610b11578080519060200120609a60008661ffff1661ffff1681526020019081526020016000208460405161155f9190612cf9565b90815260408051918290036020908101832067ffffffffffffffff87166000908152915220919091557fe6f254030bcb01ffd20558175c13fcaed6d1520be7becee4c961b65f79243b0d906115bb908690869086908690612db4565b60405180910390a1610b11565b60cd5461ffff8581169116146116205760405162461bcd60e51b815260206004820152601660248201527f496e76616c696420736f7572636520636861696e49640000000000000000000060448201526064016105d6565b6000806000806000808680602001905181019061163d9190612df3565b95509550955095509550955061165a85631d1d8b6360e01b611c5c565b801561171057508473ffffffffffffffffffffffffffffffffffffffff1663c01e1bd66040518163ffffffff1660e01b8152600401602060405180830381600087803b1580156116a957600080fd5b505af11580156116bd573d6000803e3d6000fd5b505050506040513d601f19601f820116820180604052508101906116e19190612e87565b73ffffffffffffffffffffffffffffffffffffffff168673ffffffffffffffffffffffffffffffffffffffff16145b15611822576040517f40c10f1900000000000000000000000000000000000000000000000000000000815273ffffffffffffffffffffffffffffffffffffffff8481166004830152602482018490528616906340c10f1990604401600060405180830381600087803b15801561178557600080fd5b505af1158015611799573d6000803e3d6000fd5b505050508373ffffffffffffffffffffffffffffffffffffffff168573ffffffffffffffffffffffffffffffffffffffff168773ffffffffffffffffffffffffffffffffffffffff167fb0444523268717a02698be47d0803aa7468c00acbed2f8bd93a0459cde61dd8986868660405161181593929190612ea4565b60405180910390a4611874565b600086868587868660405160200161183f96959493929190612ed9565b60408051601f1981840301815260cd546020840190925260008084529093506118729261ffff9092169184913391611c81565b505b50505050505050505050565b6040517f9dc29fac0000000000000000000000000000000000000000000000000000000081523360048201526024810186905273ffffffffffffffffffffffffffffffffffffffff891690639dc29fac90604401600060405180830381600087803b1580156118ee57600080fd5b505af1158015611902573d6000803e3d6000fd5b5050505060008873ffffffffffffffffffffffffffffffffffffffff1663c01e1bd66040518163ffffffff1660e01b8152600401602060405180830381600087803b15801561195057600080fd5b505af1158015611964573d6000803e3d6000fd5b505050506040513d601f19601f820116820180604052508101906119889190612e87565b90506000818a8a8a8a88886040516020016119a99796959493929190612f34565b60408051808303601f1901815291905260cd5490915062010000900460ff16156119e75760cd546119e29061ffff166001876000611e26565b611a5b565b845115611a5b5760405162461bcd60e51b8152602060048201526024808201527f4c7a4170703a205f61646170746572506172616d73206d75737420626520656d60448201527f7074792e0000000000000000000000000000000000000000000000000000000060648201526084016105d6565b60cd54611a6f9061ffff1682338989611c81565b3373ffffffffffffffffffffffffffffffffffffffff168a73ffffffffffffffffffffffffffffffffffffffff168373ffffffffffffffffffffffffffffffffffffffff167f73d170910aba9e6d50b102db522b1dbcd796216f5128b445aa2135272886497e8b8b8989604051611ae99493929190612f91565b60405180910390a450505050505050505050565b600054610100900460ff1680611b16575060005460ff16155b611b885760405162461bcd60e51b815260206004820152602e60248201527f496e697469616c697a61626c653a20636f6e747261637420697320616c72656160448201527f647920696e697469616c697a656400000000000000000000000000000000000060648201526084016105d6565b600054610100900460ff16158015611baa576000805461ffff19166101011790555b611bb382611f03565b8015610ebc57600080547fffffffffffffffffffffffffffffffffffffffffffffffffffffffffffff00ff1690555050565b6033805473ffffffffffffffffffffffffffffffffffffffff8381167fffffffffffffffffffffffff0000000000000000000000000000000000000000831681179093556040519116919082907f8be0079c531659141344cd1fd0a4f28419497f9722a3daafe3b4186f6b6457e090600090a35050565b6000611c6783611fc1565b8015611c785750611c788383612025565b90505b92915050565b61ffff851660009081526066602052604081208054611c9f90612c13565b80601f0160208091040260200160405190810160405280929190818152602001828054611ccb90612c13565b8015611d185780601f10611ced57610100808354040283529160200191611d18565b820191906000526020600020905b815481529060010190602001808311611cfb57829003601f168201915b50505050509050805160001415611d975760405162461bcd60e51b815260206004820152603060248201527f4c7a4170703a2064657374696e6174696f6e20636861696e206973206e6f742060448201527f61207472757374656420736f757263650000000000000000000000000000000060648201526084016105d6565b6065546040517fc580310000000000000000000000000000000000000000000000000000000000815273ffffffffffffffffffffffffffffffffffffffff9091169063c5803100903490611df9908a9086908b908b908b908b90600401612fc7565b6000604051808303818588803b158015611e1257600080fd5b505af1158015611872573d6000803e3d6000fd5b6000611e33836022015190565b61ffff8616600090815260676020908152604080832088845290915281205491925090611e6190849061302e565b905060008111611eb35760405162461bcd60e51b815260206004820152601a60248201527f4c7a4170703a206d696e4761734c696d6974206e6f742073657400000000000060448201526064016105d6565b80821015610b275760405162461bcd60e51b815260206004820152601b60248201527f4c7a4170703a20676173206c696d697420697320746f6f206c6f77000000000060448201526064016105d6565b600054610100900460ff1680611f1c575060005460ff16155b611f8e5760405162461bcd60e51b815260206004820152602e60248201527f496e697469616c697a61626c653a20636f6e747261637420697320616c72656160448201527f647920696e697469616c697a656400000000000000000000000000000000000060648201526084016105d6565b600054610100900460ff16158015611fb0576000805461ffff19166101011790555b611fb8612161565b611bb38261224f565b6000611fed827f01ffc9a700000000000000000000000000000000000000000000000000000000612025565b8015611c7b575061201e827fffffffff00000000000000000000000000000000000000000000000000000000612025565b1592915050565b604080517fffffffff00000000000000000000000000000000000000000000000000000000831660248083019190915282518083039091018152604490910182526020810180517bffffffffffffffffffffffffffffffffffffffffffffffffffffffff167f01ffc9a7000000000000000000000000000000000000000000000000000000001790529051600091908290819073ffffffffffffffffffffffffffffffffffffffff871690617530906120df908690612cf9565b6000604051808303818686fa925050503d806000811461211b576040519150601f19603f3d011682016040523d82523d6000602084013e612120565b606091505b509150915060208151101561213b5760009350505050611c7b565b818015612157575080806020019051810190612157919061306d565b9695505050505050565b600054610100900460ff168061217a575060005460ff16155b6121ec5760405162461bcd60e51b815260206004820152602e60248201527f496e697469616c697a61626c653a20636f6e747261637420697320616c72656160448201527f647920696e697469616c697a656400000000000000000000000000000000000060648201526084016105d6565b600054610100900460ff1615801561220e576000805461ffff19166101011790555b61221661236e565b61221e61244b565b80156113f257600080547fffffffffffffffffffffffffffffffffffffffffffffffffffffffffffff00ff16905550565b600054610100900460ff1680612268575060005460ff16155b6122da5760405162461bcd60e51b815260206004820152602e60248201527f496e697469616c697a61626c653a20636f6e747261637420697320616c72656160448201527f647920696e697469616c697a656400000000000000000000000000000000000060648201526084016105d6565b600054610100900460ff161580156122fc576000805461ffff19166101011790555b606580547fffffffffffffffffffffffff00000000000000000000000000000000000000001673ffffffffffffffffffffffffffffffffffffffff84161790558015610ebc57600080547fffffffffffffffffffffffffffffffffffffffffffffffffffffffffffff00ff1690555050565b600054610100900460ff1680612387575060005460ff16155b6123f95760405162461bcd60e51b815260206004820152602e60248201527f496e697469616c697a61626c653a20636f6e747261637420697320616c72656160448201527f647920696e697469616c697a656400000000000000000000000000000000000060648201526084016105d6565b600054610100900460ff1615801561221e576000805461ffff191661010117905580156113f257600080547fffffffffffffffffffffffffffffffffffffffffffffffffffffffffffff00ff16905550565b600054610100900460ff1680612464575060005460ff16155b6124d65760405162461bcd60e51b815260206004820152602e60248201527f496e697469616c697a61626c653a20636f6e747261637420697320616c72656160448201527f647920696e697469616c697a656400000000000000000000000000000000000060648201526084016105d6565b600054610100900460ff161580156124f8576000805461ffff19166101011790555b61221e33611be5565b82805461250d90612c13565b90600052602060002090601f01602090048101928261252f5760008555612575565b82601f1061254857805160ff1916838001178555612575565b82800160010185558215612575579182015b8281111561257557825182559160200191906001019061255a565b50612581929150612585565b5090565b5b808211156125815760008155600101612586565b803561ffff811681146125ac57600080fd5b919050565b7f4e487b7100000000000000000000000000000000000000000000000000000000600052604160045260246000fd5b604051601f8201601f1916810167ffffffffffffffff81118282101715612609576126096125b1565b604052919050565b600067ffffffffffffffff82111561262b5761262b6125b1565b50601f01601f191660200190565b600082601f83011261264a57600080fd5b813561265d61265882612611565b6125e0565b81815284602083860101111561267257600080fd5b816020850160208301376000918101602001919091529392505050565b803567ffffffffffffffff811681146125ac57600080fd5b600080600080608085870312156126bd57600080fd5b6126c68561259a565b9350602085013567ffffffffffffffff808211156126e357600080fd5b6126ef88838901612639565b94506126fd6040880161268f565b9350606087013591508082111561271357600080fd5b5061272087828801612639565b91505092959194509250565b6000806040838503121561273f57600080fd5b6127488361259a565b946020939093013593505050565b60006020828403121561276857600080fd5b611c788261259a565b60008083601f84011261278357600080fd5b50813567ffffffffffffffff81111561279b57600080fd5b6020830191508360208285010111156127b357600080fd5b9250929050565b6000806000604084860312156127cf57600080fd5b6127d88461259a565b9250602084013567ffffffffffffffff8111156127f457600080fd5b61280086828701612771565b9497909650939450505050565b60008060006060848603121561282257600080fd5b61282b8461259a565b9250602084013567ffffffffffffffff81111561284757600080fd5b61285386828701612639565b9250506128626040850161268f565b90509250925092565b73ffffffffffffffffffffffffffffffffffffffff811681146113f257600080fd5b60008060008060008060a087890312156128a657600080fd5b86356128b18161286b565b95506020870135945060408701356128c88161286b565b9350606087013567ffffffffffffffff808211156128e557600080fd5b6128f18a838b01612639565b9450608089013591508082111561290757600080fd5b5061291489828a01612771565b979a9699509497509295939492505050565b60008060006060848603121561293b57600080fd5b83356129468161286b565b92506129546020850161259a565b915060408401356129648161286b565b809150509250925092565b60005b8381101561298a578181015183820152602001612972565b83811115610b115750506000910152565b600081518084526129b381602086016020860161296f565b601f01601f19169290920160200192915050565b602081526000611c78602083018461299b565b80151581146113f257600080fd5b600080604083850312156129fb57600080fd5b8235612748816129da565b600080600060608486031215612a1b57600080fd5b612a248461259a565b95602085013595506040909401359392505050565b600080600080600060808688031215612a5157600080fd5b612a5a8661259a565b9450612a686020870161259a565b935060408601359250606086013567ffffffffffffffff811115612a8b57600080fd5b612a9788828901612771565b969995985093965092949392505050565b60008060408385031215612abb57600080fd5b612ac48361259a565b9150602083013567ffffffffffffffff811115612ae057600080fd5b612aec85828601612639565b9150509250929050565b600080600080600080600060c0888a031215612b1157600080fd5b8735612b1c8161286b565b96506020880135612b2c8161286b565b9550604088013594506060880135612b438161286b565b9350608088013567ffffffffffffffff80821115612b6057600080fd5b612b6c8b838c01612639565b945060a08a0135915080821115612b8257600080fd5b50612b8f8a828b01612771565b989b979a50959850939692959293505050565b600060208284031215612bb457600080fd5b8135612bbf8161286b565b9392505050565b60008060008060808587031215612bdc57600080fd5b612be58561259a565b9350612bf36020860161259a565b92506040850135612c038161286b565b9396929550929360600135925050565b600181811c90821680612c2757607f821691505b60208210811415612c61577f4e487b7100000000000000000000000000000000000000000000000000000000600052602260045260246000fd5b50919050565b8183823760009101908152919050565b818352818160208501375060006020828401015260006020601f19601f840116840101905092915050565b61ffff841681526040602082015260006114b4604083018486612c77565b600061ffff808816835280871660208401525084604083015260806060830152612cee608083018486612c77565b979650505050505050565b60008251612d0b81846020870161296f565b9190910192915050565b61ffff83168152604060208201526000612d32604083018461299b565b949350505050565b600082601f830112612d4b57600080fd5b8151612d5961265882612611565b818152846020838601011115612d6e57600080fd5b612d3282602083016020870161296f565b600060208284031215612d9157600080fd5b815167ffffffffffffffff811115612da857600080fd5b612d3284828501612d3a565b61ffff85168152608060208201526000612dd1608083018661299b565b67ffffffffffffffff851660408401528281036060840152612cee818561299b565b60008060008060008060c08789031215612e0c57600080fd5b8651612e178161286b565b6020880151909650612e288161286b565b6040880151909550612e398161286b565b6060880151909450612e4a8161286b565b608088015160a0890151919450925067ffffffffffffffff811115612e6e57600080fd5b612e7a89828a01612d3a565b9150509295509295509295565b600060208284031215612e9957600080fd5b8151612bbf8161286b565b73ffffffffffffffffffffffffffffffffffffffff841681528260208201526060604082015260006114b4606083018461299b565b600073ffffffffffffffffffffffffffffffffffffffff80891683528088166020840152808716604084015280861660608401525083608083015260c060a0830152612f2860c083018461299b565b98975050505050505050565b600073ffffffffffffffffffffffffffffffffffffffff808a1683528089166020840152808816604084015280871660608401525084608083015260c060a0830152612f8460c083018486612c77565b9998505050505050505050565b73ffffffffffffffffffffffffffffffffffffffff85168152836020820152606060408201526000612157606083018486612c77565b61ffff8716815260c060208201526000612fe460c083018861299b565b8281036040840152612ff6818861299b565b73ffffffffffffffffffffffffffffffffffffffff87811660608601528616608085015283810360a08501529050612f84818561299b565b60008219821115613068577f4e487b7100000000000000000000000000000000000000000000000000000000600052601160045260246000fd5b500190565b60006020828403121561307f57600080fd5b8151612bbf816129da56fea164736f6c6343000809000a",
  "linkReferences": {},
  "deployedLinkReferences": {}
}