{
  "_format": "hh-sol-artifact-1",
  "contractName": "AltL1Bridge",
  "sourceName": "contracts/lzTokenBridge/AltL1Bridge.sol",
  "abi": [
    {
      "anonymous": false,
      "inputs": [
        {
          "indexed": true,
          "internalType": "address",
          "name": "_l1Token",
          "type": "address"
        },
        {
          "indexed": true,
          "internalType": "address",
          "name": "_l2Token",
          "type": "address"
        },
        {
          "indexed": true,
          "internalType": "address",
          "name": "_from",
          "type": "address"
        },
        {
          "indexed": false,
          "internalType": "address",
          "name": "_to",
          "type": "address"
        },
        {
          "indexed": false,
          "internalType": "uint256",
          "name": "_amount",
          "type": "uint256"
        },
        {
          "indexed": false,
          "internalType": "bytes",
          "name": "_data",
          "type": "bytes"
        }
      ],
      "name": "DepositFinalized",
      "type": "event"
    },
    {
      "anonymous": false,
      "inputs": [
        {
          "indexed": false,
          "internalType": "uint16",
          "name": "_srcChainId",
          "type": "uint16"
        },
        {
          "indexed": false,
          "internalType": "bytes",
          "name": "_srcAddress",
          "type": "bytes"
        },
        {
          "indexed": false,
          "internalType": "uint64",
          "name": "_nonce",
          "type": "uint64"
        },
        {
          "indexed": false,
          "internalType": "bytes",
          "name": "_payload",
          "type": "bytes"
        }
      ],
      "name": "MessageFailed",
      "type": "event"
    },
    {
      "anonymous": false,
      "inputs": [
        {
          "indexed": true,
          "internalType": "address",
          "name": "previousOwner",
          "type": "address"
        },
        {
          "indexed": true,
          "internalType": "address",
          "name": "newOwner",
          "type": "address"
        }
      ],
      "name": "OwnershipTransferred",
      "type": "event"
    },
    {
      "anonymous": false,
      "inputs": [
        {
          "indexed": false,
          "internalType": "uint16",
          "name": "_srcChainId",
          "type": "uint16"
        },
        {
          "indexed": false,
          "internalType": "bytes",
          "name": "_srcAddress",
          "type": "bytes"
        }
      ],
      "name": "SetTrustedRemote",
      "type": "event"
    },
    {
      "anonymous": false,
      "inputs": [
        {
          "indexed": true,
          "internalType": "address",
          "name": "_l1Token",
          "type": "address"
        },
        {
          "indexed": true,
          "internalType": "address",
          "name": "_l2Token",
          "type": "address"
        },
        {
          "indexed": true,
          "internalType": "address",
          "name": "_from",
          "type": "address"
        },
        {
          "indexed": false,
          "internalType": "address",
          "name": "_to",
          "type": "address"
        },
        {
          "indexed": false,
          "internalType": "uint256",
          "name": "_amount",
          "type": "uint256"
        },
        {
          "indexed": false,
          "internalType": "bytes",
          "name": "_data",
          "type": "bytes"
        }
      ],
      "name": "WithdrawalInitiated",
      "type": "event"
    },
    {
      "inputs": [],
      "name": "FUNCTION_TYPE_SEND",
      "outputs": [
        {
          "internalType": "uint256",
          "name": "",
          "type": "uint256"
        }
      ],
      "stateMutability": "view",
      "type": "function"
    },
    {
      "inputs": [],
      "name": "NO_EXTRA_GAS",
      "outputs": [
        {
          "internalType": "uint256",
          "name": "",
          "type": "uint256"
        }
      ],
      "stateMutability": "view",
      "type": "function"
    },
    {
      "inputs": [],
      "name": "dstChainId",
      "outputs": [
        {
          "internalType": "uint16",
          "name": "",
          "type": "uint16"
        }
      ],
      "stateMutability": "view",
      "type": "function"
    },
    {
      "inputs": [
        {
          "internalType": "uint16",
          "name": "",
          "type": "uint16"
        },
        {
          "internalType": "bytes",
          "name": "",
          "type": "bytes"
        },
        {
          "internalType": "uint64",
          "name": "",
          "type": "uint64"
        }
      ],
      "name": "failedMessages",
      "outputs": [
        {
          "internalType": "bytes32",
          "name": "",
          "type": "bytes32"
        }
      ],
      "stateMutability": "view",
      "type": "function"
    },
    {
      "inputs": [
        {
          "internalType": "uint16",
          "name": "_srcChainId",
          "type": "uint16"
        },
        {
          "internalType": "bytes",
          "name": "_srcAddress",
          "type": "bytes"
        }
      ],
      "name": "forceResumeReceive",
      "outputs": [],
      "stateMutability": "nonpayable",
      "type": "function"
    },
    {
      "inputs": [
        {
          "internalType": "uint16",
          "name": "_version",
          "type": "uint16"
        },
        {
          "internalType": "uint16",
          "name": "_chainId",
          "type": "uint16"
        },
        {
          "internalType": "address",
          "name": "",
          "type": "address"
        },
        {
          "internalType": "uint256",
          "name": "_configType",
          "type": "uint256"
        }
      ],
      "name": "getConfig",
      "outputs": [
        {
          "internalType": "bytes",
          "name": "",
          "type": "bytes"
        }
      ],
      "stateMutability": "view",
      "type": "function"
    },
    {
      "inputs": [
        {
          "internalType": "address",
          "name": "_lzEndpoint",
          "type": "address"
        },
        {
          "internalType": "uint16",
          "name": "_dstChainId",
          "type": "uint16"
        },
        {
          "internalType": "address",
          "name": "_ethBridgeAddress",
          "type": "address"
        }
      ],
      "name": "initialize",
      "outputs": [],
      "stateMutability": "nonpayable",
      "type": "function"
    },
    {
      "inputs": [
        {
          "internalType": "uint16",
          "name": "_srcChainId",
          "type": "uint16"
        },
        {
          "internalType": "bytes",
          "name": "_srcAddress",
          "type": "bytes"
        }
      ],
      "name": "isTrustedRemote",
      "outputs": [
        {
          "internalType": "bool",
          "name": "",
          "type": "bool"
        }
      ],
      "stateMutability": "view",
      "type": "function"
    },
    {
      "inputs": [],
      "name": "lzEndpoint",
      "outputs": [
        {
          "internalType": "contract ILayerZeroEndpoint",
          "name": "",
          "type": "address"
        }
      ],
      "stateMutability": "view",
      "type": "function"
    },
    {
      "inputs": [
        {
          "internalType": "uint16",
          "name": "_srcChainId",
          "type": "uint16"
        },
        {
          "internalType": "bytes",
          "name": "_srcAddress",
          "type": "bytes"
        },
        {
          "internalType": "uint64",
          "name": "_nonce",
          "type": "uint64"
        },
        {
          "internalType": "bytes",
          "name": "_payload",
          "type": "bytes"
        }
      ],
      "name": "lzReceive",
      "outputs": [],
      "stateMutability": "nonpayable",
      "type": "function"
    },
    {
      "inputs": [],
      "name": "maxTransferAmountPerDay",
      "outputs": [
        {
          "internalType": "uint256",
          "name": "",
          "type": "uint256"
        }
      ],
      "stateMutability": "view",
      "type": "function"
    },
    {
      "inputs": [
        {
          "internalType": "uint16",
          "name": "",
          "type": "uint16"
        },
        {
          "internalType": "uint256",
          "name": "",
          "type": "uint256"
        }
      ],
      "name": "minDstGasLookup",
      "outputs": [
        {
          "internalType": "uint256",
          "name": "",
          "type": "uint256"
        }
      ],
      "stateMutability": "view",
      "type": "function"
    },
    {
      "inputs": [
        {
          "internalType": "uint16",
          "name": "_srcChainId",
          "type": "uint16"
        },
        {
          "internalType": "bytes",
          "name": "_srcAddress",
          "type": "bytes"
        },
        {
          "internalType": "uint64",
          "name": "_nonce",
          "type": "uint64"
        },
        {
          "internalType": "bytes",
          "name": "_payload",
          "type": "bytes"
        }
      ],
      "name": "nonblockingLzReceive",
      "outputs": [],
      "stateMutability": "nonpayable",
      "type": "function"
    },
    {
      "inputs": [],
      "name": "owner",
      "outputs": [
        {
          "internalType": "address",
          "name": "",
          "type": "address"
        }
      ],
      "stateMutability": "view",
      "type": "function"
    },
    {
      "inputs": [],
      "name": "renounceOwnership",
      "outputs": [],
      "stateMutability": "nonpayable",
      "type": "function"
    },
    {
      "inputs": [
        {
          "internalType": "uint16",
          "name": "_srcChainId",
          "type": "uint16"
        },
        {
          "internalType": "bytes",
          "name": "_srcAddress",
          "type": "bytes"
        },
        {
          "internalType": "uint64",
          "name": "_nonce",
          "type": "uint64"
        },
        {
          "internalType": "bytes",
          "name": "_payload",
          "type": "bytes"
        }
      ],
      "name": "retryMessage",
      "outputs": [],
      "stateMutability": "payable",
      "type": "function"
    },
    {
      "inputs": [
        {
          "internalType": "uint16",
          "name": "_version",
          "type": "uint16"
        },
        {
          "internalType": "uint16",
          "name": "_chainId",
          "type": "uint16"
        },
        {
          "internalType": "uint256",
          "name": "_configType",
          "type": "uint256"
        },
        {
          "internalType": "bytes",
          "name": "_config",
          "type": "bytes"
        }
      ],
      "name": "setConfig",
      "outputs": [],
      "stateMutability": "nonpayable",
      "type": "function"
    },
    {
      "inputs": [
        {
          "internalType": "uint16",
          "name": "_dstChainId",
          "type": "uint16"
        }
      ],
      "name": "setDstChainId",
      "outputs": [],
      "stateMutability": "nonpayable",
      "type": "function"
    },
    {
      "inputs": [
        {
          "internalType": "uint256",
          "name": "_maxTransferAmountPerDay",
          "type": "uint256"
        }
      ],
      "name": "setMaxTransferAmountPerDay",
      "outputs": [],
      "stateMutability": "nonpayable",
      "type": "function"
    },
    {
      "inputs": [
        {
          "internalType": "uint16",
          "name": "_dstChainId",
          "type": "uint16"
        },
        {
          "internalType": "uint256",
          "name": "_type",
          "type": "uint256"
        },
        {
          "internalType": "uint256",
          "name": "_dstGasAmount",
          "type": "uint256"
        }
      ],
      "name": "setMinDstGasLookup",
      "outputs": [],
      "stateMutability": "nonpayable",
      "type": "function"
    },
    {
      "inputs": [
        {
          "internalType": "uint16",
          "name": "_version",
          "type": "uint16"
        }
      ],
      "name": "setReceiveVersion",
      "outputs": [],
      "stateMutability": "nonpayable",
      "type": "function"
    },
    {
      "inputs": [
        {
          "internalType": "uint16",
          "name": "_version",
          "type": "uint16"
        }
      ],
      "name": "setSendVersion",
      "outputs": [],
      "stateMutability": "nonpayable",
      "type": "function"
    },
    {
      "inputs": [
        {
          "internalType": "uint16",
          "name": "_srcChainId",
          "type": "uint16"
        },
        {
          "internalType": "bytes",
          "name": "_srcAddress",
          "type": "bytes"
        }
      ],
      "name": "setTrustedRemote",
      "outputs": [],
      "stateMutability": "nonpayable",
      "type": "function"
    },
    {
      "inputs": [
        {
          "internalType": "bool",
          "name": "_useCustomAdapterParams",
          "type": "bool"
        },
        {
          "internalType": "uint256",
          "name": "_dstGasAmount",
          "type": "uint256"
        }
      ],
      "name": "setUseCustomAdapterParams",
      "outputs": [],
      "stateMutability": "nonpayable",
      "type": "function"
    },
    {
      "inputs": [
        {
          "internalType": "address",
          "name": "newOwner",
          "type": "address"
        }
      ],
      "name": "transferOwnership",
      "outputs": [],
      "stateMutability": "nonpayable",
      "type": "function"
    },
    {
      "inputs": [],
      "name": "transferTimestampCheckPoint",
      "outputs": [
        {
          "internalType": "uint256",
          "name": "",
          "type": "uint256"
        }
      ],
      "stateMutability": "view",
      "type": "function"
    },
    {
      "inputs": [],
      "name": "transferredAmount",
      "outputs": [
        {
          "internalType": "uint256",
          "name": "",
          "type": "uint256"
        }
      ],
      "stateMutability": "view",
      "type": "function"
    },
    {
      "inputs": [
        {
          "internalType": "uint16",
          "name": "",
          "type": "uint16"
        }
      ],
      "name": "trustedRemoteLookup",
      "outputs": [
        {
          "internalType": "bytes",
          "name": "",
          "type": "bytes"
        }
      ],
      "stateMutability": "view",
      "type": "function"
    },
    {
      "inputs": [],
      "name": "useCustomAdapterParams",
      "outputs": [
        {
          "internalType": "bool",
          "name": "",
          "type": "bool"
        }
      ],
      "stateMutability": "view",
      "type": "function"
    },
    {
      "inputs": [
        {
          "internalType": "address",
          "name": "_l2Token",
          "type": "address"
        },
        {
          "internalType": "uint256",
          "name": "_amount",
          "type": "uint256"
        },
        {
          "internalType": "address",
          "name": "_zroPaymentAddress",
          "type": "address"
        },
        {
          "internalType": "bytes",
          "name": "_adapterParams",
          "type": "bytes"
        },
        {
          "internalType": "bytes",
          "name": "_data",
          "type": "bytes"
        }
      ],
      "name": "withdraw",
      "outputs": [],
      "stateMutability": "payable",
      "type": "function"
    },
    {
      "inputs": [
        {
          "internalType": "address",
          "name": "_l2Token",
          "type": "address"
        },
        {
          "internalType": "address",
          "name": "_to",
          "type": "address"
        },
        {
          "internalType": "uint256",
          "name": "_amount",
          "type": "uint256"
        },
        {
          "internalType": "address",
          "name": "_zroPaymentAddress",
          "type": "address"
        },
        {
          "internalType": "bytes",
          "name": "_adapterParams",
          "type": "bytes"
        },
        {
          "internalType": "bytes",
          "name": "_data",
          "type": "bytes"
        }
      ],
      "name": "withdrawTo",
      "outputs": [],
      "stateMutability": "payable",
      "type": "function"
    }
  ],
  "bytecode": "0x608060405234801561001057600080fd5b506133ac806100206000396000f3fe6080604052600436106101d75760003560e01c80637533d78811610102578063c8ed191011610095578063ed629c5c11610064578063ed629c5c146105a3578063ede75eca146105c3578063f2fde38b146105d6578063f5ecbdbc146105f657600080fd5b8063c8ed19101461053a578063cbed8b9c14610550578063d1deba1f14610570578063eb8d72b71461058357600080fd5b80639733ed04116100d15780639733ed04146104b85780639b57db5f146104d8578063af3fb21c146104f8578063b353aaa71461050d57600080fd5b80637533d788146104095780637e0ced09146104365780638da5cb5b14610456578063901eec16146104a257600080fd5b806342d65a8d1161017a57806366ad5c8a1161014957806366ad5c8a146103a15780636fb2be6d146103c1578063708c0db9146103d4578063715018a6146103f457600080fd5b806342d65a8d146103075780634477051514610327578063512afd891461033c5780635b8c41e61461035257600080fd5b806310ddb137116101b657806310ddb1371461026957806330c593f7146102895780633496a68e146102b75780633d8b38f6146102d757600080fd5b80621d3567146101dc57806307810867146101fe57806307e0db1714610249575b600080fd5b3480156101e857600080fd5b506101fc6101f73660046129a3565b610616565b005b34801561020a57600080fd5b50610236610219366004612a28565b606760209081526000928352604080842090915290825290205481565b6040519081526020015b60405180910390f35b34801561025557600080fd5b506101fc610264366004612a52565b6107d9565b34801561027557600080fd5b506101fc610284366004612a52565b6108c4565b34801561029557600080fd5b5060cd546102a49061ffff1681565b60405161ffff9091168152602001610240565b3480156102c357600080fd5b506101fc6102d2366004612a6d565b610985565b3480156102e357600080fd5b506102f76102f2366004612acf565b6109f1565b6040519015158152602001610240565b34801561031357600080fd5b506101fc610322366004612acf565b610abd565b34801561033357600080fd5b50610236600081565b34801561034857600080fd5b5061023660ce5481565b34801561035e57600080fd5b5061023661036d366004612b22565b609a602090815260009384526040808520845180860184018051928152908401958401959095209452929052825290205481565b3480156103ad57600080fd5b506101fc6103bc3660046129a3565b610bb5565b6101fc6103cf366004612ba2565b610c3c565b3480156103e057600080fd5b506101fc6103ef366004612c3b565b610c54565b34801561040057600080fd5b506101fc610e36565b34801561041557600080fd5b50610429610424366004612a52565b610ea9565b6040516102409190612cdc565b34801561044257600080fd5b506101fc610451366004612cfd565b610f43565b34801561046257600080fd5b5060335473ffffffffffffffffffffffffffffffffffffffff165b60405173ffffffffffffffffffffffffffffffffffffffff9091168152602001610240565b3480156104ae57600080fd5b5061023660d05481565b3480156104c457600080fd5b506101fc6104d3366004612a52565b610ff7565b3480156104e457600080fd5b506101fc6104f3366004612d1b565b611076565b34801561050457600080fd5b50610236600181565b34801561051957600080fd5b5060655461047d9073ffffffffffffffffffffffffffffffffffffffff1681565b34801561054657600080fd5b5061023660cf5481565b34801561055c57600080fd5b506101fc61056b366004612d4e565b61114e565b6101fc61057e3660046129a3565b61124c565b34801561058f57600080fd5b506101fc61059e366004612dbd565b6113d6565b3480156105af57600080fd5b5060cd546102f79062010000900460ff1681565b6101fc6105d1366004612e0b565b61149f565b3480156105e257600080fd5b506101fc6105f1366004612eb7565b6114af565b34801561060257600080fd5b50610429610611366004612edb565b6115ab565b60655473ffffffffffffffffffffffffffffffffffffffff163373ffffffffffffffffffffffffffffffffffffffff16146106985760405162461bcd60e51b815260206004820152601e60248201527f4c7a4170703a20696e76616c696420656e64706f696e742063616c6c6572000060448201526064015b60405180910390fd5b61ffff8416600090815260666020526040812080546106b690612f28565b80601f01602080910402602001604051908101604052809291908181526020018280546106e290612f28565b801561072f5780601f106107045761010080835404028352916020019161072f565b820191906000526020600020905b81548152906001019060200180831161071257829003601f168201915b5050505050905080518451148015610754575080805190602001208480519060200120145b6107c65760405162461bcd60e51b815260206004820152602660248201527f4c7a4170703a20696e76616c696420736f757263652073656e64696e6720636f60448201527f6e74726163740000000000000000000000000000000000000000000000000000606482015260840161068f565b6107d285858585611673565b5050505050565b60335473ffffffffffffffffffffffffffffffffffffffff1633146108405760405162461bcd60e51b815260206004820181905260248201527f4f776e61626c653a2063616c6c6572206973206e6f7420746865206f776e6572604482015260640161068f565b6065546040517f07e0db1700000000000000000000000000000000000000000000000000000000815261ffff8316600482015273ffffffffffffffffffffffffffffffffffffffff909116906307e0db17906024015b600060405180830381600087803b1580156108b057600080fd5b505af11580156107d2573d6000803e3d6000fd5b60335473ffffffffffffffffffffffffffffffffffffffff16331461092b5760405162461bcd60e51b815260206004820181905260248201527f4f776e61626c653a2063616c6c6572206973206e6f7420746865206f776e6572604482015260640161068f565b6065546040517f10ddb13700000000000000000000000000000000000000000000000000000000815261ffff8316600482015273ffffffffffffffffffffffffffffffffffffffff909116906310ddb13790602401610896565b60335473ffffffffffffffffffffffffffffffffffffffff1633146109ec5760405162461bcd60e51b815260206004820181905260248201527f4f776e61626c653a2063616c6c6572206973206e6f7420746865206f776e6572604482015260640161068f565b60ce55565b61ffff831660009081526066602052604081208054829190610a1290612f28565b80601f0160208091040260200160405190810160405280929190818152602001828054610a3e90612f28565b8015610a8b5780601f10610a6057610100808354040283529160200191610a8b565b820191906000526020600020905b815481529060010190602001808311610a6e57829003601f168201915b505050505090508383604051610aa2929190612f7c565b60405180910390208180519060200120149150509392505050565b60335473ffffffffffffffffffffffffffffffffffffffff163314610b245760405162461bcd60e51b815260206004820181905260248201527f4f776e61626c653a2063616c6c6572206973206e6f7420746865206f776e6572604482015260640161068f565b6065546040517f42d65a8d00000000000000000000000000000000000000000000000000000000815273ffffffffffffffffffffffffffffffffffffffff909116906342d65a8d90610b7e90869086908690600401612fb7565b600060405180830381600087803b158015610b9857600080fd5b505af1158015610bac573d6000803e3d6000fd5b50505050505050565b333014610c2a5760405162461bcd60e51b815260206004820152602660248201527f4e6f6e626c6f636b696e674c7a4170703a2063616c6c6572206d75737420626560448201527f204c7a4170700000000000000000000000000000000000000000000000000000606482015260840161068f565b610c368484848461177e565b50505050565b610c4c8633338888888888611a36565b505050505050565b600054610100900460ff1680610c6d575060005460ff16155b610cdf5760405162461bcd60e51b815260206004820152602e60248201527f496e697469616c697a61626c653a20636f6e747261637420697320616c72656160448201527f647920696e697469616c697a6564000000000000000000000000000000000000606482015260840161068f565b600054610100900460ff16158015610d01576000805461ffff19166101011790555b73ffffffffffffffffffffffffffffffffffffffff8416610d8a5760405162461bcd60e51b815260206004820152602260248201527f6c7a20656e64706f696e742063616e6e6f74206265207a65726f20616464726560448201527f7373000000000000000000000000000000000000000000000000000000000000606482015260840161068f565b610d9384611df9565b60cd805461ffff191661ffff85161790556040517fffffffffffffffffffffffffffffffffffffffff000000000000000000000000606084901b166020820152610df09084906034016040516020818303038152906040526113d6565b4260d0556969e10de76676d080000060ce558015610c3657600080547fffffffffffffffffffffffffffffffffffffffffffffffffffffffffffff00ff16905550505050565b60335473ffffffffffffffffffffffffffffffffffffffff163314610e9d5760405162461bcd60e51b815260206004820181905260248201527f4f776e61626c653a2063616c6c6572206973206e6f7420746865206f776e6572604482015260640161068f565b610ea76000611ee1565b565b60666020526000908152604090208054610ec290612f28565b80601f0160208091040260200160405190810160405280929190818152602001828054610eee90612f28565b8015610f3b5780601f10610f1057610100808354040283529160200191610f3b565b820191906000526020600020905b815481529060010190602001808311610f1e57829003601f168201915b505050505081565b60335473ffffffffffffffffffffffffffffffffffffffff163314610faa5760405162461bcd60e51b815260206004820181905260248201527f4f776e61626c653a2063616c6c6572206973206e6f7420746865206f776e6572604482015260640161068f565b60cd805483151562010000027fffffffffffffffffffffffffffffffffffffffffffffffffffffffffff00ffff82168117909255610ff39161ffff908116911617600183611076565b5050565b60335473ffffffffffffffffffffffffffffffffffffffff16331461105e5760405162461bcd60e51b815260206004820181905260248201527f4f776e61626c653a2063616c6c6572206973206e6f7420746865206f776e6572604482015260640161068f565b60cd805461ffff191661ffff92909216919091179055565b60335473ffffffffffffffffffffffffffffffffffffffff1633146110dd5760405162461bcd60e51b815260206004820181905260248201527f4f776e61626c653a2063616c6c6572206973206e6f7420746865206f776e6572604482015260640161068f565b6000811161112d5760405162461bcd60e51b815260206004820152601c60248201527f4c7a4170703a20696e76616c6964205f647374476173416d6f756e7400000000604482015260640161068f565b61ffff90921660009081526067602090815260408083209383529290522055565b60335473ffffffffffffffffffffffffffffffffffffffff1633146111b55760405162461bcd60e51b815260206004820181905260248201527f4f776e61626c653a2063616c6c6572206973206e6f7420746865206f776e6572604482015260640161068f565b6065546040517fcbed8b9c00000000000000000000000000000000000000000000000000000000815273ffffffffffffffffffffffffffffffffffffffff9091169063cbed8b9c906112139088908890889088908890600401612fd5565b600060405180830381600087803b15801561122d57600080fd5b505af1158015611241573d6000803e3d6000fd5b505050505050505050565b61ffff84166000908152609a6020526040808220905161126d90869061300e565b908152604080516020928190038301902067ffffffffffffffff8616600090815292529020549050806113085760405162461bcd60e51b815260206004820152602360248201527f4e6f6e626c6f636b696e674c7a4170703a206e6f2073746f726564206d65737360448201527f6167650000000000000000000000000000000000000000000000000000000000606482015260840161068f565b8151602083012081146113835760405162461bcd60e51b815260206004820152602160248201527f4e6f6e626c6f636b696e674c7a4170703a20696e76616c6964207061796c6f6160448201527f6400000000000000000000000000000000000000000000000000000000000000606482015260840161068f565b61ffff85166000908152609a602052604080822090516113a490879061300e565b908152604080516020928190038301902067ffffffffffffffff8716600090815292529020556107d28585858561177e565b60335473ffffffffffffffffffffffffffffffffffffffff16331461143d5760405162461bcd60e51b815260206004820181905260248201527f4f776e61626c653a2063616c6c6572206973206e6f7420746865206f776e6572604482015260640161068f565b61ffff821660009081526066602090815260409091208251611461928401906127fd565b507ffa41487ad5d6728f0b19276fa1eddc16558578f5109fc39d2dc33c3230470dab828260405161149392919061302a565b60405180910390a15050565b610bac8733888888888888611a36565b60335473ffffffffffffffffffffffffffffffffffffffff1633146115165760405162461bcd60e51b815260206004820181905260248201527f4f776e61626c653a2063616c6c6572206973206e6f7420746865206f776e6572604482015260640161068f565b73ffffffffffffffffffffffffffffffffffffffff811661159f5760405162461bcd60e51b815260206004820152602660248201527f4f776e61626c653a206e6577206f776e657220697320746865207a65726f206160448201527f6464726573730000000000000000000000000000000000000000000000000000606482015260840161068f565b6115a881611ee1565b50565b6065546040517ff5ecbdbc00000000000000000000000000000000000000000000000000000000815261ffff8087166004830152851660248201523060448201526064810183905260609173ffffffffffffffffffffffffffffffffffffffff169063f5ecbdbc9060840160006040518083038186803b15801561162e57600080fd5b505afa158015611642573d6000803e3d6000fd5b505050506040513d6000823e601f3d908101601f1916820160405261166a9190810190613094565b95945050505050565b6040517f66ad5c8a00000000000000000000000000000000000000000000000000000000815230906366ad5c8a906116b59087908790879087906004016130c9565b600060405180830381600087803b1580156116cf57600080fd5b505af19250505080156116e0575060015b610c36578080519060200120609a60008661ffff1661ffff16815260200190815260200160002084604051611715919061300e565b90815260408051918290036020908101832067ffffffffffffffff87166000908152915220919091557fe6f254030bcb01ffd20558175c13fcaed6d1520be7becee4c961b65f79243b0d906117719086908690869086906130c9565b60405180910390a1610c36565b60cd5461ffff8581169116146117d65760405162461bcd60e51b815260206004820152601660248201527f496e76616c696420736f7572636520636861696e496400000000000000000000604482015260640161068f565b600080600080600080868060200190518101906117f39190613108565b95509550955095509550955061181085631d1d8b6360e01b611f58565b80156118c657508473ffffffffffffffffffffffffffffffffffffffff1663c01e1bd66040518163ffffffff1660e01b8152600401602060405180830381600087803b15801561185f57600080fd5b505af1158015611873573d6000803e3d6000fd5b505050506040513d601f19601f82011682018060405250810190611897919061319c565b73ffffffffffffffffffffffffffffffffffffffff168673ffffffffffffffffffffffffffffffffffffffff16145b156119d8576040517f40c10f1900000000000000000000000000000000000000000000000000000000815273ffffffffffffffffffffffffffffffffffffffff8481166004830152602482018490528616906340c10f1990604401600060405180830381600087803b15801561193b57600080fd5b505af115801561194f573d6000803e3d6000fd5b505050508373ffffffffffffffffffffffffffffffffffffffff168573ffffffffffffffffffffffffffffffffffffffff168773ffffffffffffffffffffffffffffffffffffffff167fb0444523268717a02698be47d0803aa7468c00acbed2f8bd93a0459cde61dd898686866040516119cb939291906131b9565b60405180910390a4611a2a565b60008686858786866040516020016119f5969594939291906131ee565b60408051601f1981840301815260cd54602084019092526000808452909350611a289261ffff9092169184913391611f7d565b505b50505050505050505050565b73ffffffffffffffffffffffffffffffffffffffff8616611a995760405162461bcd60e51b815260206004820152601a60248201527f5f746f2063616e6e6f74206265207a65726f2061646472657373000000000000604482015260640161068f565b60d054611aa99062015180613249565b421015611b20578460cf6000828254611ac29190613249565b909155505060ce5460cf541115611b1b5760405162461bcd60e51b815260206004820152601b60248201527f6d617820616d6f756e7420706572206461792065786365656465640000000000604482015260640161068f565b611b7c565b60cf85905560ce54851115611b775760405162461bcd60e51b815260206004820152601b60248201527f6d617820616d6f756e7420706572206461792065786365656465640000000000604482015260640161068f565b4260d0555b6040517f9dc29fac0000000000000000000000000000000000000000000000000000000081523360048201526024810186905273ffffffffffffffffffffffffffffffffffffffff891690639dc29fac90604401600060405180830381600087803b158015611bea57600080fd5b505af1158015611bfe573d6000803e3d6000fd5b5050505060008873ffffffffffffffffffffffffffffffffffffffff1663c01e1bd66040518163ffffffff1660e01b8152600401602060405180830381600087803b158015611c4c57600080fd5b505af1158015611c60573d6000803e3d6000fd5b505050506040513d601f19601f82011682018060405250810190611c84919061319c565b90506000818a8a8a8a8888604051602001611ca59796959493929190613288565b60408051808303601f1901815291905260cd5490915062010000900460ff1615611ce35760cd54611cde9061ffff166001876000612122565b611d57565b845115611d575760405162461bcd60e51b8152602060048201526024808201527f4c7a4170703a205f61646170746572506172616d73206d75737420626520656d60448201527f7074792e00000000000000000000000000000000000000000000000000000000606482015260840161068f565b60cd54611d6b9061ffff1682338989611f7d565b3373ffffffffffffffffffffffffffffffffffffffff168a73ffffffffffffffffffffffffffffffffffffffff168373ffffffffffffffffffffffffffffffffffffffff167f73d170910aba9e6d50b102db522b1dbcd796216f5128b445aa2135272886497e8b8b8989604051611de594939291906132e5565b60405180910390a450505050505050505050565b600054610100900460ff1680611e12575060005460ff16155b611e845760405162461bcd60e51b815260206004820152602e60248201527f496e697469616c697a61626c653a20636f6e747261637420697320616c72656160448201527f647920696e697469616c697a6564000000000000000000000000000000000000606482015260840161068f565b600054610100900460ff16158015611ea6576000805461ffff19166101011790555b611eaf826121ff565b8015610ff357600080547fffffffffffffffffffffffffffffffffffffffffffffffffffffffffffff00ff1690555050565b6033805473ffffffffffffffffffffffffffffffffffffffff8381167fffffffffffffffffffffffff0000000000000000000000000000000000000000831681179093556040519116919082907f8be0079c531659141344cd1fd0a4f28419497f9722a3daafe3b4186f6b6457e090600090a35050565b6000611f63836122bd565b8015611f745750611f748383612321565b90505b92915050565b61ffff851660009081526066602052604081208054611f9b90612f28565b80601f0160208091040260200160405190810160405280929190818152602001828054611fc790612f28565b80156120145780601f10611fe957610100808354040283529160200191612014565b820191906000526020600020905b815481529060010190602001808311611ff757829003601f168201915b505050505090508051600014156120935760405162461bcd60e51b815260206004820152603060248201527f4c7a4170703a2064657374696e6174696f6e20636861696e206973206e6f742060448201527f61207472757374656420736f7572636500000000000000000000000000000000606482015260840161068f565b6065546040517fc580310000000000000000000000000000000000000000000000000000000000815273ffffffffffffffffffffffffffffffffffffffff9091169063c58031009034906120f5908a9086908b908b908b908b9060040161331b565b6000604051808303818588803b15801561210e57600080fd5b505af1158015611a28573d6000803e3d6000fd5b600061212f836022015190565b61ffff861660009081526067602090815260408083208884529091528120549192509061215d908490613249565b9050600081116121af5760405162461bcd60e51b815260206004820152601a60248201527f4c7a4170703a206d696e4761734c696d6974206e6f7420736574000000000000604482015260640161068f565b80821015610c4c5760405162461bcd60e51b815260206004820152601b60248201527f4c7a4170703a20676173206c696d697420697320746f6f206c6f770000000000604482015260640161068f565b600054610100900460ff1680612218575060005460ff16155b61228a5760405162461bcd60e51b815260206004820152602e60248201527f496e697469616c697a61626c653a20636f6e747261637420697320616c72656160448201527f647920696e697469616c697a6564000000000000000000000000000000000000606482015260840161068f565b600054610100900460ff161580156122ac576000805461ffff19166101011790555b6122b461245d565b611eaf8261254b565b60006122e9827f01ffc9a700000000000000000000000000000000000000000000000000000000612321565b8015611f77575061231a827fffffffff00000000000000000000000000000000000000000000000000000000612321565b1592915050565b604080517fffffffff00000000000000000000000000000000000000000000000000000000831660248083019190915282518083039091018152604490910182526020810180517bffffffffffffffffffffffffffffffffffffffffffffffffffffffff167f01ffc9a7000000000000000000000000000000000000000000000000000000001790529051600091908290819073ffffffffffffffffffffffffffffffffffffffff871690617530906123db90869061300e565b6000604051808303818686fa925050503d8060008114612417576040519150601f19603f3d011682016040523d82523d6000602084013e61241c565b606091505b50915091506020815110156124375760009350505050611f77565b8180156124535750808060200190518101906124539190613382565b9695505050505050565b600054610100900460ff1680612476575060005460ff16155b6124e85760405162461bcd60e51b815260206004820152602e60248201527f496e697469616c697a61626c653a20636f6e747261637420697320616c72656160448201527f647920696e697469616c697a6564000000000000000000000000000000000000606482015260840161068f565b600054610100900460ff1615801561250a576000805461ffff19166101011790555b61251261266a565b61251a612747565b80156115a857600080547fffffffffffffffffffffffffffffffffffffffffffffffffffffffffffff00ff16905550565b600054610100900460ff1680612564575060005460ff16155b6125d65760405162461bcd60e51b815260206004820152602e60248201527f496e697469616c697a61626c653a20636f6e747261637420697320616c72656160448201527f647920696e697469616c697a6564000000000000000000000000000000000000606482015260840161068f565b600054610100900460ff161580156125f8576000805461ffff19166101011790555b606580547fffffffffffffffffffffffff00000000000000000000000000000000000000001673ffffffffffffffffffffffffffffffffffffffff84161790558015610ff357600080547fffffffffffffffffffffffffffffffffffffffffffffffffffffffffffff00ff1690555050565b600054610100900460ff1680612683575060005460ff16155b6126f55760405162461bcd60e51b815260206004820152602e60248201527f496e697469616c697a61626c653a20636f6e747261637420697320616c72656160448201527f647920696e697469616c697a6564000000000000000000000000000000000000606482015260840161068f565b600054610100900460ff1615801561251a576000805461ffff191661010117905580156115a857600080547fffffffffffffffffffffffffffffffffffffffffffffffffffffffffffff00ff16905550565b600054610100900460ff1680612760575060005460ff16155b6127d25760405162461bcd60e51b815260206004820152602e60248201527f496e697469616c697a61626c653a20636f6e747261637420697320616c72656160448201527f647920696e697469616c697a6564000000000000000000000000000000000000606482015260840161068f565b600054610100900460ff161580156127f4576000805461ffff19166101011790555b61251a33611ee1565b82805461280990612f28565b90600052602060002090601f01602090048101928261282b5760008555612871565b82601f1061284457805160ff1916838001178555612871565b82800160010185558215612871579182015b82811115612871578251825591602001919060010190612856565b5061287d929150612881565b5090565b5b8082111561287d5760008155600101612882565b803561ffff811681146128a857600080fd5b919050565b7f4e487b7100000000000000000000000000000000000000000000000000000000600052604160045260246000fd5b604051601f8201601f1916810167ffffffffffffffff81118282101715612905576129056128ad565b604052919050565b600067ffffffffffffffff821115612927576129276128ad565b50601f01601f191660200190565b600082601f83011261294657600080fd5b81356129596129548261290d565b6128dc565b81815284602083860101111561296e57600080fd5b816020850160208301376000918101602001919091529392505050565b803567ffffffffffffffff811681146128a857600080fd5b600080600080608085870312156129b957600080fd5b6129c285612896565b9350602085013567ffffffffffffffff808211156129df57600080fd5b6129eb88838901612935565b94506129f96040880161298b565b93506060870135915080821115612a0f57600080fd5b50612a1c87828801612935565b91505092959194509250565b60008060408385031215612a3b57600080fd5b612a4483612896565b946020939093013593505050565b600060208284031215612a6457600080fd5b611f7482612896565b600060208284031215612a7f57600080fd5b5035919050565b60008083601f840112612a9857600080fd5b50813567ffffffffffffffff811115612ab057600080fd5b602083019150836020828501011115612ac857600080fd5b9250929050565b600080600060408486031215612ae457600080fd5b612aed84612896565b9250602084013567ffffffffffffffff811115612b0957600080fd5b612b1586828701612a86565b9497909650939450505050565b600080600060608486031215612b3757600080fd5b612b4084612896565b9250602084013567ffffffffffffffff811115612b5c57600080fd5b612b6886828701612935565b925050612b776040850161298b565b90509250925092565b73ffffffffffffffffffffffffffffffffffffffff811681146115a857600080fd5b60008060008060008060a08789031215612bbb57600080fd5b8635612bc681612b80565b9550602087013594506040870135612bdd81612b80565b9350606087013567ffffffffffffffff80821115612bfa57600080fd5b612c068a838b01612935565b94506080890135915080821115612c1c57600080fd5b50612c2989828a01612a86565b979a9699509497509295939492505050565b600080600060608486031215612c5057600080fd5b8335612c5b81612b80565b9250612c6960208501612896565b91506040840135612c7981612b80565b809150509250925092565b60005b83811015612c9f578181015183820152602001612c87565b83811115610c365750506000910152565b60008151808452612cc8816020860160208601612c84565b601f01601f19169290920160200192915050565b602081526000611f746020830184612cb0565b80151581146115a857600080fd5b60008060408385031215612d1057600080fd5b8235612a4481612cef565b600080600060608486031215612d3057600080fd5b612d3984612896565b95602085013595506040909401359392505050565b600080600080600060808688031215612d6657600080fd5b612d6f86612896565b9450612d7d60208701612896565b935060408601359250606086013567ffffffffffffffff811115612da057600080fd5b612dac88828901612a86565b969995985093965092949392505050565b60008060408385031215612dd057600080fd5b612dd983612896565b9150602083013567ffffffffffffffff811115612df557600080fd5b612e0185828601612935565b9150509250929050565b600080600080600080600060c0888a031215612e2657600080fd5b8735612e3181612b80565b96506020880135612e4181612b80565b9550604088013594506060880135612e5881612b80565b9350608088013567ffffffffffffffff80821115612e7557600080fd5b612e818b838c01612935565b945060a08a0135915080821115612e9757600080fd5b50612ea48a828b01612a86565b989b979a50959850939692959293505050565b600060208284031215612ec957600080fd5b8135612ed481612b80565b9392505050565b60008060008060808587031215612ef157600080fd5b612efa85612896565b9350612f0860208601612896565b92506040850135612f1881612b80565b9396929550929360600135925050565b600181811c90821680612f3c57607f821691505b60208210811415612f76577f4e487b7100000000000000000000000000000000000000000000000000000000600052602260045260246000fd5b50919050565b8183823760009101908152919050565b818352818160208501375060006020828401015260006020601f19601f840116840101905092915050565b61ffff8416815260406020820152600061166a604083018486612f8c565b600061ffff808816835280871660208401525084604083015260806060830152613003608083018486612f8c565b979650505050505050565b60008251613020818460208701612c84565b9190910192915050565b61ffff831681526040602082015260006130476040830184612cb0565b949350505050565b600082601f83011261306057600080fd5b815161306e6129548261290d565b81815284602083860101111561308357600080fd5b613047826020830160208701612c84565b6000602082840312156130a657600080fd5b815167ffffffffffffffff8111156130bd57600080fd5b6130478482850161304f565b61ffff851681526080602082015260006130e66080830186612cb0565b67ffffffffffffffff8516604084015282810360608401526130038185612cb0565b60008060008060008060c0878903121561312157600080fd5b865161312c81612b80565b602088015190965061313d81612b80565b604088015190955061314e81612b80565b606088015190945061315f81612b80565b608088015160a0890151919450925067ffffffffffffffff81111561318357600080fd5b61318f89828a0161304f565b9150509295509295509295565b6000602082840312156131ae57600080fd5b8151612ed481612b80565b73ffffffffffffffffffffffffffffffffffffffff8416815282602082015260606040820152600061166a6060830184612cb0565b600073ffffffffffffffffffffffffffffffffffffffff80891683528088166020840152808716604084015280861660608401525083608083015260c060a083015261323d60c0830184612cb0565b98975050505050505050565b60008219821115613283577f4e487b7100000000000000000000000000000000000000000000000000000000600052601160045260246000fd5b500190565b600073ffffffffffffffffffffffffffffffffffffffff808a1683528089166020840152808816604084015280871660608401525084608083015260c060a08301526132d860c083018486612f8c565b9998505050505050505050565b73ffffffffffffffffffffffffffffffffffffffff85168152836020820152606060408201526000612453606083018486612f8c565b61ffff8716815260c06020820152600061333860c0830188612cb0565b828103604084015261334a8188612cb0565b73ffffffffffffffffffffffffffffffffffffffff87811660608601528616608085015283810360a085015290506132d88185612cb0565b60006020828403121561339457600080fd5b8151612ed481612cef56fea164736f6c6343000809000a",
  "linkReferences": {},
  "deployedLinkReferences": {}
}