{
  "_format": "hh-sol-artifact-1",
  "contractName": "EthBridge",
  "sourceName": "contracts/lzTokenBridge/EthBridge.sol",
  "abi": [
    {
      "anonymous": false,
      "inputs": [
        {
          "indexed": true,
          "internalType": "address",
          "name": "_l1Token",
          "type": "address"
        },
        {
          "indexed": true,
          "internalType": "address",
          "name": "_l2Token",
          "type": "address"
        },
        {
          "indexed": true,
          "internalType": "address",
          "name": "_from",
          "type": "address"
        },
        {
          "indexed": false,
          "internalType": "address",
          "name": "_to",
          "type": "address"
        },
        {
          "indexed": false,
          "internalType": "uint256",
          "name": "_amount",
          "type": "uint256"
        },
        {
          "indexed": false,
          "internalType": "bytes",
          "name": "_data",
          "type": "bytes"
        }
      ],
      "name": "ERC20DepositInitiated",
      "type": "event"
    },
    {
      "anonymous": false,
      "inputs": [
        {
          "indexed": true,
          "internalType": "address",
          "name": "_l1Token",
          "type": "address"
        },
        {
          "indexed": true,
          "internalType": "address",
          "name": "_l2Token",
          "type": "address"
        },
        {
          "indexed": true,
          "internalType": "address",
          "name": "_from",
          "type": "address"
        },
        {
          "indexed": false,
          "internalType": "address",
          "name": "_to",
          "type": "address"
        },
        {
          "indexed": false,
          "internalType": "uint256",
          "name": "_amount",
          "type": "uint256"
        },
        {
          "indexed": false,
          "internalType": "bytes",
          "name": "_data",
          "type": "bytes"
        }
      ],
      "name": "ERC20WithdrawalFinalized",
      "type": "event"
    },
    {
      "anonymous": false,
      "inputs": [
        {
          "indexed": false,
          "internalType": "uint16",
          "name": "_srcChainId",
          "type": "uint16"
        },
        {
          "indexed": false,
          "internalType": "bytes",
          "name": "_srcAddress",
          "type": "bytes"
        },
        {
          "indexed": false,
          "internalType": "uint64",
          "name": "_nonce",
          "type": "uint64"
        },
        {
          "indexed": false,
          "internalType": "bytes",
          "name": "_payload",
          "type": "bytes"
        }
      ],
      "name": "MessageFailed",
      "type": "event"
    },
    {
      "anonymous": false,
      "inputs": [
        {
          "indexed": true,
          "internalType": "address",
          "name": "previousOwner",
          "type": "address"
        },
        {
          "indexed": true,
          "internalType": "address",
          "name": "newOwner",
          "type": "address"
        }
      ],
      "name": "OwnershipTransferred",
      "type": "event"
    },
    {
      "anonymous": false,
      "inputs": [
        {
          "indexed": false,
          "internalType": "uint16",
          "name": "_srcChainId",
          "type": "uint16"
        },
        {
          "indexed": false,
          "internalType": "bytes",
          "name": "_srcAddress",
          "type": "bytes"
        }
      ],
      "name": "SetTrustedRemote",
      "type": "event"
    },
    {
      "inputs": [],
      "name": "FUNCTION_TYPE_SEND",
      "outputs": [
        {
          "internalType": "uint256",
          "name": "",
          "type": "uint256"
        }
      ],
      "stateMutability": "view",
      "type": "function"
    },
    {
      "inputs": [],
      "name": "NO_EXTRA_GAS",
      "outputs": [
        {
          "internalType": "uint256",
          "name": "",
          "type": "uint256"
        }
      ],
      "stateMutability": "view",
      "type": "function"
    },
    {
      "inputs": [
        {
          "internalType": "address",
          "name": "_l1Token",
          "type": "address"
        },
        {
          "internalType": "address",
          "name": "_l2Token",
          "type": "address"
        },
        {
          "internalType": "uint256",
          "name": "_amount",
          "type": "uint256"
        },
        {
          "internalType": "address",
          "name": "_zroPaymentAddress",
          "type": "address"
        },
        {
          "internalType": "bytes",
          "name": "_adapterParams",
          "type": "bytes"
        },
        {
          "internalType": "bytes",
          "name": "_data",
          "type": "bytes"
        }
      ],
      "name": "depositERC20",
      "outputs": [],
      "stateMutability": "payable",
      "type": "function"
    },
    {
      "inputs": [
        {
          "internalType": "address",
          "name": "_l1Token",
          "type": "address"
        },
        {
          "internalType": "address",
          "name": "_l2Token",
          "type": "address"
        },
        {
          "internalType": "address",
          "name": "_to",
          "type": "address"
        },
        {
          "internalType": "uint256",
          "name": "_amount",
          "type": "uint256"
        },
        {
          "internalType": "address",
          "name": "_zroPaymentAddress",
          "type": "address"
        },
        {
          "internalType": "bytes",
          "name": "_adapterParams",
          "type": "bytes"
        },
        {
          "internalType": "bytes",
          "name": "_data",
          "type": "bytes"
        }
      ],
      "name": "depositERC20To",
      "outputs": [],
      "stateMutability": "payable",
      "type": "function"
    },
    {
      "inputs": [
        {
          "internalType": "address",
          "name": "",
          "type": "address"
        },
        {
          "internalType": "address",
          "name": "",
          "type": "address"
        }
      ],
      "name": "deposits",
      "outputs": [
        {
          "internalType": "uint256",
          "name": "",
          "type": "uint256"
        }
      ],
      "stateMutability": "view",
      "type": "function"
    },
    {
      "inputs": [],
      "name": "dstChainId",
      "outputs": [
        {
          "internalType": "uint16",
          "name": "",
          "type": "uint16"
        }
      ],
      "stateMutability": "view",
      "type": "function"
    },
    {
      "inputs": [
        {
          "internalType": "uint16",
          "name": "",
          "type": "uint16"
        },
        {
          "internalType": "bytes",
          "name": "",
          "type": "bytes"
        },
        {
          "internalType": "uint64",
          "name": "",
          "type": "uint64"
        }
      ],
      "name": "failedMessages",
      "outputs": [
        {
          "internalType": "bytes32",
          "name": "",
          "type": "bytes32"
        }
      ],
      "stateMutability": "view",
      "type": "function"
    },
    {
      "inputs": [
        {
          "internalType": "uint16",
          "name": "_srcChainId",
          "type": "uint16"
        },
        {
          "internalType": "bytes",
          "name": "_srcAddress",
          "type": "bytes"
        }
      ],
      "name": "forceResumeReceive",
      "outputs": [],
      "stateMutability": "nonpayable",
      "type": "function"
    },
    {
      "inputs": [
        {
          "internalType": "uint16",
          "name": "_version",
          "type": "uint16"
        },
        {
          "internalType": "uint16",
          "name": "_chainId",
          "type": "uint16"
        },
        {
          "internalType": "address",
          "name": "",
          "type": "address"
        },
        {
          "internalType": "uint256",
          "name": "_configType",
          "type": "uint256"
        }
      ],
      "name": "getConfig",
      "outputs": [
        {
          "internalType": "bytes",
          "name": "",
          "type": "bytes"
        }
      ],
      "stateMutability": "view",
      "type": "function"
    },
    {
      "inputs": [
        {
          "internalType": "address",
          "name": "_lzEndpoint",
          "type": "address"
        },
        {
          "internalType": "uint16",
          "name": "_dstChainId",
          "type": "uint16"
        },
        {
          "internalType": "address",
          "name": "_altL1BridgeAddress",
          "type": "address"
        }
      ],
      "name": "initialize",
      "outputs": [],
      "stateMutability": "nonpayable",
      "type": "function"
    },
    {
      "inputs": [
        {
          "internalType": "uint16",
          "name": "_srcChainId",
          "type": "uint16"
        },
        {
          "internalType": "bytes",
          "name": "_srcAddress",
          "type": "bytes"
        }
      ],
      "name": "isTrustedRemote",
      "outputs": [
        {
          "internalType": "bool",
          "name": "",
          "type": "bool"
        }
      ],
      "stateMutability": "view",
      "type": "function"
    },
    {
      "inputs": [],
      "name": "lzEndpoint",
      "outputs": [
        {
          "internalType": "contract ILayerZeroEndpoint",
          "name": "",
          "type": "address"
        }
      ],
      "stateMutability": "view",
      "type": "function"
    },
    {
      "inputs": [
        {
          "internalType": "uint16",
          "name": "_srcChainId",
          "type": "uint16"
        },
        {
          "internalType": "bytes",
          "name": "_srcAddress",
          "type": "bytes"
        },
        {
          "internalType": "uint64",
          "name": "_nonce",
          "type": "uint64"
        },
        {
          "internalType": "bytes",
          "name": "_payload",
          "type": "bytes"
        }
      ],
      "name": "lzReceive",
      "outputs": [],
      "stateMutability": "nonpayable",
      "type": "function"
    },
    {
      "inputs": [],
      "name": "maxTransferAmountPerDay",
      "outputs": [
        {
          "internalType": "uint256",
          "name": "",
          "type": "uint256"
        }
      ],
      "stateMutability": "view",
      "type": "function"
    },
    {
      "inputs": [
        {
          "internalType": "uint16",
          "name": "",
          "type": "uint16"
        },
        {
          "internalType": "uint256",
          "name": "",
          "type": "uint256"
        }
      ],
      "name": "minDstGasLookup",
      "outputs": [
        {
          "internalType": "uint256",
          "name": "",
          "type": "uint256"
        }
      ],
      "stateMutability": "view",
      "type": "function"
    },
    {
      "inputs": [
        {
          "internalType": "uint16",
          "name": "_srcChainId",
          "type": "uint16"
        },
        {
          "internalType": "bytes",
          "name": "_srcAddress",
          "type": "bytes"
        },
        {
          "internalType": "uint64",
          "name": "_nonce",
          "type": "uint64"
        },
        {
          "internalType": "bytes",
          "name": "_payload",
          "type": "bytes"
        }
      ],
      "name": "nonblockingLzReceive",
      "outputs": [],
      "stateMutability": "nonpayable",
      "type": "function"
    },
    {
      "inputs": [],
      "name": "owner",
      "outputs": [
        {
          "internalType": "address",
          "name": "",
          "type": "address"
        }
      ],
      "stateMutability": "view",
      "type": "function"
    },
    {
      "inputs": [],
      "name": "renounceOwnership",
      "outputs": [],
      "stateMutability": "nonpayable",
      "type": "function"
    },
    {
      "inputs": [
        {
          "internalType": "uint16",
          "name": "_srcChainId",
          "type": "uint16"
        },
        {
          "internalType": "bytes",
          "name": "_srcAddress",
          "type": "bytes"
        },
        {
          "internalType": "uint64",
          "name": "_nonce",
          "type": "uint64"
        },
        {
          "internalType": "bytes",
          "name": "_payload",
          "type": "bytes"
        }
      ],
      "name": "retryMessage",
      "outputs": [],
      "stateMutability": "payable",
      "type": "function"
    },
    {
      "inputs": [
        {
          "internalType": "uint16",
          "name": "_version",
          "type": "uint16"
        },
        {
          "internalType": "uint16",
          "name": "_chainId",
          "type": "uint16"
        },
        {
          "internalType": "uint256",
          "name": "_configType",
          "type": "uint256"
        },
        {
          "internalType": "bytes",
          "name": "_config",
          "type": "bytes"
        }
      ],
      "name": "setConfig",
      "outputs": [],
      "stateMutability": "nonpayable",
      "type": "function"
    },
    {
      "inputs": [
        {
          "internalType": "uint16",
          "name": "_dstChainId",
          "type": "uint16"
        }
      ],
      "name": "setDstChainId",
      "outputs": [],
      "stateMutability": "nonpayable",
      "type": "function"
    },
    {
      "inputs": [
        {
          "internalType": "uint256",
          "name": "_maxTransferAmountPerDay",
          "type": "uint256"
        }
      ],
      "name": "setMaxTransferAmountPerDay",
      "outputs": [],
      "stateMutability": "nonpayable",
      "type": "function"
    },
    {
      "inputs": [
        {
          "internalType": "uint16",
          "name": "_dstChainId",
          "type": "uint16"
        },
        {
          "internalType": "uint256",
          "name": "_type",
          "type": "uint256"
        },
        {
          "internalType": "uint256",
          "name": "_dstGasAmount",
          "type": "uint256"
        }
      ],
      "name": "setMinDstGasLookup",
      "outputs": [],
      "stateMutability": "nonpayable",
      "type": "function"
    },
    {
      "inputs": [
        {
          "internalType": "uint16",
          "name": "_version",
          "type": "uint16"
        }
      ],
      "name": "setReceiveVersion",
      "outputs": [],
      "stateMutability": "nonpayable",
      "type": "function"
    },
    {
      "inputs": [
        {
          "internalType": "uint16",
          "name": "_version",
          "type": "uint16"
        }
      ],
      "name": "setSendVersion",
      "outputs": [],
      "stateMutability": "nonpayable",
      "type": "function"
    },
    {
      "inputs": [
        {
          "internalType": "uint16",
          "name": "_srcChainId",
          "type": "uint16"
        },
        {
          "internalType": "bytes",
          "name": "_srcAddress",
          "type": "bytes"
        }
      ],
      "name": "setTrustedRemote",
      "outputs": [],
      "stateMutability": "nonpayable",
      "type": "function"
    },
    {
      "inputs": [
        {
          "internalType": "bool",
          "name": "_useCustomAdapterParams",
          "type": "bool"
        },
        {
          "internalType": "uint256",
          "name": "_dstGasAmount",
          "type": "uint256"
        }
      ],
      "name": "setUseCustomAdapterParams",
      "outputs": [],
      "stateMutability": "nonpayable",
      "type": "function"
    },
    {
      "inputs": [
        {
          "internalType": "address",
          "name": "newOwner",
          "type": "address"
        }
      ],
      "name": "transferOwnership",
      "outputs": [],
      "stateMutability": "nonpayable",
      "type": "function"
    },
    {
      "inputs": [],
      "name": "transferTimestampCheckPoint",
      "outputs": [
        {
          "internalType": "uint256",
          "name": "",
          "type": "uint256"
        }
      ],
      "stateMutability": "view",
      "type": "function"
    },
    {
      "inputs": [],
      "name": "transferredAmount",
      "outputs": [
        {
          "internalType": "uint256",
          "name": "",
          "type": "uint256"
        }
      ],
      "stateMutability": "view",
      "type": "function"
    },
    {
      "inputs": [
        {
          "internalType": "uint16",
          "name": "",
          "type": "uint16"
        }
      ],
      "name": "trustedRemoteLookup",
      "outputs": [
        {
          "internalType": "bytes",
          "name": "",
          "type": "bytes"
        }
      ],
      "stateMutability": "view",
      "type": "function"
    },
    {
      "inputs": [],
      "name": "useCustomAdapterParams",
      "outputs": [
        {
          "internalType": "bool",
          "name": "",
          "type": "bool"
        }
      ],
      "stateMutability": "view",
      "type": "function"
    }
  ],
  "bytecode": "0x608060405234801561001057600080fd5b5061321b806100206000396000f3fe6080604052600436106101e25760003560e01c80637533d78811610102578063b353aaa711610095578063eb8d72b711610064578063eb8d72b7146105b2578063ed629c5c146105d2578063f2fde38b146105f2578063f5ecbdbc1461061257600080fd5b8063b353aaa714610549578063c8ed191014610569578063cbed8b9c1461057f578063d1deba1f1461059f57600080fd5b8063901eec16116100d1578063901eec16146104de5780639733ed04146104f45780639b57db5f14610514578063af3fb21c1461053457600080fd5b80637533d788146104275780637e0ced09146104545780638da5cb5b146104745780638f601f66146104a657600080fd5b806342d65a8d1161017a57806365f771891161014957806365f77189146103bf57806366ad5c8a146103d2578063708c0db9146103f2578063715018a61461041257600080fd5b806342d65a8d146103255780634477051514610345578063512afd891461035a5780635b8c41e61461037057600080fd5b806310ddb137116101b657806310ddb1371461028757806330c593f7146102a75780633496a68e146102d55780633d8b38f6146102f557600080fd5b80621d3567146101e7578063078108671461020957806307e0db17146102545780630d265fdb14610274575b600080fd5b3480156101f357600080fd5b5061020761020236600461285e565b610632565b005b34801561021557600080fd5b506102416102243660046128e3565b606760209081526000928352604080842090915290825290205481565b6040519081526020015b60405180910390f35b34801561026057600080fd5b5061020761026f36600461290d565b6107db565b610207610282366004612986565b6108ac565b34801561029357600080fd5b506102076102a236600461290d565b610915565b3480156102b357600080fd5b5060cd546102c29061ffff1681565b60405161ffff909116815260200161024b565b3480156102e157600080fd5b506102076102f0366004612a32565b6109bc565b34801561030157600080fd5b50610315610310366004612a4b565b610a1b565b604051901515815260200161024b565b34801561033157600080fd5b50610207610340366004612a4b565b610ae8565b34801561035157600080fd5b50610241600081565b34801561036657600080fd5b5061024160ce5481565b34801561037c57600080fd5b5061024161038b366004612a9e565b609a602090815260009384526040808520845180860184018051928152908401958401959095209452929052825290205481565b6102076103cd366004612afc565b610bbd565b3480156103de57600080fd5b506102076103ed36600461285e565b610bd8565b3480156103fe57600080fd5b5061020761040d366004612bba565b610c5f565b34801561041e57600080fd5b50610207610e34565b34801561043357600080fd5b5061044761044236600461290d565b610e9a565b60405161024b9190612c5b565b34801561046057600080fd5b5061020761046f366004612c7c565b610f34565b34801561048057600080fd5b506033546001600160a01b03165b6040516001600160a01b03909116815260200161024b565b3480156104b257600080fd5b506102416104c1366004612c9a565b60d160209081526000928352604080842090915290825290205481565b3480156104ea57600080fd5b5061024160d05481565b34801561050057600080fd5b5061020761050f36600461290d565b610fdb565b34801561052057600080fd5b5061020761052f366004612cd3565b61104d565b34801561054057600080fd5b50610241600181565b34801561055557600080fd5b5060655461048e906001600160a01b031681565b34801561057557600080fd5b5061024160cf5481565b34801561058b57600080fd5b5061020761059a366004612d06565b611118565b6102076105ad36600461285e565b6111fc565b3480156105be57600080fd5b506102076105cd366004612d75565b611386565b3480156105de57600080fd5b5060cd546103159062010000900460ff1681565b3480156105fe57600080fd5b5061020761060d366004612dc3565b611442565b34801561061e57600080fd5b5061044761062d366004612de0565b611524565b6065546001600160a01b0316336001600160a01b03161461069a5760405162461bcd60e51b815260206004820152601e60248201527f4c7a4170703a20696e76616c696420656e64706f696e742063616c6c6572000060448201526064015b60405180910390fd5b61ffff8416600090815260666020526040812080546106b890612e2d565b80601f01602080910402602001604051908101604052809291908181526020018280546106e490612e2d565b80156107315780601f1061070657610100808354040283529160200191610731565b820191906000526020600020905b81548152906001019060200180831161071457829003601f168201915b5050505050905080518451148015610756575080805190602001208480519060200120145b6107c85760405162461bcd60e51b815260206004820152602660248201527f4c7a4170703a20696e76616c696420736f757263652073656e64696e6720636f60448201527f6e747261637400000000000000000000000000000000000000000000000000006064820152608401610691565b6107d4858585856115df565b5050505050565b6033546001600160a01b031633146108355760405162461bcd60e51b815260206004820181905260248201527f4f776e61626c653a2063616c6c6572206973206e6f7420746865206f776e65726044820152606401610691565b6065546040517f07e0db1700000000000000000000000000000000000000000000000000000000815261ffff831660048201526001600160a01b03909116906307e0db17906024015b600060405180830381600087803b15801561089857600080fd5b505af11580156107d4573d6000803e3d6000fd5b333b156108fb5760405162461bcd60e51b815260206004820152600f60248201527f4163636f756e74206e6f7420454f4100000000000000000000000000000000006044820152606401610691565b61090c8787333389898989896116ea565b50505050505050565b6033546001600160a01b0316331461096f5760405162461bcd60e51b815260206004820181905260248201527f4f776e61626c653a2063616c6c6572206973206e6f7420746865206f776e65726044820152606401610691565b6065546040517f10ddb13700000000000000000000000000000000000000000000000000000000815261ffff831660048201526001600160a01b03909116906310ddb1379060240161087e565b6033546001600160a01b03163314610a165760405162461bcd60e51b815260206004820181905260248201527f4f776e61626c653a2063616c6c6572206973206e6f7420746865206f776e65726044820152606401610691565b60ce55565b61ffff831660009081526066602052604081208054829190610a3c90612e2d565b80601f0160208091040260200160405190810160405280929190818152602001828054610a6890612e2d565b8015610ab55780601f10610a8a57610100808354040283529160200191610ab5565b820191906000526020600020905b815481529060010190602001808311610a9857829003601f168201915b505050505090508383604051610acc929190612e81565b60405180910390208180519060200120149150505b9392505050565b6033546001600160a01b03163314610b425760405162461bcd60e51b815260206004820181905260248201527f4f776e61626c653a2063616c6c6572206973206e6f7420746865206f776e65726044820152606401610691565b6065546040517f42d65a8d0000000000000000000000000000000000000000000000000000000081526001600160a01b03909116906342d65a8d90610b8f90869086908690600401612ebc565b600060405180830381600087803b158015610ba957600080fd5b505af115801561090c573d6000803e3d6000fd5b610bce8888338989898989896116ea565b5050505050505050565b333014610c4d5760405162461bcd60e51b815260206004820152602660248201527f4e6f6e626c6f636b696e674c7a4170703a2063616c6c6572206d75737420626560448201527f204c7a41707000000000000000000000000000000000000000000000000000006064820152608401610691565b610c59848484846119db565b50505050565b600054610100900460ff1680610c78575060005460ff16155b610cea5760405162461bcd60e51b815260206004820152602e60248201527f496e697469616c697a61626c653a20636f6e747261637420697320616c72656160448201527f647920696e697469616c697a65640000000000000000000000000000000000006064820152608401610691565b600054610100900460ff16158015610d0c576000805461ffff19166101011790555b6001600160a01b038416610d885760405162461bcd60e51b815260206004820152602260248201527f6c7a20656e64706f696e742063616e6e6f74206265207a65726f20616464726560448201527f73730000000000000000000000000000000000000000000000000000000000006064820152608401610691565b610d9184611b18565b60cd805461ffff191661ffff85161790556040517fffffffffffffffffffffffffffffffffffffffff000000000000000000000000606084901b166020820152610dee908490603401604051602081830303815290604052611386565b4260d0556969e10de76676d080000060ce558015610c5957600080547fffffffffffffffffffffffffffffffffffffffffffffffffffffffffffff00ff16905550505050565b6033546001600160a01b03163314610e8e5760405162461bcd60e51b815260206004820181905260248201527f4f776e61626c653a2063616c6c6572206973206e6f7420746865206f776e65726044820152606401610691565b610e986000611c00565b565b60666020526000908152604090208054610eb390612e2d565b80601f0160208091040260200160405190810160405280929190818152602001828054610edf90612e2d565b8015610f2c5780601f10610f0157610100808354040283529160200191610f2c565b820191906000526020600020905b815481529060010190602001808311610f0f57829003601f168201915b505050505081565b6033546001600160a01b03163314610f8e5760405162461bcd60e51b815260206004820181905260248201527f4f776e61626c653a2063616c6c6572206973206e6f7420746865206f776e65726044820152606401610691565b60cd805483151562010000027fffffffffffffffffffffffffffffffffffffffffffffffffffffffffff00ffff82168117909255610fd79161ffff90811691161760018361104d565b5050565b6033546001600160a01b031633146110355760405162461bcd60e51b815260206004820181905260248201527f4f776e61626c653a2063616c6c6572206973206e6f7420746865206f776e65726044820152606401610691565b60cd805461ffff191661ffff92909216919091179055565b6033546001600160a01b031633146110a75760405162461bcd60e51b815260206004820181905260248201527f4f776e61626c653a2063616c6c6572206973206e6f7420746865206f776e65726044820152606401610691565b600081116110f75760405162461bcd60e51b815260206004820152601c60248201527f4c7a4170703a20696e76616c6964205f647374476173416d6f756e74000000006044820152606401610691565b61ffff90921660009081526067602090815260408083209383529290522055565b6033546001600160a01b031633146111725760405162461bcd60e51b815260206004820181905260248201527f4f776e61626c653a2063616c6c6572206973206e6f7420746865206f776e65726044820152606401610691565b6065546040517fcbed8b9c0000000000000000000000000000000000000000000000000000000081526001600160a01b039091169063cbed8b9c906111c39088908890889088908890600401612eda565b600060405180830381600087803b1580156111dd57600080fd5b505af11580156111f1573d6000803e3d6000fd5b505050505050505050565b61ffff84166000908152609a6020526040808220905161121d908690612f08565b908152604080516020928190038301902067ffffffffffffffff8616600090815292529020549050806112b85760405162461bcd60e51b815260206004820152602360248201527f4e6f6e626c6f636b696e674c7a4170703a206e6f2073746f726564206d65737360448201527f61676500000000000000000000000000000000000000000000000000000000006064820152608401610691565b8151602083012081146113335760405162461bcd60e51b815260206004820152602160248201527f4e6f6e626c6f636b696e674c7a4170703a20696e76616c6964207061796c6f6160448201527f64000000000000000000000000000000000000000000000000000000000000006064820152608401610691565b61ffff85166000908152609a60205260408082209051611354908790612f08565b908152604080516020928190038301902067ffffffffffffffff8716600090815292529020556107d4858585856119db565b6033546001600160a01b031633146113e05760405162461bcd60e51b815260206004820181905260248201527f4f776e61626c653a2063616c6c6572206973206e6f7420746865206f776e65726044820152606401610691565b61ffff821660009081526066602090815260409091208251611404928401906126b8565b507ffa41487ad5d6728f0b19276fa1eddc16558578f5109fc39d2dc33c3230470dab8282604051611436929190612f24565b60405180910390a15050565b6033546001600160a01b0316331461149c5760405162461bcd60e51b815260206004820181905260248201527f4f776e61626c653a2063616c6c6572206973206e6f7420746865206f776e65726044820152606401610691565b6001600160a01b0381166115185760405162461bcd60e51b815260206004820152602660248201527f4f776e61626c653a206e6577206f776e657220697320746865207a65726f206160448201527f64647265737300000000000000000000000000000000000000000000000000006064820152608401610691565b61152181611c00565b50565b6065546040517ff5ecbdbc00000000000000000000000000000000000000000000000000000000815261ffff808716600483015285166024820152306044820152606481018390526060916001600160a01b03169063f5ecbdbc9060840160006040518083038186803b15801561159a57600080fd5b505afa1580156115ae573d6000803e3d6000fd5b505050506040513d6000823e601f3d908101601f191682016040526115d69190810190612f86565b95945050505050565b6040517f66ad5c8a00000000000000000000000000000000000000000000000000000000815230906366ad5c8a90611621908790879087908790600401612fbb565b600060405180830381600087803b15801561163b57600080fd5b505af192505050801561164c575060015b610c59578080519060200120609a60008661ffff1661ffff168152602001908152602001600020846040516116819190612f08565b90815260408051918290036020908101832067ffffffffffffffff87166000908152915220919091557fe6f254030bcb01ffd20558175c13fcaed6d1520be7becee4c961b65f79243b0d906116dd908690869086908690612fbb565b60405180910390a1610c59565b6001600160a01b0386166117405760405162461bcd60e51b815260206004820152601a60248201527f5f746f2063616e6e6f74206265207a65726f20616464726573730000000000006044820152606401610691565b60d0546117509062015180613029565b4210156117c7578460cf60008282546117699190613029565b909155505060ce5460cf5411156117c25760405162461bcd60e51b815260206004820152601b60248201527f6d617820616d6f756e74207065722064617920657863656564656400000000006044820152606401610691565b611823565b60cf85905560ce5485111561181e5760405162461bcd60e51b815260206004820152601b60248201527f6d617820616d6f756e74207065722064617920657863656564656400000000006044820152606401610691565b4260d0555b6118386001600160a01b038a16883088611c6a565b6000898989898987876040516020016118579796959493929190613041565b60408051808303601f1901815291905260cd5490915062010000900460ff16156118955760cd546118909061ffff166001866000611d1b565b611909565b8351156119095760405162461bcd60e51b8152602060048201526024808201527f4c7a4170703a205f61646170746572506172616d73206d75737420626520656d60448201527f7074792e000000000000000000000000000000000000000000000000000000006064820152608401610691565b6001600160a01b03808b16600090815260d160209081526040808320938d168352929052205461193a908790613029565b6001600160a01b03808c16600090815260d160209081526040808320938e168352929052205560cd546119749061ffff1682338888611e00565b876001600160a01b0316896001600160a01b03168b6001600160a01b03167f718594027abd4eaed59f95162563e0cc6d0e8d5b86b1c7be8b1b0ac3343d03968a8a88886040516119c79493929190613091565b60405180910390a450505050505050505050565b60cd5461ffff858116911614611a335760405162461bcd60e51b815260206004820152601660248201527f496e76616c696420736f7572636520636861696e4964000000000000000000006044820152606401610691565b60008060008060008086806020019051810190611a5091906130c4565b6001600160a01b03808716600090815260d16020908152604080832093891683529290522054959b50939950919750955093509150611a90908390613158565b6001600160a01b03808816600081815260d160209081526040808320948b1683529390529190912091909155611ac7908484611fa5565b836001600160a01b0316856001600160a01b0316876001600160a01b03167f3ceee06c1e37648fcbb6ed52e17b3e1f275a1f8c7b22a84b2b84732431e046b38686866040516119c79392919061316f565b600054610100900460ff1680611b31575060005460ff16155b611ba35760405162461bcd60e51b815260206004820152602e60248201527f496e697469616c697a61626c653a20636f6e747261637420697320616c72656160448201527f647920696e697469616c697a65640000000000000000000000000000000000006064820152608401610691565b600054610100900460ff16158015611bc5576000805461ffff19166101011790555b611bce82611ff3565b8015610fd757600080547fffffffffffffffffffffffffffffffffffffffffffffffffffffffffffff00ff1690555050565b603380546001600160a01b038381167fffffffffffffffffffffffff0000000000000000000000000000000000000000831681179093556040519116919082907f8be0079c531659141344cd1fd0a4f28419497f9722a3daafe3b4186f6b6457e090600090a35050565b6040516001600160a01b0380851660248301528316604482015260648101829052610c599085907f23b872dd00000000000000000000000000000000000000000000000000000000906084015b60408051601f198184030181529190526020810180517bffffffffffffffffffffffffffffffffffffffffffffffffffffffff167fffffffff00000000000000000000000000000000000000000000000000000000909316929092179091526120b1565b6000611d28836022015190565b61ffff8616600090815260676020908152604080832088845290915281205491925090611d56908490613029565b905060008111611da85760405162461bcd60e51b815260206004820152601a60248201527f4c7a4170703a206d696e4761734c696d6974206e6f74207365740000000000006044820152606401610691565b80821015611df85760405162461bcd60e51b815260206004820152601b60248201527f4c7a4170703a20676173206c696d697420697320746f6f206c6f7700000000006044820152606401610691565b505050505050565b61ffff851660009081526066602052604081208054611e1e90612e2d565b80601f0160208091040260200160405190810160405280929190818152602001828054611e4a90612e2d565b8015611e975780601f10611e6c57610100808354040283529160200191611e97565b820191906000526020600020905b815481529060010190602001808311611e7a57829003601f168201915b50505050509050805160001415611f165760405162461bcd60e51b815260206004820152603060248201527f4c7a4170703a2064657374696e6174696f6e20636861696e206973206e6f742060448201527f61207472757374656420736f75726365000000000000000000000000000000006064820152608401610691565b6065546040517fc58031000000000000000000000000000000000000000000000000000000000081526001600160a01b039091169063c5803100903490611f6b908a9086908b908b908b908b90600401613197565b6000604051808303818588803b158015611f8457600080fd5b505af1158015611f98573d6000803e3d6000fd5b5050505050505050505050565b6040516001600160a01b038316602482015260448101829052611fee9084907fa9059cbb0000000000000000000000000000000000000000000000000000000090606401611cb7565b505050565b600054610100900460ff168061200c575060005460ff16155b61207e5760405162461bcd60e51b815260206004820152602e60248201527f496e697469616c697a61626c653a20636f6e747261637420697320616c72656160448201527f647920696e697469616c697a65640000000000000000000000000000000000006064820152608401610691565b600054610100900460ff161580156120a0576000805461ffff19166101011790555b6120a8612196565b611bce82612284565b6000612106826040518060400160405280602081526020017f5361666545524332303a206c6f772d6c6576656c2063616c6c206661696c6564815250856001600160a01b03166123969092919063ffffffff16565b805190915015611fee578080602001905181019061212491906131f1565b611fee5760405162461bcd60e51b815260206004820152602a60248201527f5361666545524332303a204552433230206f7065726174696f6e20646964206e60448201527f6f742073756363656564000000000000000000000000000000000000000000006064820152608401610691565b600054610100900460ff16806121af575060005460ff16155b6122215760405162461bcd60e51b815260206004820152602e60248201527f496e697469616c697a61626c653a20636f6e747261637420697320616c72656160448201527f647920696e697469616c697a65640000000000000000000000000000000000006064820152608401610691565b600054610100900460ff16158015612243576000805461ffff19166101011790555b61224b6123ad565b61225361248a565b801561152157600080547fffffffffffffffffffffffffffffffffffffffffffffffffffffffffffff00ff16905550565b600054610100900460ff168061229d575060005460ff16155b61230f5760405162461bcd60e51b815260206004820152602e60248201527f496e697469616c697a61626c653a20636f6e747261637420697320616c72656160448201527f647920696e697469616c697a65640000000000000000000000000000000000006064820152608401610691565b600054610100900460ff16158015612331576000805461ffff19166101011790555b606580547fffffffffffffffffffffffff0000000000000000000000000000000000000000166001600160a01b0384161790558015610fd757600080547fffffffffffffffffffffffffffffffffffffffffffffffffffffffffffff00ff1690555050565b60606123a58484600085612540565b949350505050565b600054610100900460ff16806123c6575060005460ff16155b6124385760405162461bcd60e51b815260206004820152602e60248201527f496e697469616c697a61626c653a20636f6e747261637420697320616c72656160448201527f647920696e697469616c697a65640000000000000000000000000000000000006064820152608401610691565b600054610100900460ff16158015612253576000805461ffff1916610101179055801561152157600080547fffffffffffffffffffffffffffffffffffffffffffffffffffffffffffff00ff16905550565b600054610100900460ff16806124a3575060005460ff16155b6125155760405162461bcd60e51b815260206004820152602e60248201527f496e697469616c697a61626c653a20636f6e747261637420697320616c72656160448201527f647920696e697469616c697a65640000000000000000000000000000000000006064820152608401610691565b600054610100900460ff16158015612537576000805461ffff19166101011790555b61225333611c00565b6060824710156125b85760405162461bcd60e51b815260206004820152602660248201527f416464726573733a20696e73756666696369656e742062616c616e636520666f60448201527f722063616c6c00000000000000000000000000000000000000000000000000006064820152608401610691565b843b6126065760405162461bcd60e51b815260206004820152601d60248201527f416464726573733a2063616c6c20746f206e6f6e2d636f6e74726163740000006044820152606401610691565b600080866001600160a01b031685876040516126229190612f08565b60006040518083038185875af1925050503d806000811461265f576040519150601f19603f3d011682016040523d82523d6000602084013e612664565b606091505b509150915061267482828661267f565b979650505050505050565b6060831561268e575081610ae1565b82511561269e5782518084602001fd5b8160405162461bcd60e51b81526004016106919190612c5b565b8280546126c490612e2d565b90600052602060002090601f0160209004810192826126e6576000855561272c565b82601f106126ff57805160ff191683800117855561272c565b8280016001018555821561272c579182015b8281111561272c578251825591602001919060010190612711565b5061273892915061273c565b5090565b5b80821115612738576000815560010161273d565b803561ffff8116811461276357600080fd5b919050565b7f4e487b7100000000000000000000000000000000000000000000000000000000600052604160045260246000fd5b604051601f8201601f1916810167ffffffffffffffff811182821017156127c0576127c0612768565b604052919050565b600067ffffffffffffffff8211156127e2576127e2612768565b50601f01601f191660200190565b600082601f83011261280157600080fd5b813561281461280f826127c8565b612797565b81815284602083860101111561282957600080fd5b816020850160208301376000918101602001919091529392505050565b803567ffffffffffffffff8116811461276357600080fd5b6000806000806080858703121561287457600080fd5b61287d85612751565b9350602085013567ffffffffffffffff8082111561289a57600080fd5b6128a6888389016127f0565b94506128b460408801612846565b935060608701359150808211156128ca57600080fd5b506128d7878288016127f0565b91505092959194509250565b600080604083850312156128f657600080fd5b6128ff83612751565b946020939093013593505050565b60006020828403121561291f57600080fd5b610ae182612751565b6001600160a01b038116811461152157600080fd5b60008083601f84011261294f57600080fd5b50813567ffffffffffffffff81111561296757600080fd5b60208301915083602082850101111561297f57600080fd5b9250929050565b600080600080600080600060c0888a0312156129a157600080fd5b87356129ac81612928565b965060208801356129bc81612928565b95506040880135945060608801356129d381612928565b9350608088013567ffffffffffffffff808211156129f057600080fd5b6129fc8b838c016127f0565b945060a08a0135915080821115612a1257600080fd5b50612a1f8a828b0161293d565b989b979a50959850939692959293505050565b600060208284031215612a4457600080fd5b5035919050565b600080600060408486031215612a6057600080fd5b612a6984612751565b9250602084013567ffffffffffffffff811115612a8557600080fd5b612a918682870161293d565b9497909650939450505050565b600080600060608486031215612ab357600080fd5b612abc84612751565b9250602084013567ffffffffffffffff811115612ad857600080fd5b612ae4868287016127f0565b925050612af360408501612846565b90509250925092565b60008060008060008060008060e0898b031215612b1857600080fd5b8835612b2381612928565b97506020890135612b3381612928565b96506040890135612b4381612928565b9550606089013594506080890135612b5a81612928565b935060a089013567ffffffffffffffff80821115612b7757600080fd5b612b838c838d016127f0565b945060c08b0135915080821115612b9957600080fd5b50612ba68b828c0161293d565b999c989b5096995094979396929594505050565b600080600060608486031215612bcf57600080fd5b8335612bda81612928565b9250612be860208501612751565b91506040840135612bf881612928565b809150509250925092565b60005b83811015612c1e578181015183820152602001612c06565b83811115610c595750506000910152565b60008151808452612c47816020860160208601612c03565b601f01601f19169290920160200192915050565b602081526000610ae16020830184612c2f565b801515811461152157600080fd5b60008060408385031215612c8f57600080fd5b82356128ff81612c6e565b60008060408385031215612cad57600080fd5b8235612cb881612928565b91506020830135612cc881612928565b809150509250929050565b600080600060608486031215612ce857600080fd5b612cf184612751565b95602085013595506040909401359392505050565b600080600080600060808688031215612d1e57600080fd5b612d2786612751565b9450612d3560208701612751565b935060408601359250606086013567ffffffffffffffff811115612d5857600080fd5b612d648882890161293d565b969995985093965092949392505050565b60008060408385031215612d8857600080fd5b612d9183612751565b9150602083013567ffffffffffffffff811115612dad57600080fd5b612db9858286016127f0565b9150509250929050565b600060208284031215612dd557600080fd5b8135610ae181612928565b60008060008060808587031215612df657600080fd5b612dff85612751565b9350612e0d60208601612751565b92506040850135612e1d81612928565b9396929550929360600135925050565b600181811c90821680612e4157607f821691505b60208210811415612e7b577f4e487b7100000000000000000000000000000000000000000000000000000000600052602260045260246000fd5b50919050565b8183823760009101908152919050565b818352818160208501375060006020828401015260006020601f19601f840116840101905092915050565b61ffff841681526040602082015260006115d6604083018486612e91565b600061ffff808816835280871660208401525084604083015260806060830152612674608083018486612e91565b60008251612f1a818460208701612c03565b9190910192915050565b61ffff831681526040602082015260006123a56040830184612c2f565b600082601f830112612f5257600080fd5b8151612f6061280f826127c8565b818152846020838601011115612f7557600080fd5b6123a5826020830160208701612c03565b600060208284031215612f9857600080fd5b815167ffffffffffffffff811115612faf57600080fd5b6123a584828501612f41565b61ffff85168152608060208201526000612fd86080830186612c2f565b67ffffffffffffffff8516604084015282810360608401526126748185612c2f565b7f4e487b7100000000000000000000000000000000000000000000000000000000600052601160045260246000fd5b6000821982111561303c5761303c612ffa565b500190565b60006001600160a01b03808a1683528089166020840152808816604084015280871660608401525084608083015260c060a083015261308460c083018486612e91565b9998505050505050505050565b6001600160a01b03851681528360208201526060604082015260006130ba606083018486612e91565b9695505050505050565b60008060008060008060c087890312156130dd57600080fd5b86516130e881612928565b60208801519096506130f981612928565b604088015190955061310a81612928565b606088015190945061311b81612928565b608088015160a0890151919450925067ffffffffffffffff81111561313f57600080fd5b61314b89828a01612f41565b9150509295509295509295565b60008282101561316a5761316a612ffa565b500390565b6001600160a01b03841681528260208201526060604082015260006115d66060830184612c2f565b61ffff8716815260c0602082015260006131b460c0830188612c2f565b82810360408401526131c68188612c2f565b6001600160a01b0387811660608601528616608085015283810360a085015290506130848185612c2f565b60006020828403121561320357600080fd5b8151610ae181612c6e56fea164736f6c6343000809000a",
  "linkReferences": {},
  "deployedLinkReferences": {}
}