{
  "_format": "hh-sol-artifact-1",
  "contractName": "EthBridge",
  "sourceName": "contracts/lzTokenBridge/EthBridge.sol",
  "abi": [
    {
      "anonymous": false,
      "inputs": [
        {
          "indexed": true,
          "internalType": "address",
          "name": "_l1Token",
          "type": "address"
        },
        {
          "indexed": true,
          "internalType": "address",
          "name": "_l2Token",
          "type": "address"
        },
        {
          "indexed": true,
          "internalType": "address",
          "name": "_from",
          "type": "address"
        },
        {
          "indexed": false,
          "internalType": "address",
          "name": "_to",
          "type": "address"
        },
        {
          "indexed": false,
          "internalType": "uint256",
          "name": "_amount",
          "type": "uint256"
        },
        {
          "indexed": false,
          "internalType": "bytes",
          "name": "_data",
          "type": "bytes"
        }
      ],
      "name": "ERC20DepositInitiated",
      "type": "event"
    },
    {
      "anonymous": false,
      "inputs": [
        {
          "indexed": true,
          "internalType": "address",
          "name": "_l1Token",
          "type": "address"
        },
        {
          "indexed": true,
          "internalType": "address",
          "name": "_l2Token",
          "type": "address"
        },
        {
          "indexed": true,
          "internalType": "address",
          "name": "_from",
          "type": "address"
        },
        {
          "indexed": false,
          "internalType": "address",
          "name": "_to",
          "type": "address"
        },
        {
          "indexed": false,
          "internalType": "uint256",
          "name": "_amount",
          "type": "uint256"
        },
        {
          "indexed": false,
          "internalType": "bytes",
          "name": "_data",
          "type": "bytes"
        }
      ],
      "name": "ERC20WithdrawalFinalized",
      "type": "event"
    },
    {
      "anonymous": false,
      "inputs": [
        {
          "indexed": false,
          "internalType": "uint16",
          "name": "_srcChainId",
          "type": "uint16"
        },
        {
          "indexed": false,
          "internalType": "bytes",
          "name": "_srcAddress",
          "type": "bytes"
        },
        {
          "indexed": false,
          "internalType": "uint64",
          "name": "_nonce",
          "type": "uint64"
        },
        {
          "indexed": false,
          "internalType": "bytes",
          "name": "_payload",
          "type": "bytes"
        }
      ],
      "name": "MessageFailed",
      "type": "event"
    },
    {
      "anonymous": false,
      "inputs": [
        {
          "indexed": true,
          "internalType": "address",
          "name": "previousOwner",
          "type": "address"
        },
        {
          "indexed": true,
          "internalType": "address",
          "name": "newOwner",
          "type": "address"
        }
      ],
      "name": "OwnershipTransferred",
      "type": "event"
    },
    {
      "anonymous": false,
      "inputs": [
        {
          "indexed": false,
          "internalType": "uint16",
          "name": "_srcChainId",
          "type": "uint16"
        },
        {
          "indexed": false,
          "internalType": "bytes",
          "name": "_srcAddress",
          "type": "bytes"
        }
      ],
      "name": "SetTrustedRemote",
      "type": "event"
    },
    {
      "inputs": [],
      "name": "FUNCTION_TYPE_SEND",
      "outputs": [
        {
          "internalType": "uint256",
          "name": "",
          "type": "uint256"
        }
      ],
      "stateMutability": "view",
      "type": "function"
    },
    {
      "inputs": [],
      "name": "NO_EXTRA_GAS",
      "outputs": [
        {
          "internalType": "uint256",
          "name": "",
          "type": "uint256"
        }
      ],
      "stateMutability": "view",
      "type": "function"
    },
    {
      "inputs": [
        {
          "internalType": "address",
          "name": "_l1Token",
          "type": "address"
        },
        {
          "internalType": "address",
          "name": "_l2Token",
          "type": "address"
        },
        {
          "internalType": "uint256",
          "name": "_amount",
          "type": "uint256"
        },
        {
          "internalType": "address",
          "name": "_zroPaymentAddress",
          "type": "address"
        },
        {
          "internalType": "bytes",
          "name": "_adapterParams",
          "type": "bytes"
        },
        {
          "internalType": "bytes",
          "name": "_data",
          "type": "bytes"
        }
      ],
      "name": "depositERC20",
      "outputs": [],
      "stateMutability": "payable",
      "type": "function"
    },
    {
      "inputs": [
        {
          "internalType": "address",
          "name": "_l1Token",
          "type": "address"
        },
        {
          "internalType": "address",
          "name": "_l2Token",
          "type": "address"
        },
        {
          "internalType": "address",
          "name": "_to",
          "type": "address"
        },
        {
          "internalType": "uint256",
          "name": "_amount",
          "type": "uint256"
        },
        {
          "internalType": "address",
          "name": "_zroPaymentAddress",
          "type": "address"
        },
        {
          "internalType": "bytes",
          "name": "_adapterParams",
          "type": "bytes"
        },
        {
          "internalType": "bytes",
          "name": "_data",
          "type": "bytes"
        }
      ],
      "name": "depositERC20To",
      "outputs": [],
      "stateMutability": "payable",
      "type": "function"
    },
    {
      "inputs": [
        {
          "internalType": "address",
          "name": "",
          "type": "address"
        },
        {
          "internalType": "address",
          "name": "",
          "type": "address"
        }
      ],
      "name": "deposits",
      "outputs": [
        {
          "internalType": "uint256",
          "name": "",
          "type": "uint256"
        }
      ],
      "stateMutability": "view",
      "type": "function"
    },
    {
      "inputs": [],
      "name": "dstChainId",
      "outputs": [
        {
          "internalType": "uint16",
          "name": "",
          "type": "uint16"
        }
      ],
      "stateMutability": "view",
      "type": "function"
    },
    {
      "inputs": [
        {
          "internalType": "uint16",
          "name": "",
          "type": "uint16"
        },
        {
          "internalType": "bytes",
          "name": "",
          "type": "bytes"
        },
        {
          "internalType": "uint64",
          "name": "",
          "type": "uint64"
        }
      ],
      "name": "failedMessages",
      "outputs": [
        {
          "internalType": "bytes32",
          "name": "",
          "type": "bytes32"
        }
      ],
      "stateMutability": "view",
      "type": "function"
    },
    {
      "inputs": [
        {
          "internalType": "uint16",
          "name": "_srcChainId",
          "type": "uint16"
        },
        {
          "internalType": "bytes",
          "name": "_srcAddress",
          "type": "bytes"
        }
      ],
      "name": "forceResumeReceive",
      "outputs": [],
      "stateMutability": "nonpayable",
      "type": "function"
    },
    {
      "inputs": [
        {
          "internalType": "uint16",
          "name": "_version",
          "type": "uint16"
        },
        {
          "internalType": "uint16",
          "name": "_chainId",
          "type": "uint16"
        },
        {
          "internalType": "address",
          "name": "",
          "type": "address"
        },
        {
          "internalType": "uint256",
          "name": "_configType",
          "type": "uint256"
        }
      ],
      "name": "getConfig",
      "outputs": [
        {
          "internalType": "bytes",
          "name": "",
          "type": "bytes"
        }
      ],
      "stateMutability": "view",
      "type": "function"
    },
    {
      "inputs": [
        {
          "internalType": "address",
          "name": "_lzEndpoint",
          "type": "address"
        },
        {
          "internalType": "uint16",
          "name": "_dstChainId",
          "type": "uint16"
        },
        {
          "internalType": "address",
          "name": "_altL1BridgeAddress",
          "type": "address"
        }
      ],
      "name": "initialize",
      "outputs": [],
      "stateMutability": "nonpayable",
      "type": "function"
    },
    {
      "inputs": [
        {
          "internalType": "uint16",
          "name": "_srcChainId",
          "type": "uint16"
        },
        {
          "internalType": "bytes",
          "name": "_srcAddress",
          "type": "bytes"
        }
      ],
      "name": "isTrustedRemote",
      "outputs": [
        {
          "internalType": "bool",
          "name": "",
          "type": "bool"
        }
      ],
      "stateMutability": "view",
      "type": "function"
    },
    {
      "inputs": [],
      "name": "lzEndpoint",
      "outputs": [
        {
          "internalType": "contract ILayerZeroEndpoint",
          "name": "",
          "type": "address"
        }
      ],
      "stateMutability": "view",
      "type": "function"
    },
    {
      "inputs": [
        {
          "internalType": "uint16",
          "name": "_srcChainId",
          "type": "uint16"
        },
        {
          "internalType": "bytes",
          "name": "_srcAddress",
          "type": "bytes"
        },
        {
          "internalType": "uint64",
          "name": "_nonce",
          "type": "uint64"
        },
        {
          "internalType": "bytes",
          "name": "_payload",
          "type": "bytes"
        }
      ],
      "name": "lzReceive",
      "outputs": [],
      "stateMutability": "nonpayable",
      "type": "function"
    },
    {
      "inputs": [
        {
          "internalType": "uint16",
          "name": "",
          "type": "uint16"
        },
        {
          "internalType": "uint256",
          "name": "",
          "type": "uint256"
        }
      ],
      "name": "minDstGasLookup",
      "outputs": [
        {
          "internalType": "uint256",
          "name": "",
          "type": "uint256"
        }
      ],
      "stateMutability": "view",
      "type": "function"
    },
    {
      "inputs": [
        {
          "internalType": "uint16",
          "name": "_srcChainId",
          "type": "uint16"
        },
        {
          "internalType": "bytes",
          "name": "_srcAddress",
          "type": "bytes"
        },
        {
          "internalType": "uint64",
          "name": "_nonce",
          "type": "uint64"
        },
        {
          "internalType": "bytes",
          "name": "_payload",
          "type": "bytes"
        }
      ],
      "name": "nonblockingLzReceive",
      "outputs": [],
      "stateMutability": "nonpayable",
      "type": "function"
    },
    {
      "inputs": [],
      "name": "owner",
      "outputs": [
        {
          "internalType": "address",
          "name": "",
          "type": "address"
        }
      ],
      "stateMutability": "view",
      "type": "function"
    },
    {
      "inputs": [],
      "name": "renounceOwnership",
      "outputs": [],
      "stateMutability": "nonpayable",
      "type": "function"
    },
    {
      "inputs": [
        {
          "internalType": "uint16",
          "name": "_srcChainId",
          "type": "uint16"
        },
        {
          "internalType": "bytes",
          "name": "_srcAddress",
          "type": "bytes"
        },
        {
          "internalType": "uint64",
          "name": "_nonce",
          "type": "uint64"
        },
        {
          "internalType": "bytes",
          "name": "_payload",
          "type": "bytes"
        }
      ],
      "name": "retryMessage",
      "outputs": [],
      "stateMutability": "payable",
      "type": "function"
    },
    {
      "inputs": [
        {
          "internalType": "uint16",
          "name": "_version",
          "type": "uint16"
        },
        {
          "internalType": "uint16",
          "name": "_chainId",
          "type": "uint16"
        },
        {
          "internalType": "uint256",
          "name": "_configType",
          "type": "uint256"
        },
        {
          "internalType": "bytes",
          "name": "_config",
          "type": "bytes"
        }
      ],
      "name": "setConfig",
      "outputs": [],
      "stateMutability": "nonpayable",
      "type": "function"
    },
    {
      "inputs": [
        {
          "internalType": "uint16",
          "name": "_dstChainId",
          "type": "uint16"
        },
        {
          "internalType": "uint256",
          "name": "_type",
          "type": "uint256"
        },
        {
          "internalType": "uint256",
          "name": "_dstGasAmount",
          "type": "uint256"
        }
      ],
      "name": "setMinDstGasLookup",
      "outputs": [],
      "stateMutability": "nonpayable",
      "type": "function"
    },
    {
      "inputs": [
        {
          "internalType": "uint16",
          "name": "_version",
          "type": "uint16"
        }
      ],
      "name": "setReceiveVersion",
      "outputs": [],
      "stateMutability": "nonpayable",
      "type": "function"
    },
    {
      "inputs": [
        {
          "internalType": "uint16",
          "name": "_version",
          "type": "uint16"
        }
      ],
      "name": "setSendVersion",
      "outputs": [],
      "stateMutability": "nonpayable",
      "type": "function"
    },
    {
      "inputs": [
        {
          "internalType": "uint16",
          "name": "_srcChainId",
          "type": "uint16"
        },
        {
          "internalType": "bytes",
          "name": "_srcAddress",
          "type": "bytes"
        }
      ],
      "name": "setTrustedRemote",
      "outputs": [],
      "stateMutability": "nonpayable",
      "type": "function"
    },
    {
      "inputs": [
        {
          "internalType": "bool",
          "name": "_useCustomAdapterParams",
          "type": "bool"
        },
        {
          "internalType": "uint256",
          "name": "_dstGasAmount",
          "type": "uint256"
        }
      ],
      "name": "setUseCustomAdapterParams",
      "outputs": [],
      "stateMutability": "nonpayable",
      "type": "function"
    },
    {
      "inputs": [
        {
          "internalType": "address",
          "name": "newOwner",
          "type": "address"
        }
      ],
      "name": "transferOwnership",
      "outputs": [],
      "stateMutability": "nonpayable",
      "type": "function"
    },
    {
      "inputs": [
        {
          "internalType": "uint16",
          "name": "",
          "type": "uint16"
        }
      ],
      "name": "trustedRemoteLookup",
      "outputs": [
        {
          "internalType": "bytes",
          "name": "",
          "type": "bytes"
        }
      ],
      "stateMutability": "view",
      "type": "function"
    },
    {
      "inputs": [],
      "name": "useCustomAdapterParams",
      "outputs": [
        {
          "internalType": "bool",
          "name": "",
          "type": "bool"
        }
      ],
      "stateMutability": "view",
      "type": "function"
    }
  ],
  "bytecode": "0x608060405234801561001057600080fd5b50613169806100206000396000f3fe6080604052600436106101ab5760003560e01c8063715018a6116100ec578063b353aaa71161008a578063eb8d72b711610064578063eb8d72b714610520578063ed629c5c14610540578063f2fde38b14610560578063f5ecbdbc1461058057600080fd5b8063b353aaa7146104c0578063cbed8b9c146104ed578063d1deba1f1461050d57600080fd5b80638da5cb5b116100c65780638da5cb5b146104075780638f601f66146104535780639b57db5f1461048b578063af3fb21c146104ab57600080fd5b8063715018a6146103a55780637533d788146103ba5780637e0ced09146103e757600080fd5b80633d8b38f6116101595780635b8c41e6116101335780635b8c41e61461030357806365f771891461035257806366ad5c8a14610365578063708c0db91461038557600080fd5b80633d8b38f61461029e57806342d65a8d146102ce57806344770515146102ee57600080fd5b80630d265fdb1161018a5780630d265fdb1461023d57806310ddb1371461025057806330c593f71461027057600080fd5b80621d3567146101b057806307810867146101d257806307e0db171461021d575b600080fd5b3480156101bc57600080fd5b506101d06101cb366004612784565b6105a0565b005b3480156101de57600080fd5b5061020a6101ed366004612809565b606760209081526000928352604080842090915290825290205481565b6040519081526020015b60405180910390f35b34801561022957600080fd5b506101d0610238366004612833565b610763565b6101d061024b3660046128b9565b61084e565b34801561025c57600080fd5b506101d061026b366004612833565b6108b7565b34801561027c57600080fd5b5060cd5461028b9061ffff1681565b60405161ffff9091168152602001610214565b3480156102aa57600080fd5b506102be6102b9366004612965565b610978565b6040519015158152602001610214565b3480156102da57600080fd5b506101d06102e9366004612965565b610a45565b3480156102fa57600080fd5b5061020a600081565b34801561030f57600080fd5b5061020a61031e3660046129b8565b609a602090815260009384526040808520845180860184018051928152908401958401959095209452929052825290205481565b6101d0610360366004612a16565b610b34565b34801561037157600080fd5b506101d0610380366004612784565b610b4f565b34801561039157600080fd5b506101d06103a0366004612ad4565b610bd6565b3480156103b157600080fd5b506101d0610da6565b3480156103c657600080fd5b506103da6103d5366004612833565b610e19565b6040516102149190612b75565b3480156103f357600080fd5b506101d0610402366004612b96565b610eb3565b34801561041357600080fd5b5060335473ffffffffffffffffffffffffffffffffffffffff165b60405173ffffffffffffffffffffffffffffffffffffffff9091168152602001610214565b34801561045f57600080fd5b5061020a61046e366004612bb4565b60ce60209081526000928352604080842090915290825290205481565b34801561049757600080fd5b506101d06104a6366004612bed565b610f67565b3480156104b757600080fd5b5061020a600181565b3480156104cc57600080fd5b5060655461042e9073ffffffffffffffffffffffffffffffffffffffff1681565b3480156104f957600080fd5b506101d0610508366004612c20565b61103f565b6101d061051b366004612784565b61113d565b34801561052c57600080fd5b506101d061053b366004612c8f565b6112c7565b34801561054c57600080fd5b5060cd546102be9062010000900460ff1681565b34801561056c57600080fd5b506101d061057b366004612cdd565b611390565b34801561058c57600080fd5b506103da61059b366004612cfa565b61148c565b60655473ffffffffffffffffffffffffffffffffffffffff163373ffffffffffffffffffffffffffffffffffffffff16146106225760405162461bcd60e51b815260206004820152601e60248201527f4c7a4170703a20696e76616c696420656e64706f696e742063616c6c6572000060448201526064015b60405180910390fd5b61ffff84166000908152606660205260408120805461064090612d47565b80601f016020809104026020016040519081016040528092919081815260200182805461066c90612d47565b80156106b95780601f1061068e576101008083540402835291602001916106b9565b820191906000526020600020905b81548152906001019060200180831161069c57829003601f168201915b50505050509050805184511480156106de575080805190602001208480519060200120145b6107505760405162461bcd60e51b815260206004820152602660248201527f4c7a4170703a20696e76616c696420736f757263652073656e64696e6720636f60448201527f6e747261637400000000000000000000000000000000000000000000000000006064820152608401610619565b61075c85858585611554565b5050505050565b60335473ffffffffffffffffffffffffffffffffffffffff1633146107ca5760405162461bcd60e51b815260206004820181905260248201527f4f776e61626c653a2063616c6c6572206973206e6f7420746865206f776e65726044820152606401610619565b6065546040517f07e0db1700000000000000000000000000000000000000000000000000000000815261ffff8316600482015273ffffffffffffffffffffffffffffffffffffffff909116906307e0db17906024015b600060405180830381600087803b15801561083a57600080fd5b505af115801561075c573d6000803e3d6000fd5b333b1561089d5760405162461bcd60e51b815260206004820152600f60248201527f4163636f756e74206e6f7420454f4100000000000000000000000000000000006044820152606401610619565b6108ae87873333898989898961165f565b50505050505050565b60335473ffffffffffffffffffffffffffffffffffffffff16331461091e5760405162461bcd60e51b815260206004820181905260248201527f4f776e61626c653a2063616c6c6572206973206e6f7420746865206f776e65726044820152606401610619565b6065546040517f10ddb13700000000000000000000000000000000000000000000000000000000815261ffff8316600482015273ffffffffffffffffffffffffffffffffffffffff909116906310ddb13790602401610820565b61ffff83166000908152606660205260408120805482919061099990612d47565b80601f01602080910402602001604051908101604052809291908181526020018280546109c590612d47565b8015610a125780601f106109e757610100808354040283529160200191610a12565b820191906000526020600020905b8154815290600101906020018083116109f557829003601f168201915b505050505090508383604051610a29929190612d9b565b60405180910390208180519060200120149150505b9392505050565b60335473ffffffffffffffffffffffffffffffffffffffff163314610aac5760405162461bcd60e51b815260206004820181905260248201527f4f776e61626c653a2063616c6c6572206973206e6f7420746865206f776e65726044820152606401610619565b6065546040517f42d65a8d00000000000000000000000000000000000000000000000000000000815273ffffffffffffffffffffffffffffffffffffffff909116906342d65a8d90610b0690869086908690600401612dd6565b600060405180830381600087803b158015610b2057600080fd5b505af11580156108ae573d6000803e3d6000fd5b610b4588883389898989898961165f565b5050505050505050565b333014610bc45760405162461bcd60e51b815260206004820152602660248201527f4e6f6e626c6f636b696e674c7a4170703a2063616c6c6572206d75737420626560448201527f204c7a41707000000000000000000000000000000000000000000000000000006064820152608401610619565b610bd084848484611865565b50505050565b600054610100900460ff1680610bef575060005460ff16155b610c615760405162461bcd60e51b815260206004820152602e60248201527f496e697469616c697a61626c653a20636f6e747261637420697320616c72656160448201527f647920696e697469616c697a65640000000000000000000000000000000000006064820152608401610619565b600054610100900460ff16158015610c83576000805461ffff19166101011790555b73ffffffffffffffffffffffffffffffffffffffff8416610d0c5760405162461bcd60e51b815260206004820152602260248201527f6c7a20656e64706f696e742063616e6e6f74206265207a65726f20616464726560448201527f73730000000000000000000000000000000000000000000000000000000000006064820152608401610619565b610d15846119e3565b60cd805461ffff191661ffff85161790556040517fffffffffffffffffffffffffffffffffffffffff000000000000000000000000606084901b166020820152610d729084906034016040516020818303038152906040526112c7565b8015610bd057600080547fffffffffffffffffffffffffffffffffffffffffffffffffffffffffffff00ff16905550505050565b60335473ffffffffffffffffffffffffffffffffffffffff163314610e0d5760405162461bcd60e51b815260206004820181905260248201527f4f776e61626c653a2063616c6c6572206973206e6f7420746865206f776e65726044820152606401610619565b610e176000611acb565b565b60666020526000908152604090208054610e3290612d47565b80601f0160208091040260200160405190810160405280929190818152602001828054610e5e90612d47565b8015610eab5780601f10610e8057610100808354040283529160200191610eab565b820191906000526020600020905b815481529060010190602001808311610e8e57829003601f168201915b505050505081565b60335473ffffffffffffffffffffffffffffffffffffffff163314610f1a5760405162461bcd60e51b815260206004820181905260248201527f4f776e61626c653a2063616c6c6572206973206e6f7420746865206f776e65726044820152606401610619565b60cd805483151562010000027fffffffffffffffffffffffffffffffffffffffffffffffffffffffffff00ffff82168117909255610f639161ffff908116911617600183610f67565b5050565b60335473ffffffffffffffffffffffffffffffffffffffff163314610fce5760405162461bcd60e51b815260206004820181905260248201527f4f776e61626c653a2063616c6c6572206973206e6f7420746865206f776e65726044820152606401610619565b6000811161101e5760405162461bcd60e51b815260206004820152601c60248201527f4c7a4170703a20696e76616c6964205f647374476173416d6f756e74000000006044820152606401610619565b61ffff90921660009081526067602090815260408083209383529290522055565b60335473ffffffffffffffffffffffffffffffffffffffff1633146110a65760405162461bcd60e51b815260206004820181905260248201527f4f776e61626c653a2063616c6c6572206973206e6f7420746865206f776e65726044820152606401610619565b6065546040517fcbed8b9c00000000000000000000000000000000000000000000000000000000815273ffffffffffffffffffffffffffffffffffffffff9091169063cbed8b9c906111049088908890889088908890600401612df4565b600060405180830381600087803b15801561111e57600080fd5b505af1158015611132573d6000803e3d6000fd5b505050505050505050565b61ffff84166000908152609a6020526040808220905161115e908690612e22565b908152604080516020928190038301902067ffffffffffffffff8616600090815292529020549050806111f95760405162461bcd60e51b815260206004820152602360248201527f4e6f6e626c6f636b696e674c7a4170703a206e6f2073746f726564206d65737360448201527f61676500000000000000000000000000000000000000000000000000000000006064820152608401610619565b8151602083012081146112745760405162461bcd60e51b815260206004820152602160248201527f4e6f6e626c6f636b696e674c7a4170703a20696e76616c6964207061796c6f6160448201527f64000000000000000000000000000000000000000000000000000000000000006064820152608401610619565b61ffff85166000908152609a60205260408082209051611295908790612e22565b908152604080516020928190038301902067ffffffffffffffff87166000908152925290205561075c85858585611865565b60335473ffffffffffffffffffffffffffffffffffffffff16331461132e5760405162461bcd60e51b815260206004820181905260248201527f4f776e61626c653a2063616c6c6572206973206e6f7420746865206f776e65726044820152606401610619565b61ffff821660009081526066602090815260409091208251611352928401906125de565b507ffa41487ad5d6728f0b19276fa1eddc16558578f5109fc39d2dc33c3230470dab8282604051611384929190612e3e565b60405180910390a15050565b60335473ffffffffffffffffffffffffffffffffffffffff1633146113f75760405162461bcd60e51b815260206004820181905260248201527f4f776e61626c653a2063616c6c6572206973206e6f7420746865206f776e65726044820152606401610619565b73ffffffffffffffffffffffffffffffffffffffff81166114805760405162461bcd60e51b815260206004820152602660248201527f4f776e61626c653a206e6577206f776e657220697320746865207a65726f206160448201527f64647265737300000000000000000000000000000000000000000000000000006064820152608401610619565b61148981611acb565b50565b6065546040517ff5ecbdbc00000000000000000000000000000000000000000000000000000000815261ffff8087166004830152851660248201523060448201526064810183905260609173ffffffffffffffffffffffffffffffffffffffff169063f5ecbdbc9060840160006040518083038186803b15801561150f57600080fd5b505afa158015611523573d6000803e3d6000fd5b505050506040513d6000823e601f3d908101601f1916820160405261154b9190810190612ea0565b95945050505050565b6040517f66ad5c8a00000000000000000000000000000000000000000000000000000000815230906366ad5c8a90611596908790879087908790600401612ed5565b600060405180830381600087803b1580156115b057600080fd5b505af19250505080156115c1575060015b610bd0578080519060200120609a60008661ffff1661ffff168152602001908152602001600020846040516115f69190612e22565b90815260408051918290036020908101832067ffffffffffffffff87166000908152915220919091557fe6f254030bcb01ffd20558175c13fcaed6d1520be7becee4c961b65f79243b0d90611652908690869086908690612ed5565b60405180910390a1610bd0565b61168173ffffffffffffffffffffffffffffffffffffffff8a16883088611b42565b6000898989898987876040516020016116a09796959493929190612f14565b60408051808303601f1901815291905260cd5490915062010000900460ff16156116de5760cd546116d99061ffff166001866000611c00565b611752565b8351156117525760405162461bcd60e51b8152602060048201526024808201527f4c7a4170703a205f61646170746572506172616d73206d75737420626520656d60448201527f7074792e000000000000000000000000000000000000000000000000000000006064820152608401610619565b73ffffffffffffffffffffffffffffffffffffffff808b16600090815260ce60209081526040808320938d1683529290522054611790908790612fa0565b73ffffffffffffffffffffffffffffffffffffffff808c16600090815260ce60209081526040808320938e168352929052205560cd546117d79061ffff1682338888611ce5565b8773ffffffffffffffffffffffffffffffffffffffff168973ffffffffffffffffffffffffffffffffffffffff168b73ffffffffffffffffffffffffffffffffffffffff167f718594027abd4eaed59f95162563e0cc6d0e8d5b86b1c7be8b1b0ac3343d03968a8a88886040516118519493929190612fb8565b60405180910390a450505050505050505050565b60cd5461ffff8581169116146118bd5760405162461bcd60e51b815260206004820152601660248201527f496e76616c696420736f7572636520636861696e4964000000000000000000006044820152606401610619565b600080600080600080868060200190518101906118da9190612ff8565b73ffffffffffffffffffffffffffffffffffffffff808716600090815260ce6020908152604080832093891683529290522054959b5093995091975095509350915061192790839061308c565b73ffffffffffffffffffffffffffffffffffffffff808816600081815260ce60209081526040808320948b168352939052919091209190915561196b908484611e97565b8373ffffffffffffffffffffffffffffffffffffffff168573ffffffffffffffffffffffffffffffffffffffff168773ffffffffffffffffffffffffffffffffffffffff167f3ceee06c1e37648fcbb6ed52e17b3e1f275a1f8c7b22a84b2b84732431e046b3868686604051611851939291906130a3565b600054610100900460ff16806119fc575060005460ff16155b611a6e5760405162461bcd60e51b815260206004820152602e60248201527f496e697469616c697a61626c653a20636f6e747261637420697320616c72656160448201527f647920696e697469616c697a65640000000000000000000000000000000000006064820152608401610619565b600054610100900460ff16158015611a90576000805461ffff19166101011790555b611a9982611ef2565b8015610f6357600080547fffffffffffffffffffffffffffffffffffffffffffffffffffffffffffff00ff1690555050565b6033805473ffffffffffffffffffffffffffffffffffffffff8381167fffffffffffffffffffffffff0000000000000000000000000000000000000000831681179093556040519116919082907f8be0079c531659141344cd1fd0a4f28419497f9722a3daafe3b4186f6b6457e090600090a35050565b60405173ffffffffffffffffffffffffffffffffffffffff80851660248301528316604482015260648101829052610bd09085907f23b872dd00000000000000000000000000000000000000000000000000000000906084015b60408051601f198184030181529190526020810180517bffffffffffffffffffffffffffffffffffffffffffffffffffffffff167fffffffff0000000000000000000000000000000000000000000000000000000090931692909217909152611fb0565b6000611c0d836022015190565b61ffff8616600090815260676020908152604080832088845290915281205491925090611c3b908490612fa0565b905060008111611c8d5760405162461bcd60e51b815260206004820152601a60248201527f4c7a4170703a206d696e4761734c696d6974206e6f74207365740000000000006044820152606401610619565b80821015611cdd5760405162461bcd60e51b815260206004820152601b60248201527f4c7a4170703a20676173206c696d697420697320746f6f206c6f7700000000006044820152606401610619565b505050505050565b61ffff851660009081526066602052604081208054611d0390612d47565b80601f0160208091040260200160405190810160405280929190818152602001828054611d2f90612d47565b8015611d7c5780601f10611d5157610100808354040283529160200191611d7c565b820191906000526020600020905b815481529060010190602001808311611d5f57829003601f168201915b50505050509050805160001415611dfb5760405162461bcd60e51b815260206004820152603060248201527f4c7a4170703a2064657374696e6174696f6e20636861696e206973206e6f742060448201527f61207472757374656420736f75726365000000000000000000000000000000006064820152608401610619565b6065546040517fc580310000000000000000000000000000000000000000000000000000000000815273ffffffffffffffffffffffffffffffffffffffff9091169063c5803100903490611e5d908a9086908b908b908b908b906004016130d8565b6000604051808303818588803b158015611e7657600080fd5b505af1158015611e8a573d6000803e3d6000fd5b5050505050505050505050565b60405173ffffffffffffffffffffffffffffffffffffffff8316602482015260448101829052611eed9084907fa9059cbb0000000000000000000000000000000000000000000000000000000090606401611b9c565b505050565b600054610100900460ff1680611f0b575060005460ff16155b611f7d5760405162461bcd60e51b815260206004820152602e60248201527f496e697469616c697a61626c653a20636f6e747261637420697320616c72656160448201527f647920696e697469616c697a65640000000000000000000000000000000000006064820152608401610619565b600054610100900460ff16158015611f9f576000805461ffff19166101011790555b611fa76120a2565b611a9982612190565b6000612012826040518060400160405280602081526020017f5361666545524332303a206c6f772d6c6576656c2063616c6c206661696c65648152508573ffffffffffffffffffffffffffffffffffffffff166122af9092919063ffffffff16565b805190915015611eed5780806020019051810190612030919061313f565b611eed5760405162461bcd60e51b815260206004820152602a60248201527f5361666545524332303a204552433230206f7065726174696f6e20646964206e60448201527f6f742073756363656564000000000000000000000000000000000000000000006064820152608401610619565b600054610100900460ff16806120bb575060005460ff16155b61212d5760405162461bcd60e51b815260206004820152602e60248201527f496e697469616c697a61626c653a20636f6e747261637420697320616c72656160448201527f647920696e697469616c697a65640000000000000000000000000000000000006064820152608401610619565b600054610100900460ff1615801561214f576000805461ffff19166101011790555b6121576122c6565b61215f6123a3565b801561148957600080547fffffffffffffffffffffffffffffffffffffffffffffffffffffffffffff00ff16905550565b600054610100900460ff16806121a9575060005460ff16155b61221b5760405162461bcd60e51b815260206004820152602e60248201527f496e697469616c697a61626c653a20636f6e747261637420697320616c72656160448201527f647920696e697469616c697a65640000000000000000000000000000000000006064820152608401610619565b600054610100900460ff1615801561223d576000805461ffff19166101011790555b606580547fffffffffffffffffffffffff00000000000000000000000000000000000000001673ffffffffffffffffffffffffffffffffffffffff84161790558015610f6357600080547fffffffffffffffffffffffffffffffffffffffffffffffffffffffffffff00ff1690555050565b60606122be8484600085612459565b949350505050565b600054610100900460ff16806122df575060005460ff16155b6123515760405162461bcd60e51b815260206004820152602e60248201527f496e697469616c697a61626c653a20636f6e747261637420697320616c72656160448201527f647920696e697469616c697a65640000000000000000000000000000000000006064820152608401610619565b600054610100900460ff1615801561215f576000805461ffff1916610101179055801561148957600080547fffffffffffffffffffffffffffffffffffffffffffffffffffffffffffff00ff16905550565b600054610100900460ff16806123bc575060005460ff16155b61242e5760405162461bcd60e51b815260206004820152602e60248201527f496e697469616c697a61626c653a20636f6e747261637420697320616c72656160448201527f647920696e697469616c697a65640000000000000000000000000000000000006064820152608401610619565b600054610100900460ff16158015612450576000805461ffff19166101011790555b61215f33611acb565b6060824710156124d15760405162461bcd60e51b815260206004820152602660248201527f416464726573733a20696e73756666696369656e742062616c616e636520666f60448201527f722063616c6c00000000000000000000000000000000000000000000000000006064820152608401610619565b843b61251f5760405162461bcd60e51b815260206004820152601d60248201527f416464726573733a2063616c6c20746f206e6f6e2d636f6e74726163740000006044820152606401610619565b6000808673ffffffffffffffffffffffffffffffffffffffff1685876040516125489190612e22565b60006040518083038185875af1925050503d8060008114612585576040519150601f19603f3d011682016040523d82523d6000602084013e61258a565b606091505b509150915061259a8282866125a5565b979650505050505050565b606083156125b4575081610a3e565b8251156125c45782518084602001fd5b8160405162461bcd60e51b81526004016106199190612b75565b8280546125ea90612d47565b90600052602060002090601f01602090048101928261260c5760008555612652565b82601f1061262557805160ff1916838001178555612652565b82800160010185558215612652579182015b82811115612652578251825591602001919060010190612637565b5061265e929150612662565b5090565b5b8082111561265e5760008155600101612663565b803561ffff8116811461268957600080fd5b919050565b7f4e487b7100000000000000000000000000000000000000000000000000000000600052604160045260246000fd5b604051601f8201601f1916810167ffffffffffffffff811182821017156126e6576126e661268e565b604052919050565b600067ffffffffffffffff8211156127085761270861268e565b50601f01601f191660200190565b600082601f83011261272757600080fd5b813561273a612735826126ee565b6126bd565b81815284602083860101111561274f57600080fd5b816020850160208301376000918101602001919091529392505050565b803567ffffffffffffffff8116811461268957600080fd5b6000806000806080858703121561279a57600080fd5b6127a385612677565b9350602085013567ffffffffffffffff808211156127c057600080fd5b6127cc88838901612716565b94506127da6040880161276c565b935060608701359150808211156127f057600080fd5b506127fd87828801612716565b91505092959194509250565b6000806040838503121561281c57600080fd5b61282583612677565b946020939093013593505050565b60006020828403121561284557600080fd5b610a3e82612677565b73ffffffffffffffffffffffffffffffffffffffff8116811461148957600080fd5b60008083601f84011261288257600080fd5b50813567ffffffffffffffff81111561289a57600080fd5b6020830191508360208285010111156128b257600080fd5b9250929050565b600080600080600080600060c0888a0312156128d457600080fd5b87356128df8161284e565b965060208801356128ef8161284e565b95506040880135945060608801356129068161284e565b9350608088013567ffffffffffffffff8082111561292357600080fd5b61292f8b838c01612716565b945060a08a013591508082111561294557600080fd5b506129528a828b01612870565b989b979a50959850939692959293505050565b60008060006040848603121561297a57600080fd5b61298384612677565b9250602084013567ffffffffffffffff81111561299f57600080fd5b6129ab86828701612870565b9497909650939450505050565b6000806000606084860312156129cd57600080fd5b6129d684612677565b9250602084013567ffffffffffffffff8111156129f257600080fd5b6129fe86828701612716565b925050612a0d6040850161276c565b90509250925092565b60008060008060008060008060e0898b031215612a3257600080fd5b8835612a3d8161284e565b97506020890135612a4d8161284e565b96506040890135612a5d8161284e565b9550606089013594506080890135612a748161284e565b935060a089013567ffffffffffffffff80821115612a9157600080fd5b612a9d8c838d01612716565b945060c08b0135915080821115612ab357600080fd5b50612ac08b828c01612870565b999c989b5096995094979396929594505050565b600080600060608486031215612ae957600080fd5b8335612af48161284e565b9250612b0260208501612677565b91506040840135612b128161284e565b809150509250925092565b60005b83811015612b38578181015183820152602001612b20565b83811115610bd05750506000910152565b60008151808452612b61816020860160208601612b1d565b601f01601f19169290920160200192915050565b602081526000610a3e6020830184612b49565b801515811461148957600080fd5b60008060408385031215612ba957600080fd5b823561282581612b88565b60008060408385031215612bc757600080fd5b8235612bd28161284e565b91506020830135612be28161284e565b809150509250929050565b600080600060608486031215612c0257600080fd5b612c0b84612677565b95602085013595506040909401359392505050565b600080600080600060808688031215612c3857600080fd5b612c4186612677565b9450612c4f60208701612677565b935060408601359250606086013567ffffffffffffffff811115612c7257600080fd5b612c7e88828901612870565b969995985093965092949392505050565b60008060408385031215612ca257600080fd5b612cab83612677565b9150602083013567ffffffffffffffff811115612cc757600080fd5b612cd385828601612716565b9150509250929050565b600060208284031215612cef57600080fd5b8135610a3e8161284e565b60008060008060808587031215612d1057600080fd5b612d1985612677565b9350612d2760208601612677565b92506040850135612d378161284e565b9396929550929360600135925050565b600181811c90821680612d5b57607f821691505b60208210811415612d95577f4e487b7100000000000000000000000000000000000000000000000000000000600052602260045260246000fd5b50919050565b8183823760009101908152919050565b818352818160208501375060006020828401015260006020601f19601f840116840101905092915050565b61ffff8416815260406020820152600061154b604083018486612dab565b600061ffff80881683528087166020840152508460408301526080606083015261259a608083018486612dab565b60008251612e34818460208701612b1d565b9190910192915050565b61ffff831681526040602082015260006122be6040830184612b49565b600082601f830112612e6c57600080fd5b8151612e7a612735826126ee565b818152846020838601011115612e8f57600080fd5b6122be826020830160208701612b1d565b600060208284031215612eb257600080fd5b815167ffffffffffffffff811115612ec957600080fd5b6122be84828501612e5b565b61ffff85168152608060208201526000612ef26080830186612b49565b67ffffffffffffffff85166040840152828103606084015261259a8185612b49565b600073ffffffffffffffffffffffffffffffffffffffff808a1683528089166020840152808816604084015280871660608401525084608083015260c060a0830152612f6460c083018486612dab565b9998505050505050505050565b7f4e487b7100000000000000000000000000000000000000000000000000000000600052601160045260246000fd5b60008219821115612fb357612fb3612f71565b500190565b73ffffffffffffffffffffffffffffffffffffffff85168152836020820152606060408201526000612fee606083018486612dab565b9695505050505050565b60008060008060008060c0878903121561301157600080fd5b865161301c8161284e565b602088015190965061302d8161284e565b604088015190955061303e8161284e565b606088015190945061304f8161284e565b608088015160a0890151919450925067ffffffffffffffff81111561307357600080fd5b61307f89828a01612e5b565b9150509295509295509295565b60008282101561309e5761309e612f71565b500390565b73ffffffffffffffffffffffffffffffffffffffff8416815282602082015260606040820152600061154b6060830184612b49565b61ffff8716815260c0602082015260006130f560c0830188612b49565b82810360408401526131078188612b49565b73ffffffffffffffffffffffffffffffffffffffff87811660608601528616608085015283810360a08501529050612f648185612b49565b60006020828403121561315157600080fd5b8151610a3e81612b8856fea164736f6c6343000809000a",
  "linkReferences": {},
  "deployedLinkReferences": {}
}